:020000040000fa
:080000000002040000000000f2
:020000040000fa
:04000800920300005f
:020000040000fa
:04000c00d403000019
:020000040000fa
:0400100014040000d4
:020000040000fa
:04001400b203000033
:020000040000fa
:04001800f4030000ed
:020000040000fa
:04001c009606000044
:020000040000fa
:0400200034040000a4
:020000040000fa
:04002400960600003c
:020000040000fa
:040028009606000038
:020000040000fa
:04002c006e0400005e
:020000040000fa
:040030009606000030
:020000040000fa
:04003400960600002c
:020000040000fa
:040038009606000028
:020000040000fa
:04003c009606000024
:020000040000fa
:040040009606000020
:020000040000fa
:04004400960600001c
:020000040000fa
:040048009606000018
:020000040000fa
:04004c009606000014
:020000040000fa
:040050009606000010
:020000040000fa
:04005400960600000c
:020000040000fa
:040058009606000008
:020000040000fa
:04005c009606000004
:020000040000fa
:040060009606000000
:020000040000fa
:0400640096060000fc
:020000040000fa
:0400680096060000f8
:020000040000fa
:04006c0096060000f4
:020000040000fa
:0400700096060000f0
:020000040000fa
:0400740096060000ec
:020000040000fa
:0400780096060000e8
:020000040000fa
:04007c0096060000e4
:020000040000fa
:0400800096060000e0
:020000040000fa
:0400840096060000dc
:020000040000fa
:0400880096060000d8
:020000040000fa
:04008c0096060000d4
:020000040000fa
:0400900096060000d0
:020000040000fa
:0400940096060000cc
:020000040000fa
:0400980096060000c8
:020000040000fa
:04009c0096060000c4
:020000040000fa
:0400a00096060000c0
:020000040000fa
:0400a40096060000bc
:020000040000fa
:0400a80096060000b8
:020000040000fa
:0400ac0096060000b4
:020000040000fa
:0400b00096060000b0
:020000040000fa
:0400b40096060000ac
:020000040000fa
:0400b80096060000a8
:020000040000fa
:0400bc0096060000a4
:020000040000fa
:0400c00096060000a0
:020000040000fa
:0400c400960600009c
:020000040000fa
:0400c8009606000098
:020000040000fa
:0400cc009606000094
:020000040000fa
:0400d0009606000090
:020000040000fa
:0400d400960600008c
:020000040000fa
:0400d8009606000088
:020000040000fa
:0400dc009606000084
:020000040000fa
:0400e0009606000080
:020000040000fa
:0400e400960600007c
:020000040000fa
:0400e8009606000078
:020000040000fa
:0400ec009606000074
:020000040000fa
:0400f0009606000070
:020000040000fa
:0400f400960600006c
:020000040000fa
:0400f8009606000068
:020000040000fa
:0400fc009606000064
:020000040000fa
:04010000960600005f
:020000040000fa
:04010400960600005b
:020000040000fa
:040108009606000057
:020000040000fa
:04010c009606000053
:020000040000fa
:04011000960600004f
:020000040000fa
:04011400960600004b
:020000040000fa
:040118009606000047
:020000040000fa
:04011c009606000043
:020000040000fa
:04012000960600003f
:020000040000fa
:04012400960600003b
:020000040000fa
:040128009606000037
:020000040000fa
:04012c009606000033
:020000040000fa
:04013000960600002f
:020000040000fa
:04013400960600002b
:020000040000fa
:040138009606000027
:020000040000fa
:04013c009606000023
:020000040000fa
:04014000960600001f
:020000040000fa
:04014400960600001b
:020000040000fa
:040148009606000017
:020000040000fa
:04014c009606000013
:020000040000fa
:04015000960600000f
:020000040000fa
:04015400960600000b
:020000040000fa
:040158009606000007
:020000040000fa
:04015c009606000003
:020000040000fa
:0401600096060000ff
:020000040000fa
:0401640096060000fb
:020000040000fa
:0401680096060000f7
:020000040000fa
:04016c0096060000f3
:020000040000fa
:0401700096060000ef
:020000040000fa
:0401740096060000eb
:020000040000fa
:0401780096060000e7
:020000040000fa
:04017c0096060000e3
:020000040000fa
:0401800096060000df
:020000040000fa
:0401840096060000db
:020000040000fa
:0401880096060000d7
:020000040000fa
:04018c0096060000d3
:020000040000fa
:0401900096060000cf
:020000040000fa
:0401940096060000cb
:020000040000fa
:0401980096060000c7
:020000040000fa
:04019c0096060000c3
:020000040000fa
:0401a00096060000bf
:020000040000fa
:0401a40096060000bb
:020000040000fa
:0401a80096060000b7
:020000040000fa
:0401ac0096060000b3
:020000040000fa
:0401b00096060000af
:020000040000fa
:0401b40096060000ab
:020000040000fa
:0401b80096060000a7
:020000040000fa
:0401bc0096060000a3
:020000040000fa
:0401c000960600009f
:020000040000fa
:0401c400960600009b
:020000040000fa
:0401c8009606000097
:020000040000fa
:0401cc009606000093
:020000040000fa
:0401d000960600008f
:020000040000fa
:0401d400960600008b
:020000040000fa
:0401d8009606000087
:020000040000fa
:0401dc009606000083
:020000040000fa
:0401e0001a030000fe
:020000040000fa
:0401e40056030000be
:020000040000fa
:0401e8009606000077
:020000040000fa
:0401ec009606000073
:020000040000fa
:0401f000960600006f
:020000040000fa
:0401f400960600006b
:020000040000fa
:0401f8009606000067
:020000040000fa
:0401fc009606000063
:020000040000fa
:04020000960600005e
:020000040000fa
:04020400960600005a
:020000040000fa
:040208009606000056
:020000040000fa
:04020c009606000052
:020000040000fa
:04021000960600004e
:020000040000fa
:04021400960600004a
:020000040000fa
:040218009606000046
:020000040000fa
:04021c009606000042
:020000040000fa
:04022000960600003e
:020000040000fa
:04022400960600003a
:020000040000fa
:040228009606000036
:020000040000fa
:04022c009606000032
:020000040000fa
:04023000960600002e
:020000040000fa
:04023400960600002a
:020000040000fa
:040238009606000026
:020000040000fa
:04023c009606000022
:020000040000fa
:04024000960600001e
:020000040000fa
:04024400960600001a
:020000040000fa
:040248009606000016
:020000040000fa
:04024c009606000012
:020000040000fa
:04025000960600000e
:020000040000fa
:04025400960600000a
:020000040000fa
:040258009606000006
:020000040000fa
:04025c009606000002
:020000040000fa
:0402600096060000fe
:020000040000fa
:0402640096060000fa
:020000040000fa
:0402680096060000f6
:020000040000fa
:04026c0096060000f2
:020000040000fa
:0402700096060000ee
:020000040000fa
:0402740096060000ea
:020000040000fa
:0402780096060000e6
:020000040000fa
:04027c0096060000e2
:020000040000fa
:0402800096060000de
:020000040000fa
:0402840096060000da
:020000040000fa
:0402880096060000d6
:020000040000fa
:04028c0096060000d2
:020000040000fa
:0402900096060000ce
:020000040000fa
:0402940096060000ca
:020000040000fa
:0402980096060000c6
:020000040000fa
:04029c0096060000c2
:020000040000fa
:0402a00096060000be
:020000040000fa
:0402a40096060000ba
:020000040000fa
:0402a80096060000b6
:020000040000fa
:0402ac0096060000b2
:020000040000fa
:0402b00096060000ae
:020000040000fa
:0402b40096060000aa
:020000040000fa
:0402b80096060000a6
:020000040000fa
:0402bc0096060000a2
:020000040000fa
:0402c000960600009e
:020000040000fa
:0402c400960600009a
:020000040000fa
:0402c8009606000096
:020000040000fa
:0402cc009606000092
:020000040000fa
:0402d000960600008e
:020000040000fa
:0402d400960600008a
:020000040000fa
:0402d8009606000086
:020000040000fa
:0402dc009606000082
:020000040000fa
:0402e000960600007e
:020000040000fa
:0402e400960600007a
:020000040000fa
:0402e8009606000076
:020000040000fa
:0402ec009606000072
:020000040000fa
:0402f000960600006e
:020000040000fa
:0402f400960600006a
:020000040000fa
:0402f8009606000066
:020000040000fa
:0402fc009606000062
:020000040000fa
:04030000960600005d
:020000040000fa
:040304009606000059
:020000040000fa
:040308009606000055
:020000040000fa
:04030c009606000051
:020000040000fa
:04031000960600004d
:020000040000fa
:040314009606000049
:020000040000fa
:040318009606000045
:020000040000fa
:04031c009606000041
:020000040000fa
:04032000960600003d
:020000040000fa
:040324009606000039
:020000040000fa
:10040000af0921000eff22000e018800000000004d
:10041000000020000000e000020032000001200087
:100420002002880014000700420207000000e000dc
:1004300003003a008059220001002000020037002a
:100440000000200001002000810f70000100320038
:100450000f000700000020000000e0000200320052
:100460000000020000000000302102000000000037
:100470000040da000000fe00200020000000e00044
:1004800002003200100020009001880000000600e9
:10049000a1028800800478000000eb001f003700f4
:1004a000e284440054a0b4009905ba00e2844400f8
:1004b00054a0b4009906ba00e284440054a0b400e9
:1004c0000006eb00476fde00fd07b200ae018800ba
:1004d000636ce10003003a000ad801000000eb0061
:1004e0000e003700606ce10008003a00004deb00a0
:1004f0000a05e800020039003420ec000af0a000f0
:100500008b05e900f9ff3e00040037006168e10057
:10051000010032000086eb000b00070019c7ba008b
:100520001905ba000e04e00003003a000a00e000da
:10053000dbff3a0000000600fe07b200ae028800b2
:100540008a047800f5ff37000cd0a300e20f4d00bd
:100550001c003b0089027800354dba000a05e8000e
:10056000020039003420ec000af0a0008b05e900fd
:100570000f003200254dba000a05e80002003900dc
:100580003420ec000af0a0008b05e90008003200de
:100590000c00e0000600320015cdba000a05e800a4
:1005a000020039003420ec000af0a0008b05e900bd
:1005b0008984e80054a0b4000b00e000e2ff3a0098
:1005c000000006009902ba00055d78008b05e9007d
:1005d000f7ff3200c82ade00055d78008b05e900d0
:1005e000f3ff32000c00e000f1ff320019ddba0029
:1005f000eeff3700000000000000000000000000d7
:1006000000000000000000000000000000000000ea
:1006100000000000000000000000000000000000da
:1006200000000000000000000000000000000000ca
:10063000000000003600f800809fbe00829fbe00d0
:10064000849fbe00869fbe003200f8003400f80090
:1006500010002000a00188001000200000d0fe0043
:100660000200fa0091618000010f78000082800092
:100670000000e00003003200018280001e007800cc
:10068000010001000dc8a9000080fa003400f90043
:100690003200f9004f03be004f02be004f01be0002
:1006a0004f00be003600f900004006003600f8009a
:1006b000809fbe00829fbe00849fbe00869fbe00ba
:1006c0003200f8003400f80010002000a00188007b
:1006d0001000200000d0fe000200fa00a16180009e
:1006e000010f7800108280000000e000030032005b
:1006f000118280001e007800010001000de8a900b1
:100700000080fa003400f9003200f9004f03be0007
:100710004f02be004f01be004f00be003600f90080
:10072000004006003600f800809fbe00829fbe0099
:10073000849fbe00869fbe000000fa00c028a9006a
:100740000000eb00891107000080fa004f03be0093
:100750004f02be004f01be004f00be003600f90040
:10076000004006003600f800809fbe00829fbe0059
:10077000849fbe00869fbe000000fa008011070023
:10078000c048a90010002000781107000080fa007e
:100790004f03be004f02be004f01be004f00be001f
:1007a0003600f900004006003600f800809fbe00c9
:1007b000829fbe00849fbe00869fbe000000fa009c
:1007c000c068a90020002000681107000080fa001e
:1007d0004f03be004f02be004f01be004f00be00df
:1007e0003600f900004006003600f800809fbe0089
:1007f000829fbe00849fbe00869fbe000000fa005c
:10080000c088a90030002000581107000080fa00bd
:100810004f03be004f02be004f01be004f00be009e
:100820003600f900004006003600f800809fbe0048
:10083000829fbe00849fbe00869fbe000000fa001b
:10084000c608a90070002000481107000080fa00c7
:100850004f03be004f02be004f01be004f00be005e
:100860003600f900004006003600f800809fbe0008
:10087000829fbe00849fbe00869fbe000000fa00db
:100880002146800000102000008060000000e00091
:1008900003003200c508a900c00020003311070082
:1008a00020468000700060000000e000030032007d
:1008b000c488a900a00020002c1107002046800059
:1008c000610060000000e00003003200c408a900dd
:1008d000b000200025110700ffff37003600f800a8
:1008e000809fbe00829fbe00849fbe00869fbe0088
:1008f000889fbe003200f8003400f800100020008d
:10090000a00188001000200000d0fe001600fa00b0
:10091000fc0b0700008fbe00920b07002007980019
:1009200031079800c90b070040079800510798004d
:10093000280c07006007980071079800000020004d
:10094000811c2400000f9800110f98001000200057
:10095000200f9800008080001180800018c0b30034
:100960000001be002e009000be009000f2000700c3
:100970000000e000010034000044eb000804e00047
:10098000ce003200008080001180800018c0b300cb
:100990000001be004e009000de009000e60007005f
:1009a0000000e000010034000044eb000804e00017
:1009b000c2003200208080003180800018c0b30067
:1009c0000001be001e00be00dd0007000000e000c8
:1009d00001003d000044eb000804e000b7003200d5
:1009e000408080005180800018c0b3000001be002c
:1009f0001e00be00d00007000000e000010034002f
:100a00000044eb000804e000ac003200808080006d
:100a10009180800018c0b3000001be000e08900055
:100a20009e089000c40007000000e00001003400b0
:100a30000044eb000804e000a00032006080800069
:100a40007180800018c0b3000001be006e009000ed
:100a5000fe009000b80007000000e0000100340034
:100a60000044eb000804e00094003200e70a0700ad
:100a70003082880030828000cf80de00ee000700e8
:100a80004e019000de0190000301070040828800c3
:100a900051828800308280000000e0001a0032009d
:100aa0002e089000cf80de00e30007000002be00a9
:100ab00040828000518280000001be000400be0020
:100ac000c20207000002be00a0808000b18080004a
:100ad0000001be000400be00bc0207000002be0010
:100ae00080828000918280000001be000400be0070
:100af000f2000700808288009182880010002000a8
:100b0000200f9800030037006000b8008082880042
:100b100091828800c4808000d5808000408280005f
:100b2000518280000001be000400be00a702070041
:100b30000004be00e4808000f58080008082800098
:100b4000918280000001be000400be009f020700e9
:100b50000001be000800be00d800070060828800c7
:100b60007182880060828000718280000200200013
:100b700003212400b6010700020020007334240082
:100b80009202070018c0b300020020007334240052
:100b90006b0007000000e00001003d000044eb0096
:100ba0000804e00009003200000020007134240035
:100bb00060828800718288006000b80080828800ae
:100bc000918288000000eb00200f98006082800076
:100bd0007182800002002000032124009c01070094
:100be00002002000733424007802070018c0b3000c
:100bf0006011b800500007000000e0000100340060
:100c00000044eb000804e000080032006000b80077
:100c100060828800718288006000b800808288004d
:100c2000918288000000eb00200f98006082800015
:100c300071828000020020007334240063020700e8
:100c40000200200003212400810107003e0007006c
:100c500000007800cf80de00770007006082880007
:100c600071828800608280007182800057000700d6
:100c7000000078008000780010002000390d070087
:100c80001100200010002000500d0700110020006e
:100c900010002000400d070011002000100020006f
:100ca0003d0d07001100200010002000470d070037
:100cb0008000200070198800110037008000eb00d0
:100cc00010002000270d0700110020001000200058
:100cd0003e0d070011002000100020002e0d07001f
:100ce00011002000100020002b0d07001100200033
:100cf00010002000350d07008000200070198800ca
:100d00000028a9000080fa003400f9003200f90040
:100d10004f04be004f03be004f02be004f01be0095
:100d20004f00be003600f900004006000040da0027
:100d30000000fe000000050014002000ab03370097
:100d4000f4ff2f00a90337000001be003d0007009b
:100d50000470a70003f0a1006509b100160032007d
:100d60000d0035006828e10006003500f0ff2f0077
:100d7000f1ff27000300e00013003b000100280002
:100d80000000050000004000818048008502e90065
:100d9000fcff3a0008003700f88f420002003c00d8
:100da0008000eb00000005008100d1000080d3002e
:100db0008502e800fcff3a000300e00002003b006f
:100dc00060001000e0801800000006000001be0076
:100dd0001c0007000470a70003f0a10003f8a300a3
:100de00013003a006509b100100032000900350017
:100df0006928e1000200350001002800000005001c
:100e000000004000818048008502e900fcff3a00b4
:100e100000000600f88f4200050035008100d10077
:100e20000080d3008502e800fcff3a0000000600c5
:100e30008000eb00000005004f89de008201780091
:100e400085033700c70ade00f107b200f50fb200d4
:100e500008003200e1cf4200020032000170a00021
:100e600024000500810f7000010032000408050015
:100e700044000500810f700002003a0014000500d4
:100e80008502e9000000400081c04800fcff3b00f3
:100e90000170a0002400050007f827000783610007
:100ea0000638e10004003a00f7072000878361005c
:100eb0008703710001003a0003f0a200889fbe0082
:100ec0008a9fbe008c9fbe00470ade000480a100fe
:100ed000c71ade000580a100070028000785600012
:100ee00087856100f70f20000720e1009e00320097
:100ef0000728e1009c003200010678000400e000b1
:100f0000b4003200f7072000878060000170a00065
:100f10000500e000c0003200f70720008781610073
:100f20000370a000050652000f003a000b50e100cc
:100f30000b0032000308e10002003a000200e10069
:100f40007e00320002045000838458000400310007
:100f50000001fd008101fd008402fd008a05fd0005
:100f60006044b800210037000520e10005003d0085
:100f70000001fd008101fd008402fd008a05fd00e5
:100f8000050652007a60e100050035000170a100fd
:100f90004722dd00848070008a8070006300370083
:100fa0006044b800ef02660007ff2f0007066600e6
:100fb0000500e00006003400f08312008714dd0015
:100fc0000511de00071bdd00060171008519de003a
:100fd0007060e100050035000904780082047800a3
:100fe000030178008001eb00700656000b50e10011
:100ff00003003a00020040008380480004003700ec
:1010000060041400e0841c00020058008380580033
:101010000188a300060032008100d1000080d300c7
:101020008984d3000884d3000402e8002700370035
:101030000178a30025003a000100e000030032001f
:101040008186cf00698656000a0037008c00200098
:101050000000e00004003a000900780088047800ed
:101060000004eb00700252008086cf000d0646009f
:101070000c06e9007060e100060035008000780091
:1010800009007800880478000004eb007006560020
:10109000700252000c00e0000c0034008c08dd00ef
:1010a000f00316000703de00868070000c00dd00f0
:1010b000074bde00060070008c4cdd000743de00ad
:1010c000868474000c44dd000c0252006120e100b3
:1010d000200035006101600007002800878164005e
:1010e000f7ff270087836400070374000300e00014
:1010f0000600320082037300040032000000e800a2
:10110000e08048000188a3000e003a00f70f20009d
:101110000720e1004a003d000170a1004722dd00e8
:10112000810072008a8070000000be004f06be0081
:101130004f05be004f04be00000006006000b8006e
:10114000faff37008100d1000080d3000402e800dc
:10115000eeff37000401780089017400a101070047
:101160008a807000f1ff3700f7010700070278005e
:101170000001fd008101fd00f301070087027800f6
:10118000850372000778a300040032000001fd000f
:101190008101fd0006020700e4ff370085036200bd
:1011a0000768a300080032000b50e1000300320082
:1011b000f0ff2f00f1ff2700dcff37000001fd00ea
:1011c0008101fd00d9ff37000468a300d7ff32007a
:1011d000faff3700f8ff2700888360000b003a0011
:1011e0000000e00009003a0083036400828373007a
:1011f000020032000200be00ccff37000b50e100bd
:10120000ceff3a000200be00c8ff370014002000e5
:10121000810064003eff3700f8ff270088836100eb
:1012200004003a000200e00002003a008c0078005e
:10123000beff3700150020008301640039ff37002e
:1012400001f827000000200081007500b7ff37007b
:10125000889fbe008a9fbe008c9fbe001b0020009e
:101260000202be0005866800060028000606660029
:101270004709de00f20fb200820032000243e800ac
:1012800080003200c729de00f30fb2007d0032007b
:101290000343e8007b003200f107b2000170a000b8
:1012a000f507b2000570a000c708dd004903de00a5
:1012b000868070004700dd00c72add004923de007c
:1012c000868272004722dd000305510004035000ae
:1012d00085835800030031000000400081804800f1
:1012e0000a05e9008c1f78008a9fbe0004005000a8
:1012f000858058000402420085824a0000004000b8
:10130000818048000005eb000004be006033b80097
:101310000406be000d48e10056003100050009003a
:101320004dccd8000c01b8000d02b80084814100fa
:1013300060824a008283530003045c0084845c0062
:1013400060055d000a00e00025003a008005780095
:101350000d40e10049003100880078000700780066
:10136000050009004d88d8000c01b8000d02b80036
:101370008481410060824a006003110083835b0026
:1013800004045c00e0845c000900e00021003a00f5
:101390004f01be000300e0002b003200e3016000bb
:1013a000070673008c817100010032006400700038
:1013b0004200de004e5edd000c007000c258de0010
:1013c00001e0a00083010700cf0178008180710057
:1013d0004f06be004f05be004f04be0000000600d1
:1013e0008c8343000d044c00e0844c0060054d00ec
:1013f0000000e9000a00e000d4ff32008c834300c3
:101400000d044c00e0844c0060054d000000e90034
:10141000ceff37000c0343008d834b0060044c006b
:10142000e0844c000000e9000900e000d8ff320031
:101430000c0343008d834b0060044c00e0844c009f
:101440000000e900d2ff37004200de004e5edd0002
:101450000c007000c258de0001e0a000cf0178004f
:101460000300e000daff320060001000e0801800a6
:10147000d7ff3700f0ff2f00aaff3700f0ff2f0043
:10148000b9ff37000404be002f010700870678006b
:101490000004fd008104fd002b01070007836600a6
:1014a0000678a300030032000960a7000800be0010
:1014b0002c0037000d78a300020032000800be00a7
:1014c000280037000778a30026003a0001f0a100a9
:1014d00009f0a1000668a30003003200f1ff270015
:1014e000f0ff2f00baff37000d68a30003003200a1
:1014f0000800be008c807000b5ff37000768a300ad
:1015000007003a000648a30003003200f1ff27005d
:10151000f0ff2f00aeff37000d48a300030032009c
:101520006000b8008c807000a9ff37000748a30056
:101530000400320001f82700000020008c807000b9
:10154000a3ff3700760107000004fd008104fd00c1
:1015500002057800720107000802be008a017800c7
:1015600059ff37000160a00012022000f2828800bb
:1015700097ff37000100e000120032000500e00094
:1015800010003200889fbe008a9fbe008c9fbe0064
:101590000006eb0001f8a300030032006000100019
:1015a000e08018000cf0a00005f8a3000300320052
:1015b00060021200e0821a000cf0a2008005eb002d
:1015c00041ff37006000b800020005000383680097
:1015d0000700280007036300470ade000480a1001b
:1015e000c71ade000580a100f70f20000720e100e8
:1015f000420032000728e10040003200889fbe0010
:101600008a9fbe008c1f7800f107b200f307b2007a
:101610000400e000640032000170a0000500e0005a
:10162000680032000370a00085054200eb07b1009e
:101630000204b8000302b8008484440060854a00b4
:10164000020ab800848444000a854a00030ab800ec
:1016500004054500040033000804d0008984d2004a
:101660000a85d2008b05e9006158e1003d00350094
:101670000210200009016100030820008981610037
:10168000f70720008783640008867300c84cde00db
:10169000c853dd00878474004855de000300e00075
:1016a0000600320082037600040032008904e8005c
:1016b00060054d000a88a3000c003a00f70f2000d7
:1016c0000758e10044003d000a70a100c75ddd003d
:1016d0000a8575008a007300090078004f067800bb
:1016e0004f05be004f04be00000006000a05d100f1
:1016f0008984d3008b05e800f0ff3700881f78004d
:101700000604780090000700070278000001fd0041
:101710008101fd008c0007008702780085037200bc
:101720000778a300050032000001fd008101fd00e3
:101730009f0007004f047800000006008503720038
:101740000748a30003003200f0ff2f00f1ff27003d
:10175000f8ff37000000200001f8270088807000a3
:10176000f4ff3700880178004848dd00808171006f
:101770004848de00c850dd0001007000c850de009f
:10178000060478000b0178001600070088807000be
:10179000d2ff37000500e0000500320017002000ee
:1017a0003a0007009dff370081037000f9ff3a00ff
:1017b000860078004f0678004f05be004f04be003b
:1017c0000000050083037100f9ff320027002000ac
:1017d0002e00070094ff370001f827008680700074
:1017e000f4ff37000100e000260032006101110023
:1017f0007810e10023003c006022b8007010e10086
:101800000400350080027800010078008000eb00c1
:10181000700151000200e000090034007003110063
:10182000062add00822ade008603dd008782720040
:101830000200de00860bdd00070070008208de007b
:1018400084817100f4ff27000482620084817100aa
:1018500004002800848262006102600005f0a60096
:101860000000060004827100070032000000e8005a
:10187000e0804800000006000002be006000b800e2
:10188000efff37006000b80000000600889fbe0030
:101890000004eb006138e10016003a000100e000ae
:1018a00008003a00c800de004800dd008800200083
:1018b0000100e00003003a00c800de004800dd003f
:1018c000680444008184cf00e98454000600340099
:1018d0008908dd00f08314008703de008780700034
:1018e0000900dd0009044400610214004f04be0039
:1018f000000006000300e00008003a00c811de0006
:101900004811dd00880020000300e00003003a00d9
:10191000c811de004811dd00680444008384cf0054
:10192000e9845400060034008919dd00f0831400b6
:101930008713de00878171000911dd00090444006e
:10194000e1021400e9ff37002700200001f0a700a2
:1019500017002000470bde00f60fb2000400320033
:101960000643e8000a0032004702b3000000060008
:1019700001037800f607b2000603700002003a0087
:101980000703b300000006008702b3000000060052
:1019900001037800f607b20006037000020032006f
:1019a0000770a000000006000760a000000006000d
:1019b0000478a300040032000578a300030032007d
:1019c0000168a30001003a000200be000160a0000f
:1019d0000000060081017000270032008002eb0049
:1019e00001f8a3000300320060001000e08018003e
:1019f00015002000f40720000202420020003400fd
:101a0000f703200087036000060420000003630042
:101a100002082000000161004700de00c909dd0066
:101a200000807100c708de000600e00008003200f8
:101a300087037100060032001000b0000180b00082
:101a40000188a30002003200c108de000402e800a1
:101a5000f107b200f30f20000320e10003003d0076
:101a60004722dd00810072002900370001f82700bd
:101a70000000eb00260037006000b8000000060000
:101a8000680212007f20e100020034006000b8000c
:101a90001f0037006011b8007020e100040035001d
:101aa00080017800010078008000eb007002520095
:101ab0000400e00009003400f00312000719dd0003
:101ac0008419de000703dd00868171000400de005a
:101ad000070bdd00060070008408de00f7ff27001a
:101ae00083836300870371000600280003036300fb
:101af000070032000700e00003003a0061016000c7
:101b000002817300020032001000b0000180b000ba
:101b10000500a6000000060001f0a000000006007d
:101b20004f0ade004709de00f107b200f20fb200f3
:101b30000b003200f207b1000170a000c708dd0001
:101b4000c901de00838070004700dd000400a600ac
:101b50000000060060001000e08018000000060091
:101b6000810f700001003a00000006008182cf0062
:101b70000500e00010003e008082cf00ee824200af
:101b80007028e1000400390007003e008000780062
:101b90000000eb000e003700708312008600de00ac
:101ba0000500dd000a003700708352008600dd006a
:101bb0000000eb0006003700e28252008508dd00dd
:101bc000708312000603de00868070000500dd00d1
:101bd0007507b0000501ea000400a6000000060039
:101be00060001000e080180000000600889fbe0022
:101bf0008a9fbe00841f78007c0007004f00780099
:101c000011003300f0ff2f00838f6c0006003b00b3
:101c1000040565000a00a7000800370009f0a600c7
:101c20001000200008003700820f5400838f5c00f2
:101c3000030039001000200001003e0000002000d9
:101c400009f0a7000000ea004f05be004f04be00e7
:101c50000000e00000000600881f78000304780000
:101c60000300e00007003d0060001000e080180065
:101c700060011900e081190002003b0001f02d0015
:101c8000030037000400070008f0a70001f0a000df
:101c90004f04780000000600889fbe008a9fbe00a7
:101ca000008270000402710004827100260032007c
:101cb0000004be000200be006011b8006b092000e5
:101cc000950220000182cf000a0039000541b100d1
:101cd0000082cf00070039000541b1000982cf0022
:101ce000040039000541b1000882cf00010039002d
:101cf0000541b10005425200120032000a003b00cb
:101d000082817100610164008100d1000080d300f4
:101d10008984d3000884d3008b05e8000442e800de
:101d2000f7ff3a00070037000804440089844c009c
:101d300000004800818048008b05e9000442e9006a
:101d4000f9ff3a00030007004f05be004f04be0034
:101d50000000060081002000618055000b003d005e
:101d60000b00200061fe2f000100e1001d00340087
:101d700082817100610164008904d1000884d3006c
:101d80000000e800faff3a007100200061006400e2
:101d9000030070000200600009003200610444008a
:101da000e0844c000988a500050032008b05e8009e
:101db0006808e10002003a008904d1000884d300d9
:101dc000f20f20000258e10005003d00c75ddd0074
:101dd000f907b2008980750008007800000006004d
:101de0000bf827008b007800000005000004be00ff
:101df00014fc07000003be000405be000200be0084
:101e000010fc0700844f7500000006004f02b00070
:101e1000889fbe008a9fbe008c9fbe008e1f7800e8
:101e20000005be000204be00b2af9f00c3af9f001a
:101e3000b2b79f00c3b79f00cfae97000df0a100cf
:101e400002067800e00f5600e08f5e00c00332000b
:101e5000faaf9f008bb79f000000200001f823001d
:101e6000800f5500818f5d00b90332008fb297005b
:101e700005f0a1007faa970094b79f00a5b79f0027
:101e80000000200001f82700800f5200818f5a00c7
:101e900003003c00800f5600818f5e000400340078
:101ea0000a01be000800be0004fc0700af033700b3
:101eb0006033b8007fa997008fb19700e00f510001
:101ec000e08f590029003d00260020000700200077
:101ed000f0ff2f00f1b72400800f5600818f5e00c5
:101ee00022003c006033b800f0ff2f00f1f7230020
:101ef000800f5600818f5e003300340047e8de001b
:101f0000cfe8de00f007b1000180b10077011000da
:101f10000c00be00820178008301e9000300330059
:101f20008180d1000080d300fbff37000003be009a
:101f3000020778000e07e9000300330006034300a0
:101f400087834b00fbff37000601be006033b800fb
:101f50008c0f51008d8f59001b003a006103600007
:101f600062031300e0831b0017003700000020000d
:101f700001f82700800f5600818f5e0012003a00a2
:101f80000000200001f82300800f5200818f5a00ca
:101f90006f033200060034003fb09700cfb09700c7
:101fa000e00f5000e08f580071033d006b033700d5
:101fb0003fb19700cfb19700e00f5100e08f59007b
:101fc00066033d00690037000000200001f823008f
:101fd000800f5600818f5e0009003a003fb29700e3
:101fe000cfb29700e00f5200e08f5a005d033d0032
:101ff0000a01be000000200001f823005500370050
:1020000000002000010024003fb19700cfb19700ed
:10201000800f5100818f590003003a000a01be0071
:102020000a00be00480337000000200001f0230032
:102030003fb19700cfb19700800f5100818f5900b9
:1020400008003a007fa897008fb09700e00f50007b
:10205000e08f5800030035000a00be00c6030700e9
:10206000420337000a00be00f4b79f0085bf9f00ff
:10207000d6b79f00e7b79f00490407000200200081
:1020800003f827007fb297008fba97005fb39700dd
:10209000efb39700820f5200838f5a00080032007e
:1020a000e00f5200e08f5a000500320002002000cd
:1020b00003f82300820f5200838f5a002d003a004c
:1020c0003fb19700cfb19700e00f5100e08f59006a
:1020d0000c003d000001be000000200001f82300bc
:1020e000f4b79f0085bf9f00d6b79f00e7b79f005a
:1020f00057fc07007fb297008fba97005fb3970035
:10210000efb397007fa997008fb19700e00f5100c0
:10211000e08f590015033d000200200003082c0049
:102120000402410085824900040273008582730025
:10213000e00f5200e08f5a0008003a00120220001f
:10214000c28488000001be000200be0052fb0700ee
:102150000001be003efc070004033700e10f5300fe
:10216000e08f5b0001033a000004be0009f0a2000a
:10217000ff0237007fa997008fb19700e00f510051
:10218000e08f59000d003d00e00f5300e08f5b0031
:1021900004003a0010022000c08488000a01be003a
:1021a000e9ff3700e10f5300e08f5b0008003200c9
:1021b0000600200007f82300070037000200200077
:1021c00003f82300f2af9f0083b79f00040037009d
:1021d0000600200007f82b00f6af9f0087b79f008e
:1021e0000200200003d02400820f5600838f5e007f
:1021f0005600340072ff2f00f3f72300820f5200c5
:10220000838f5a0006003c003fb09700cfb0970084
:10221000e00f5000e08f580004023d00e20137005b
:102220007200200003f82300820f5200838f5a00af
:10223000060034003fb19700cfb19700e00f510086
:10224000e08f5900d8013c00f8013700020020005f
:1022500003f8230010fb07000005be0002a02a00bf
:1022600083fb2300d9fc070090b79f00a1b79f0014
:1022700002572a00c36e23000a00be00d3fc0700e9
:102280000002be000a01be000a00be00f4b79f00b3
:1022900085bf9f00cdfc07000006be0002002000a5
:1022a00003e823000a00be00c8fc07000001be00ce
:1022b000b0aa2a00a1ea2300f7fa07000001be0035
:1022c0000a00be00c1fc07000001be0000002000a3
:1022d00001f02300f0fa07000001be000c00be0070
:1022e000bafc0700b2a32a0083fb2300b7fc070057
:1022f0000001be007fb297008fba97000400be00b5
:10230000e5fa07000005be000001be001fb09700ff
:10231000afb09700e9fa07000001be008300780023
:1023200004002f00020062000003be00b6b79f0049
:10233000c7b79f001fb19700afb19700d6fa07004b
:102340000001be000a00be00560137006011b8004f
:10235000f6ff2f00f7072000860f5200878f5a00e4
:1023600007003c000200200003b8240097fc07008f
:1023700090b79f00a1b79f0082fe2f00f3ff2f00b0
:10238000f207b1000380b1002fb2970047a0de0032
:1023900084027800cfa8de00020340008383480057
:1023a00096af9f00a7af9f0085007800f107b200ad
:1023b0001fb097000200200003f823000202700003
:1023c0008382700094b79f00a5b79f006033b80068
:1023d000d6af9f00e7af9f0012472c00c30120003b
:1023e000820f5000838f58001a0034001200200022
:1023f00003002000d2af9f00e3af9f00623d2b009f
:10240000d3052000820f5000838f58001100340044
:102410001faa9700afaa970061024200e0824a001b
:1024200094af9f00a5af9f000000200001f82f008f
:102430001fb39700afb3970006034000878348009f
:1024400096b79f00a7b79f006000b800d0af9f006d
:10245000e1af9f00dfa89700c208dd0081af9f00b9
:1024600000082100010040001005be000a01be0066
:102470001fb09700afb0970087fa07000006be00b4
:102480000a01be001fb09700afb097008bfa07009b
:102490000001be000000200001f823006cfb0700d3
:1024a0000002be000001be000c00be00f4b79f0099
:1024b00085bf9f0045fc07000003be000e002f00f3
:1024c00081017800c3b79f0000016700b2b79f0089
:1024d0005fa89700efa89700c500dd00000020006e
:1024e000d0af9f00e1af9f0000002000010420005a
:1024f0005fa99700efa9970002014000838148007f
:10250000d2af9f00e3af9f001fb09700afb097001e
:102510008181d1000081d3008300780001d0a10027
:102520000200670001d0a0005fa99700efa9970003
:102530000201400083814800d2af9f00e3af9f00bb
:102540005fa99700efa997003fb09700cfb0970021
:10255000d6b79f00e7b79f001cfc07000001be0034
:102560000c00be004cfa07000006be000a01be00c7
:102570005fa89700efa8970047fa07000001be0088
:102580001fb09700afb0970043fa07000001be00ec
:102590003fb09700cfb097000cfc07000001be00d1
:1025a0000c00be003cfa07000001be007fb297009d
:1025b0008fba97000400be0004fc07000006be00ae
:1025c0005fb39700efb397000601be000600be00a0
:1025d000fefb07000005be000001be00fbfb07007c
:1025e0000002be0022142f0033e523000a00be00c3
:1025f000f4b79f0085bf9f00f4fb0700522523001e
:10260000c3e623002dfa07000001be000a00be0049
:10261000eefb070052302a00b3e8230027fa070038
:102620000001be000a00be00e8fb0700b2aa2a00b3
:10263000a3ea230021fa07000001be000a00be0041
:10264000e2fb070072db2600b3ed23001bfa070054
:102650000001be000a00be00dcfb0700a2992900b1
:1026600093f1230015fa07000001be007fb2970026
:102670008fba97000400be00d4fb07000005be001f
:102680005fb39700efb397000601be003fb097001d
:10269000cfb0970009fa07000001be000c00be0091
:1026a000cafb07000001be000a00be0003fa0700d3
:1026b00090b79f00a1b79f003fb19700cfb197009f
:1026c0000200be00c1fb07000005be0002002000a2
:1026d00003042400f9f907001fb19700afb1970078
:1026e000f6f9070081027800000267000401be00cd
:1026f0003fb09700cfb09700f4b79f0085bf9f0011
:10270000b2fb0700b0b79f00c1b79f007fb2970030
:102710008fba97000401be000c00be00abfb07009f
:102720000006be0002002000030424007fb29700d0
:102730008fba97000400be00d7f907000a01be0057
:10274000d5f907000001be001fb09700afb0970099
:10275000d1f907005fb39700efb397000601be0001
:102760009afb07000001be000c00be00d3f9070071
:102770000005be000001be003fb09700cfb097003b
:10278000cef90700810278000002670002002400f1
:1027900063f723000400be00f4b79f0085bf9f00cd
:1027a0008afb070090b79f00a1b79f00623c220000
:1027b000638f2b007fb297008fba97000400be0092
:1027c00082fb07000006be003fb19700cfb1970023
:1027d0007fb297008fba97000400be00aef90700e1
:1027e0000001be000a00be00abf90700f28423001e
:1027f00063f7230075fb07000001be000c00be005c
:10280000aef90700820821008fab97000701410055
:102810001201be00a9f90700d0af9f00e1af9f00f1
:102820001fa89700afa8970083f907000006be0015
:10283000000921008fa99700030040001005be0089
:102840005fa99700efa997001fb09700afb097005e
:102850009af907000a01be0098f907000c01be00b2
:1028600096f907000001be008300780002006700af
:102870000002be00b4b79f00c5b79f000c01be00a8
:1028800085f907000a01be0083f907001fb1970010
:10289000afb1970080f907000001be005fa8970064
:1028a000efa897007cf907000005be00cfaa9700ab
:1028b00000002f00bfab9700070260000401be00bc
:1028c0000800be00f4b79f0085bf9f0072f90700a3
:1028d0003fb19700cfb197003cfb07000006be0058
:1028e0000a01be000800be0038fb07000001be0060
:1028f0000c00be0071f907000004be003fb1970054
:10290000cfb197007fb297008fba97000400be0046
:102910002efb07000005be00b0b79f00c1b79f00a7
:102920000a01be000800be0064f907000006be00f0
:102930000003be000000200001302400800f56007c
:10294000818f5e0018003c00800f5600818f5e0072
:102950001d003a00c2a32a00833323000800be00f2
:10296000dcb79f00e7b79f0054f907000002be00e4
:102970000a01be000c00be00f4b79f0085bf9f0097
:1029800045f907000001be007fb297008fba97009b
:102990000400be00eaf807005fb39700efb39700aa
:1029a0000000e00029003400a22c2f00931427001f
:1029b0007fa897008fb0970004fb0700a22c2f0080
:1029c00093142700e00037008701780003f0a1008e
:1029d0000c0178000000200061312400800f5100bc
:1029e000818f590011003c000000200061312c0053
:1029f000800f5600818f5e0014003a000a01be006d
:102a00000c00be00dcb79f00e7b79f0022f907006b
:102a10000001be000800be00c7f807005fb39700c2
:102a2000efb397000000e00008003c0002262400fd
:102a300023da20007fa897008fb09700e3fa070001
:102a40000226240023da2000bf0037008701780027
:102a500003f0a100060178006022b8000000200009
:102a600001f02300800f5100818f59003a0034009b
:102a70004798de0022f82f000001410000002000ee
:102a8000010820000201e900030033008180d10029
:102a90000080d300fbff37000000430081804b0023
:102aa000010678008c01780003f0a100479ade004f
:102ab000cf9ade000401be00f207b1000380b1002e
:102ac000b2b79f00c3b79f00f4ff2f00f5072000a7
:102ad000bfb197008301e900030033008582d10074
:102ae0000482d300fbff37000482ea008582ea00fb
:102af0008501660000016200fd0720008d0266006e
:102b0000000278000570a0003fb79700770017001b
:102b10000000e900030033008582d1000482d30065
:102b2000fbff3700e00f5300e08f5b0002003d0029
:102b300060021200e0821a000a00be00f4b79f0093
:102b400085bf9f00d4f80700b0b79f00c1b79f00b2
:102b50008fba97007fb297003fb19700cfb197002f
:102b60000800be00f4b79f0085bf9f00d3f80700a0
:102b7000810678000200280000066100022027007c
:102b800013f323000c00be0090fa07000005be00fe
:102b90003fb19700cfb197000c00be00bef8070010
:102ba0000001be000800be00bbf80700822127001c
:102bb00013f3230085fa07000004be00c2e82b00cf
:102bc000f35b23000c00be0080fa07000001be008a
:102bd0000800be00b9f807000006be000001be00f4
:102be0000a00be00b5f807000004be000a01be00de
:102bf000a9f807000001be000c00be00a6f80700ff
:102c0000b0b79f00c1b79f000801be000800be001a
:102c10006efa07000005be00c2b42b001333230078
:102c20006afa0700e2a02e00d35d23009af807009d
:102c30000001be000a00be0064fa070052352b00f6
:102c4000a38823009df807000001be000a00be0013
:102c50005efa070012b6200063b323008ef8070067
:102c60000001be000a00be0058fa0700b2aa2a00fe
:102c7000a3e2230091f807000001be000a00be0095
:102c800052fa07000001be000800be0082f80700eb
:102c90000005be000001be000800be004bfa0700a0
:102ca0000006be0002002000030024000a00be004f
:102cb00079f807000001be000c00be0064f90700af
:102cc0000005be003fb19700cfb197000800be00dd
:102cd0003efa07000001be003fb09700cfb097005a
:102ce00076f807000001be000a00be006af807007f
:102cf0000801be0068f807000001be0000002000c7
:102d000001f8230064f807007fb297008fba97009c
:102d1000c721dd000200200002014000838148003d
:102d2000479bde00cf9bde00e00f5300e08f5b008f
:102d300003003c0004017800650007000001be00ac
:102d40007fa897008fb0970020fa07000700370090
:102d50000800200009f82300050037006044b8008f
:102d6000030037000a04be00010037000004be0063
:102d70000800be004f0778004f06be004f05be009a
:102d80004f04be004f02b100000006000400fa002c
:102d9000889fbe008a9fbe008c9fbe000004be00bc
:102da0004708de00f00fb20051092000810f5000eb
:102db00041003c000806be00e00f5400e08f5c00bc
:102dc00003003d000805be000bf0a2000100370023
:102dd0000805be00d1072000810f50000a003c000a
:102de0000200200003b024000a00be0033f80700f0
:102df00080bf9f0091bf9f006011b8000800be0017
:102e0000f2f907002b0037000200200003b0240075
:102e10000a00be0029f807000200200003b02400c9
:102e20001df807000a01be001bf807000004be00e1
:102e30000200200003f02300c1f707000000e000bb
:102e4000070034000a01be000800be001bf807009e
:102e50000200200003f823000ff807000f003700de
:102e60000200200003f02b000800be00b2f70700ac
:102e70000000e00006003c000a01be000800be00a1
:102e80000ef807000200200003f8230002003700bc
:102e90000a01be000800be0008f80700e00f560057
:102ea000e08f5e0003003d000004be0009f0a200b8
:102eb000010037000004be000800be004f06be003f
:102ec0004f05be004f04be000080fa00000006005f
:102ed000889fbe0002047800f9072000890f540083
:102ee0000d0034000200200003f02700b7f90700ae
:102ef000f807b100890f54001700340002002000c9
:102f000003f02700b1f90700f807b100890f54005a
:102f100010003c001000370029f82f00890f5400e2
:102f20000d003d000200200003c82000a7f90700a3
:102f30006806b000890f540007003d000200200021
:102f400003c82000a1f907006806b000890f5400eb
:102f500001003d0009047800f2072000080141004b
:102f6000cf91de00c711dd000200200097f90700b5
:102f70004f04be0000000600889fbe008a9fbe006e
:102f80008c9fbe000004be000400200005f827004e
:102f90008583600004037800840f5300858f5b00f5
:102fa00007003a000801be000800be0087f90700cc
:102fb0000001be000800be00c0f707001000370087
:102fc000e00f5000e08f58000f003c0081017800b6
:102fd00003f0a10000017800e00f5100e08f5900dc
:102fe0006a00320010022000c08488000801be0080
:102ff0000800be00a8f707000001be0094f8070013
:103000000004be0061003700478cde00cf8cde007c
:10301000e00f5400e08f5c000f003a006044b800fd
:103020000400370000004000818048006104440033
:10303000e0844c000400200005082000818162002b
:1030400004017800e00f5100e08f5900f5ff3200d5
:1030500061041400e0841c00f807b1000980b1008d
:1030600081017800f307b200000178000200be0081
:103070000170a0000808a300020032000000400018
:10308000818048008984d1000884d300000040007a
:1030900081804800940120000200200003102000dd
:1030a0006055b8006066b8000c0341008d8349008c
:1030b000800f5300818f5b0006003c000606410034
:1030c0008786490006005000878058000a054100a5
:1030d0008b85490000004000818048008301d100b9
:1030e0000281d3000402e900efff3a00e00f500034
:1030f000e08f58001b0032000226240023da200053
:103100000000200001f8230063f707000200200000
:1031100003f823000af707000000e0001100350063
:103120000226240023da20000000200001f82300fa
:1031300062f707000200200003f8230000f70700f1
:103140000000e0000300340062054500e0854d000a
:10315000040037006000b80061006500000545000c
:1031600081854d00c744dd000800200000002000dc
:1031700001f0230008044000898448008b85d100b9
:103180000a85d3000804450089844d000800be006c
:103190004f06be004f05be004f04be0000000600f3
:1031a0000001be008300780001f0a1000200780059
:0431b0000000060015
:020000040000fa
:1031b4000400fa00000f7800110798001e00780040
:1031c400e10f500004003a009e009000911a88001c
:1031d4000000000001003700000000000080fa0039
:1031e400000006000400fa00000f780011079800a0
:1031f4001e007800e10f500004003a009e00900089
:10320400711a88000000000001003700000000006f
:103214000080fa00000006000400fa00000f7800a5
:10322400110798001e007800e10f500004003a00d6
:103234009e009000d11a88000000000001003700b1
:10324400000000000080fa00000006000400fa00fc
:10325400000f7800110798001e007800e10f50005d
:1032640004003a009e009000e11a8800000000006b
:1032740001003700000000000080fa000000060092
:103284000000fa0001eba8000080fa00000006002c
:103294000000fa0001eba9000080fa00000006001b
:1032a4000000fa0008cba8000080fa000000060025
:1032b4000000fa0008cba9000080fa000000060014
:1032c4000200fa00000f78000080fa0000000600f7
:1032d4000400fa00100798001e009000e30f50004d
:1032e40017003200e30f500005003e00e10f5000cc
:1032f4000d003200e10f50000e003e0007003700c1
:10330400e50f500014003200e50f50000f003900a3
:10331400e60f50001300320015003700d160800022
:10332400010f78001200370021618000010f78003e
:103334000f00370051618000010f78000c00370046
:1033440071618000010f78000900370091618000ed
:10335400010f780006003700a1618000010f78009a
:103364000300370061608000010f78000000000056
:103374001e0078000080fa00000006000400fa0035
:10338400100798001e009000e30f50002c0032003c
:10339400e30f500005003e00e10f5000140032001e
:1033a400e10f50001c003e0007003700e50f5000fd
:1033b40037003200e50f50002b003900e60f5000b3
:1033c4003d003200460037008059800077800a00b3
:1033d400000000000080fb0000f0a7000000ea00ed
:1033e4000000ea004f00de00004f78003c00370088
:1033f40080598000cc800a00000000000080fb009f
:1034040000f0a7000000ea000000ea004f00de0020
:10341400004f78003200370080598000ff800a0096
:10342400000000000080fb0000f0a7000000ea009c
:103434000000ea004f00de00004f7800280037004b
:103444009059800011800a00000000000080fb00f9
:1034540000f0a7000000ea000000ea004f00de00d0
:10346400004f78001e0037009059800033800a0016
:10347400000000000080fb0000f0a7000000ea004c
:103484000000ea004f00de00004f7800140037000f
:103494009059800044800a00000000000080fb0076
:1034a40000f0a7000000ea000000ea004f00de0080
:1034b400004f78000a0037008059800000800a001d
:1034c400000000000080fb0000f0a7000000ea00fc
:1034d4000000ea004f00de00004f7800000000000a
:1034e4001e4078000080fa00000006000600fa0082
:1034f40030002000100798000000eb00200798001f
:103504000000eb00000f7800e30107005cff0700f8
:103514001e0090006aff070061ff07000000eb0037
:10352400000f7800010037001e0fe800703e2000f5
:103534009e007800808f5000fbff34005cff070082
:103544001e00900062ff070061be2f0001004000d2
:10355400200798004eff07002e009000cf80de0069
:1035640034f6070002002f00f357240037f7070052
:10357400020020006331240013f807000002be009b
:10358400c0828000d18280000001be000400be0021
:103594000df80700d2cc2c00c3fd23002bf7070045
:1035a400f9fd0700e7f507000000780000f0a70028
:1035b4000000ea000081880000818000800078001b
:1035c4001000200007ff0700110020001000200059
:1035d4001eff070011002000100020000eff07004e
:1035e40011002000100020000bff07001100200034
:1035f4001000200015ff07008000200070198800cb
:103604000080fa00000006000e00fa0030002000de
:10361400100798000000eb00200798000000eb0062
:10362400000f780000002000011a240030079800e1
:10363400410798006000b80050079800610798009f
:10364400950107000eff07001e0090001cff0700f5
:1036540013ff07000000eb00000f780001003700a3
:103664001e0fe800703e20009e007800808f5000fe
:10367400fbff34000eff07001e00900014ff07003c
:1036840061be2f00010040002007980000ff0700e2
:103694002e009000cf80de00e6f5070002002f0028
:1036a400f3572400e9f607003e019000ce01900094
:1036b400c5f70700b4fd0700a2f507000000780075
:1036c40000f0a7000000ea00cf80de00d9f5070073
:1036d40050079800610798005e009000ee0090008b
:1036e40098f50700000078000080fa00000006004a
:1036f4000200fa00000f78001e00780080007800b5
:1037040010002000b7fe0700800020007019880018
:103714000080fa00000006000200fa00000f7800a2
:103724001e0078008000780010002000a0fe070032
:1037340080002000701988000080fa000000060054
:103744000000fa00234ea8000080fa0000000600e2
:103754000000fa00234ea9000080fa0000000600d1
:103764000600fa000000eb00100798000000eb00d0
:10377400200798000000eb00000f780046010700c6
:10378400bffe07001e009000cdfe0700c4fe070028
:103794000000eb00000f7800010037001e0fe80066
:1037a400703e20009e007800808f5000fbff3400a4
:1037b400bffe0700000000001e009000effe07009f
:1037c4000004a2000004e000fbff3a001e00900089
:1037d400bffe070020079800adfe07002e009000f2
:1037e400cf80de0093f5070002002f00f35724007a
:1037f40096f607000002be00c0828000d1828000dd
:103804000001be000400be006ff707000002be0006
:10381400a0828000b18280000001be000400be00ce
:103824008af6070002002000832c240087f6070094
:10383400308188004181880030818000418180008e
:103844000080fa00000006000600fa006000200074
:10385400100798000000eb00200798000000eb0020
:10386400000f78000c01070085fe07001e00900081
:1038740093fe07008afe07000000eb00000f7800ab
:10388400010037001e0fe800703e20009e00780003
:10389400808f5000fbff340085fe0700000000000d
:1038a4001e009000b5fe07000004a2000004e00022
:1038b400fbff3a001e00900085fe070020079800d9
:1038c40073fe07002e009000cf80de0059f507003c
:1038d400e27a240013ce23003bf70700c2272f000f
:1038e40003d3230074f507005081880061818800a8
:1038f40050818000618180000080fa000000060091
:103904000600fa0020002000100798000000eb00d9
:10391400200798000000eb00000f7800de0007008d
:1039240057fe07001e00900065fe07005cfe0700be
:103934000000eb00000f7800010037001e0fe800c4
:10394400703e20009e007800808f5000fbff340002
:1039540057fe0700000000001e00900087fe0700cd
:103964000004a2000004e000fbff3a001e009000e7
:1039740057fe07002007980045fe07002e00900020
:10398400cf80de002bf5070002002f00f357240040
:103994002ef607000002be00c0828000d1828000a3
:1039a4000001be000400be0007f70700020020006b
:1039b4000318240004f7070010818800218188007f
:1039c40010818000218180000080fa000000060040
:1039d4001000fa00889fbe00100020001007980015
:1039e4000000eb00200798000000eb00000f7800b7
:1039f4006000b80030079800410798006000b800e4
:103a0400500798006107980040ce20007007980086
:103a1400a10007001afe07001e00900028fe070000
:103a24001ffe07000000eb00000f780001003700c4
:103a34001e0fe800703e20009e007800808f50002a
:103a4400fbff34001afe0700000000001e00900077
:103a54004afe07000004a2000004e000fbff3a0055
:103a64001e0090001afe07002007980008fe0700b9
:103a74002e009000cf80de00eef4070002002f003d
:103a8400f3572400f1f507000002be00c082800055
:103a9400d18280000001be000400be00caf6070007
:103aa40030079800410798007e009000cf80de0028
:103ab400e0f407003e019000ce019000c2f607003a
:103ac4000004be00c0828000d18280003e019000cc
:103ad400ce019000eff407000001be000800be0014
:103ae400daf50700500798006107980002002400e7
:103af400c36124005e009000ee009000d3f507003f
:103b0400723d2a0003e72b00bff8070022042a00b5
:103b1400432a2400acf607000200200003262400f8
:103b2400dcf4070070818800818188007081800046
:103b3400818180004f04be000080fa00000006006e
:103b44000600fa0040002000100798000000eb0077
:103b5400200798000000eb00000f78004e000700db
:103b6400c7fd07001e009000d5fd0700ccfd07002f
:103b74000000eb00000f7800010037001e0fe80082
:103b8400703e20009e007800808f5000fbff3400c0
:103b9400c7fd0700000000001e009000f7fd0700ad
:103ba4000004a2000004e000fbff3a001e009000a5
:103bb400c7fd070020079800b5fd0700ae00900080
:103bc400f0ff200000017800050009008200d80001
:103bd400cf80de0097f407000002be00c0828000a0
:103be400d18280000001be000400be0076f607000a
:103bf40090818800a181880090818000a18180004b
:103c04000080fa00000006000200fa002f040700fa
:103c14003aeea9003eeea9003b8ea9003f8ea90012
:103c2400562ea9005a2ea900570ea9005b0ea90012
:103c340057aea8001f4ea9001f8ea900c0fe0700a2
:103c4400700c2000000f78002030ef001e00780078
:103c5400b1fe0700238ea8001100200010002000f0
:103c64007afd070011002000100020006afd070003
:103c7400110020001000200067fd07001100200043
:103c84001000200071fd07008000200070198800da
:103c94000080fa00000006000000fa00002bef008c
:103ca4000006200010588800042bef00062bef00bc
:103cb400082bef000a2bef000c2bef000e2bef006c
:103cc400102bef00122bef00142bef00202bef0032
:103cd4008001200010598800382bef00402bef00a2
:103ce400482bef00502bef003a2bef00422bef0054
:103cf4004a2bef00522bef003c2bef00442bef003c
:103d04004c2bef00542bef003e2bef00462bef0023
:103d14004e2bef00562bef0000402000505b880034
:103d240000402000705b880000402000905b880009
:103d340000402000b05b8800a02bef00a42bef0014
:103d4400a82bef00ac2bef00d02bef00d22bef0011
:103d5400d42bef00d82bef0000302000b05e880099
:103d640000302000d05e8800f02bef00f22bef0033
:103d7400022cef00c0f5210051000700a0f821003b
:103d840067000700e0fb21007f00070020ff2100ff
:103d94009700070060022200af00070080052200a0
:103da400c6000700c0062200ce000700000822005b
:103db400d60007000dc8a9002dc8a8000de8a90069
:103dc4002de8a8001160800000f0200001007000c0
:103dd4001060880001eba8002b0007001400070006
:103de40010002000005c8800822bef00842bef0081
:103df40000102000305c8800882bef008a2bef0035
:103e040010002000605c880000102000705c8800b6
:103e140000102000805c880000102000905c880066
:103e240010002000a05c88000080fa00000006005a
:103e34000000fa00000ca8000000000001608000ef
:103e440000102000008060000000e000fbff320052
:103e54000a0ba8000080fa00000006000000fa0027
:103e6400002ca80000000000016080000020200059
:103e7400008060000000e000fbff32000a2ba80075
:103e84000080fa00000006000000fa0000eca80020
:103e94000000000001608000000028000080600035
:103ea4000000e000fbff32000aeba8000080fa00eb
:103eb400000006000000fa000080fa00000006007e
:103ec4000200fa00000f78001e007800b08188001c
:103ed4000080fa00000006000000fa005140800053
:103ee40000402000008060000000e0000600320076
:103ef400b08180000000e00002003200b081800048
:103f0400000001000b48a9000080fa000000060030
:103f14000200fa00000f78000080fa00000006009a
:103f24000200fa00000f78001e007800c0818800ab
:103f34000080fa00000006000200fa0081598000a7
:103f440000082000008060000000e000080032004b
:103f5400d1608000010f7800c08180000000e00083
:103f640003003200c18180001e00780001000100be
:103f74000080fa00000006000200fa00000f78003a
:103f84000080fa00000006000200fa00000f78002a
:103f94001e007800d08188000080fa00000006002e
:103fa4000200fa00815980000000210000806000b6
:103fb4000000e0000800320021618000010f780059
:103fc400d08180000000e00003003200d181800035
:103fd4001e007800010001000080fa0000000600c5
:103fe4000200fa00000f78000080fa0000000600ca
:103ff4000200fa00000f78001e007800e0818800bb
:104004000080fa00000006000200fa0081598000d6
:1040140000002800008060000000e000080032007a
:1040240051618000010f7800e08180000000e00011
:1040340003003200e18180001e00780001000100cd
:104044000080fa00000006000200fa00000f780069
:104054000080fa00000006000200fa00000f780059
:104064001e007800f08188000080fa00000006003d
:104074000200fa0090598000620060000000e00035
:104084000800320071618000010f7800f081800027
:104094000000e00003003200f18180001e0078007f
:1040a400010001000080fa00000006000200fa008e
:1040b400000f78000080fa00000006000200fa00f9
:1040c400000f78001e007800008288000080fa004b
:1040d400000006000200fa00000f78000080fa00d9
:1040e400000006000200fa00000f78001e007800ad
:1040f400108288000080fa00000006000200fa0026
:10410400000f78000080fa00000006000200fa00a8
:10411400000f78001e007800208288000080fa00da
:10412400000006000200fa0080598000610060006f
:104134000000e0000800320061608000010f780098
:10414400208280000000e000030032002182800011
:104154001e007800010001000080fa000000060043
:104164000400fa00000f7800110798001e00780080
:10417400e10f500004003a009e009000711a88007c
:104184000000000001003700000000000080fa0079
:10419400000006000400fa00000f780011079800e0
:1041a4001e007800e10f500004003a009e009000c9
:1041b400d11a880000000000010037000000000050
:1041c4000080fa00000006000400fa00000f7800e6
:1041d400110798001e007800e10f500004003a0017
:1041e4009e009000e11a88000000000001003700e2
:1041f400000000000080fa00000006000000fa0041
:1042040001e1a80001088000f0fc2f00008060009c
:104214000040a0000008880000e1a9000021a900d6
:104224000041a900401f2000400888000080fa00d7
:10423400000006000000fa002028a80001428000c7
:10424400f0f82f008080600000062000010070005c
:10425400004288000080fa00000006002a00fa00ec
:10426400881f780068fe0700000020000117240062
:10427400100f9800210f98000000200081212400d5
:10428400300f9800410f9800000020000125240001
:10429400500f9800610f980000002000612924004d
:1042a400700f98000117980000002000a12f24002f
:1042b400101798002117980091fd0700008fbe0089
:1042c40027fd070020079800310798005efd0700ce
:1042d4004007980051079800bdfd0700600798004b
:1042e4007107980000002000811c240030179800fa
:1042f4004117980016fd070000482800e10120003e
:104304007e0207000efd070000482800e10120009e
:104314007a0207000efd070000482800e101200092
:104324007602070006fd0700b4ff0700c1ff07007f
:104334003eeea9003f8ea9005a2ea9005b0ea900eb
:104344000b0037006efd0700008fbe00a0fd0700c4
:10435400600798007107980001fd07002007980086
:104364003107980038fd070040079800510798006e
:1043740018c0b3001e099000ae0990002e009000f2
:10438400be0090006bf207000000e0000100340062
:104394000044eb000804e0003500320018c0b3000c
:1043a4001e099000ae0990004e009000de009000bf
:1043b40060f207000000e000010034000044eb005c
:1043c4000804e0002a00320018c0b3003e0990003f
:1043d400ce0990001e00be0058f207000000e00065
:1043e40001003d000044eb000804e000200032001e
:1043f40018c0b3005e099000ee0990001e00be00d4
:104404004cf207000000e000010034000044eb001f
:104414000804e0001600320018c0b3001e1190001a
:10442400ae1190003e109000ce10900041f20700b3
:104434000000e000010034000044eb000804e00048
:104444000b00320018c0b3007e0990008e1190005a
:104454006e009000fe00900036f207000000e000bd
:10446400010034000044eb000804e000b5ff3a000a
:104474003eeea80001e1a9006000b8008082880037
:10448400918288006000b8004082880051828800d0
:104494000000eb0096fc070018c0b3001e09900052
:1044a400ae0990002e009000be00900023f2070099
:1044b4000000e00001003d000044eb000804e000bf
:1044c400020032003f8ea8002f00370018c0b3004e
:1044d4001e099000ae0990004e009000de0090008e
:1044e40016f207000000e00001003d000044eb006c
:1044f4000804e000020032003f8ea80022003700ca
:1045040018c0b3003e099000ce0990001e00be0002
:1045140008f207000000e000010034000044eb0052
:104524000804e0000a003a0018c0b3005e099000d5
:10453400ee0990001e00be0000f207000000e0003b
:1045440001003d000044eb000804e00002003200da
:104554005a2ea8000c00370018c0b3007e09900042
:104564008e1190006e009000fe009000f3f10700a1
:104574000000e00001003d000044eb000804e000fe
:10458400010032005b0ea80010002000000f98000c
:1045940005003700c0728000dd800a0000000000c2
:1045a4000080fb00000f98000e089000e10f5000ff
:1045b400f8ff3200d2fc0700008fbe0004fd0700a4
:1045c400600798007107980065fc070020079800b1
:1045d400310798009cfc0700400798005107980099
:1045e40001e1a80052ff37000000fa00000120009a
:1045f400501988000023ef000223ef000423ef008a
:104604000623ef000823ef00000120005018880063
:104614000c23ef000e23ef001023ef001223ef0012
:104624001423ef001623ef001823ef001a23ef00e2
:104634001c23ef001e23ef002023ef002223ef00b2
:104644002423ef002623ef002823ef002c23ef0080
:104654002e23ef003023ef00c000200090198800c3
:104664003423ef003623ef003823ef003a23ef0022
:104674003c23ef003e23ef004023ef004223ef00f2
:104684004423ef004623ef004823ef004a23ef00c2
:104694004c23ef004e23ef005023ef00700c20005a
:1046a400901a88005423ef005623ef005823ef009c
:1046b4005a23ef005c23ef002be3a8000080fa00ec
:1046c400000006000000fa000080fa000000060066
:1046d4000000fa0040408000680060000000e00034
:1046e40002003200f7ff07000868a9000080fa0002
:1046f400000006000000fa000080fa000000060036
:104704000000fa00a140800000202000008060002a
:104714000000e00002003200f6ff07001528a9009f
:104724000080fa00000006000000fa000080fa0091
:10473400000006000000fa00a140800000402000b4
:10474400008060000000e00002003200f6ff070075
:104754001548a9000080fa00000006000000fa00d5
:104764000080fa00000006000000fa00a14080006a
:1047740000802000008060000000e00002003200a1
:10478400f6ff07001568a9000080fa000000060083
:104794000000fa000080fa00000006000000fa00a1
:1047a400a140800000002100008060000000e000c3
:1047b40002003200f6ff07001588a9000080fa0005
:1047c400000006000000fa000080fa000000060065
:1047d4000000fa00a1408000000022000080600078
:1047e4000000e00002003200f6ff070015a8a9004f
:1047f4000080fa00000006000000fa000080fa00c1
:10480400000006000000fa00a1408000000024001f
:10481400008060000000e00002003200f6ff0700a4
:1048240015c8a9000080fa00000006000000fa0084
:10483400007c80000080fa00000006000200fa00fc
:10484400faff0700000f78001e007800240007001c
:104854000004e0000200320000002800710007009c
:104864001e0078002a0007000004e0000200320065
:10487400000024006b0007001e00780032000700cf
:104884000004e00002003200002020006500070060
:104894001e0078003a0007000004e0000200320025
:1048a400000820005f0007001e0078004200070097
:1048b4000004e00002003200000420005900070058
:1048c4001e0078004a0007000004e00002003200e5
:1048d40000012000530007000080fa0000000600d9
:1048e4000400fa00100798000040eb00004f780025
:1048f4001e0090000000e00002003d0010c0b30064
:10490400004f78001e4078000080fa000000060086
:104914000400fa00100798000040eb00004f7800f4
:104924009e00900000002400008060000000e00071
:104934000200320010c0b300004f78001e4078001f
:104944000080fa00000006000400fa001007980036
:104954000040eb00004f78009e00900000202000f3
:10496400008060000000e0000200320010c0b300cc
:10497400004f78001e4078000080fa000000060016
:104984000400fa00100798000040eb00004f780084
:104994009e00900000082000008060000000e000fd
:1049a4000200320010c0b300004f78001e407800af
:1049b4000080fa00000006000400fa0010079800c6
:1049c4000040eb00004f78009e009000000420009f
:1049d400008060000000e0000200320010c0b3005c
:1049e400004f78001e4078000080fa0000000600a6
:1049f4000400fa00100798000040eb00004f780014
:104a04001e009000700060000000e0000200320010
:104a140010c0b300004f78001e4078000080fa00f8
:104a2400000006000200fa00000f78009e80ea00f1
:104a3400007c800000806000007c88000080fa0018
:104a4400000006000000fa00802fef000080fa004a
:104a5400000006000000fa0010002300307c8800eb
:104a640060092000407c88008c2fef001004200097
:104a7400507c880010102000707c880060092000a1
:104a8400807c880010042000907c8800b82fef0000
:104a9400ba2fef00be2fef00002def00a02fef0084
:104aa400a42fef00a62fef00a82fef00aa2fef00ee
:104ab400ae2fef00b02fef00b22fef0072002000f6
:104ac40080072000a109200053f8200080497800c5
:104ad40081497800824978000001eb0060042000dd
:104ae4007105200043f8200080497800814978004e
:104af400824978000080fa00000006000000fa00f5
:104b0400707c8000ee800a00000000000080fb0042
:104b140000f0a7000000ea000000ea004f00de00f9
:0c4b2400004078000080fa00000006004d
:020000040000fa
:104b3000361000001000000080000000601000002f
:104b400020000000800000005c1000000200000057
:104b500082000000ffff000020100000160000008f
:104b600080000000541000000800000082000000d7
:104b70006f1203003b33330053400000001000006d
:104b80002000000082000000000040004100000002
:104b90001842000000504200000096004200000051
:104ba000fa426f0012833a00925b93003b713d0022
:104bb00026410000461000000e00000080000000aa
:104bc0005e10000002000000800000008010000065
:104bd0001800000082000000000080003f0000007c
:104be000c03f000000000000dccfd1003500000015
:104bf00000000000c0153f009810000002000000f7
:084c000080000000000000002c
:020000040000fa
:104c08000000fa00062eef00222eef003e2eef00e5
:104c18005a2eef00e001200010708800d0bf23005a
:104c2800f0708800f0ff2300d07188002050220027
:104c3800b07288000c2eef00282eef00442eef00f3
:104c4800602eef000a2eef00262eef00422eef0016
:104c58005e2eef00082eef00242eef00402eef000e
:104c68005c2eef00f001200000708800d0092000c1
:104c7800e0708800f00c2000c0718800004020001f
:104c8800a07288000080fa00000006000200fa0006
:104c9800000f780021028000200f200000806000b3
:104ca8001e007000200288000080fa000000060044
:104cb8000000fa00c3e8a80000000000000000009f
:104cc8000080fa00000006000000fa00ccff070090
:104cd800170007005eff070032000700edfb070022
:104ce80040fe0700f2ff070000022000e7ff070070
:084cf8000080fa000000060034
:020000040000fa
:104d0000f03fb1000180b10006003500ee0309005c
:104d100000000000403fb1000180b100fbff3d00fa
:104d20001000b000203fb0000200350000800900f4
:084d3000000000000000060075
:020000040000fa
:104d38000000fa00b1438000f08f2f00008060006f
:104d48000080a000b0438800b1438000f0ff280035
:104d58000080600000c0a000b04388000080fa0016
:104d6800000006000200fa00000f78009e0078009c
:104d7800e1828800ffff37000000fa0000062100ea
:104d88008007780080072100000188000080fa0071
:104d9800000006000000fa00dde8a8000080fa0024
:104da800000006000000fa0010002800e046880015
:104db800de28ef00f7ff07000080fa000000060079
:020000040000fa
:04be0000ffffff0041
:020000040000fa
:04be2000ffffff0021
:020000040000fa
:04be30007fffff0091
:020000040000fa
:04be3800bfffff0049
:020000040000fa
:04be40007f7fff0001
:020000040000fa
:04be4800ffffff00f9
:020000040000fa
:04be5000ddffff0013
:020000040000fa
:04be58000000ff00e7
:020000040000fa
:04be60000000ff00df
:020000040000fa
:04be68000000ff00d7
:020000040000fa
:04be70000000ff00cf
:020000040000fa
:04be7800ffffff00c9
:020000040000fa
:04be8000fffcff00c4
:020000040000fa
:04be8800ffffff00b9
:00000001FF
