:020000040000fa
:080000000002040000000000f2
:020000040000fa
:04000800d60300001b
:020000040000fa
:04000c0018040000d4
:020000040000fa
:040010005804000090
:020000040000fa
:04001400f6030000ef
:020000040000fa
:0400180038040000a8
:020000040000fa
:04001c00b20400002a
:020000040000fa
:040020007804000060
:020000040000fa
:04002400b204000022
:020000040000fa
:04002800b20400001e
:020000040000fa
:04002c00b20400001a
:020000040000fa
:04003000b204000016
:020000040000fa
:04003400b204000012
:020000040000fa
:04003800b20400000e
:020000040000fa
:04003c00b20400000a
:020000040000fa
:04004000b204000006
:020000040000fa
:04004400b204000002
:020000040000fa
:04004800b2040000fe
:020000040000fa
:04004c00b2040000fa
:020000040000fa
:04005000b2040000f6
:020000040000fa
:04005400b2040000f2
:020000040000fa
:04005800b2040000ee
:020000040000fa
:04005c00b2040000ea
:020000040000fa
:04006000b2040000e6
:020000040000fa
:04006400b2040000e2
:020000040000fa
:04006800b2040000de
:020000040000fa
:04006c00b2040000da
:020000040000fa
:04007000b2040000d6
:020000040000fa
:04007400b2040000d2
:020000040000fa
:04007800b2040000ce
:020000040000fa
:04007c00b2040000ca
:020000040000fa
:04008000b2040000c6
:020000040000fa
:04008400b2040000c2
:020000040000fa
:04008800b2040000be
:020000040000fa
:04008c00b2040000ba
:020000040000fa
:04009000b2040000b6
:020000040000fa
:04009400b2040000b2
:020000040000fa
:04009800b2040000ae
:020000040000fa
:04009c00b2040000aa
:020000040000fa
:0400a000b2040000a6
:020000040000fa
:0400a400b2040000a2
:020000040000fa
:0400a800b20400009e
:020000040000fa
:0400ac00b20400009a
:020000040000fa
:0400b000b204000096
:020000040000fa
:0400b400b204000092
:020000040000fa
:0400b800b20400008e
:020000040000fa
:0400bc00b20400008a
:020000040000fa
:0400c000b204000086
:020000040000fa
:0400c400b204000082
:020000040000fa
:0400c800b20400007e
:020000040000fa
:0400cc00b20400007a
:020000040000fa
:0400d000b204000076
:020000040000fa
:0400d400b204000072
:020000040000fa
:0400d800b20400006e
:020000040000fa
:0400dc00b20400006a
:020000040000fa
:0400e000b204000066
:020000040000fa
:0400e400b204000062
:020000040000fa
:0400e800b20400005e
:020000040000fa
:0400ec00b20400005a
:020000040000fa
:0400f000b204000056
:020000040000fa
:0400f400b204000052
:020000040000fa
:0400f800b20400004e
:020000040000fa
:0400fc00b20400004a
:020000040000fa
:04010000b204000045
:020000040000fa
:04010400b204000041
:020000040000fa
:04010800b20400003d
:020000040000fa
:04010c00b204000039
:020000040000fa
:04011000b204000035
:020000040000fa
:04011400b204000031
:020000040000fa
:04011800b20400002d
:020000040000fa
:04011c00b204000029
:020000040000fa
:04012000b204000025
:020000040000fa
:04012400b204000021
:020000040000fa
:04012800b20400001d
:020000040000fa
:04012c00b204000019
:020000040000fa
:04013000b204000015
:020000040000fa
:04013400b204000011
:020000040000fa
:04013800b20400000d
:020000040000fa
:04013c00b204000009
:020000040000fa
:04014000b204000005
:020000040000fa
:04014400b204000001
:020000040000fa
:04014800b2040000fd
:020000040000fa
:04014c00b2040000f9
:020000040000fa
:04015000b2040000f5
:020000040000fa
:04015400b2040000f1
:020000040000fa
:04015800b2040000ed
:020000040000fa
:04015c00b2040000e9
:020000040000fa
:04016000b2040000e5
:020000040000fa
:04016400b2040000e1
:020000040000fa
:04016800b2040000dd
:020000040000fa
:04016c00b2040000d9
:020000040000fa
:04017000b2040000d5
:020000040000fa
:04017400b2040000d1
:020000040000fa
:04017800b2040000cd
:020000040000fa
:04017c00b2040000c9
:020000040000fa
:04018000b2040000c5
:020000040000fa
:04018400b2040000c1
:020000040000fa
:04018800b2040000bd
:020000040000fa
:04018c00b2040000b9
:020000040000fa
:04019000b2040000b5
:020000040000fa
:04019400b2040000b1
:020000040000fa
:04019800b2040000ad
:020000040000fa
:04019c00b2040000a9
:020000040000fa
:0401a000b2040000a5
:020000040000fa
:0401a400b2040000a1
:020000040000fa
:0401a800b20400009d
:020000040000fa
:0401ac00b204000099
:020000040000fa
:0401b000b204000095
:020000040000fa
:0401b400b204000091
:020000040000fa
:0401b800b20400008d
:020000040000fa
:0401bc00b204000089
:020000040000fa
:0401c000b204000085
:020000040000fa
:0401c400b204000081
:020000040000fa
:0401c800b20400007d
:020000040000fa
:0401cc00b204000079
:020000040000fa
:0401d000b204000075
:020000040000fa
:0401d400b204000071
:020000040000fa
:0401d80022030000fe
:020000040000fa
:0401dc00b204000069
:020000040000fa
:0401e0005e030000ba
:020000040000fa
:0401e4009a0300007a
:020000040000fa
:0401e800b20400005d
:020000040000fa
:0401ec00b204000059
:020000040000fa
:0401f000b204000055
:020000040000fa
:0401f400b204000051
:020000040000fa
:0401f800b20400004d
:020000040000fa
:0401fc00b204000049
:020000040000fa
:04020000b204000044
:020000040000fa
:04020400b204000040
:020000040000fa
:04020800b20400003c
:020000040000fa
:04020c00b204000038
:020000040000fa
:04021000b204000034
:020000040000fa
:04021400b204000030
:020000040000fa
:04021800b20400002c
:020000040000fa
:04021c00b204000028
:020000040000fa
:04022000b204000024
:020000040000fa
:04022400b204000020
:020000040000fa
:04022800b20400001c
:020000040000fa
:04022c00b204000018
:020000040000fa
:04023000b204000014
:020000040000fa
:04023400b204000010
:020000040000fa
:04023800b20400000c
:020000040000fa
:04023c00b204000008
:020000040000fa
:04024000b204000004
:020000040000fa
:04024400b204000000
:020000040000fa
:04024800b2040000fc
:020000040000fa
:04024c00b2040000f8
:020000040000fa
:04025000b2040000f4
:020000040000fa
:04025400b2040000f0
:020000040000fa
:04025800b2040000ec
:020000040000fa
:04025c00b2040000e8
:020000040000fa
:04026000b2040000e4
:020000040000fa
:04026400b2040000e0
:020000040000fa
:04026800b2040000dc
:020000040000fa
:04026c00b2040000d8
:020000040000fa
:04027000b2040000d4
:020000040000fa
:04027400b2040000d0
:020000040000fa
:04027800b2040000cc
:020000040000fa
:04027c00b2040000c8
:020000040000fa
:04028000b2040000c4
:020000040000fa
:04028400b2040000c0
:020000040000fa
:04028800b2040000bc
:020000040000fa
:04028c00b2040000b8
:020000040000fa
:04029000b2040000b4
:020000040000fa
:04029400b2040000b0
:020000040000fa
:04029800b2040000ac
:020000040000fa
:04029c00b2040000a8
:020000040000fa
:0402a000b2040000a4
:020000040000fa
:0402a400b2040000a0
:020000040000fa
:0402a800b20400009c
:020000040000fa
:0402ac00b204000098
:020000040000fa
:0402b000b204000094
:020000040000fa
:0402b400b204000090
:020000040000fa
:0402b800b20400008c
:020000040000fa
:0402bc00b204000088
:020000040000fa
:0402c000b204000084
:020000040000fa
:0402c400b204000080
:020000040000fa
:0402c800b20400007c
:020000040000fa
:0402cc00b204000078
:020000040000fa
:0402d000b204000074
:020000040000fa
:0402d400b204000070
:020000040000fa
:0402d800b20400006c
:020000040000fa
:0402dc00b204000068
:020000040000fa
:0402e000b204000064
:020000040000fa
:0402e400b204000060
:020000040000fa
:0402e800b20400005c
:020000040000fa
:0402ec00b204000058
:020000040000fa
:0402f000b204000054
:020000040000fa
:0402f400b204000050
:020000040000fa
:0402f800b20400004c
:020000040000fa
:0402fc00b204000048
:020000040000fa
:04030000b204000043
:020000040000fa
:04030400b20400003f
:020000040000fa
:04030800b20400003b
:020000040000fa
:04030c00b204000037
:020000040000fa
:04031000b204000033
:020000040000fa
:04031400b20400002f
:020000040000fa
:04031800b20400002b
:020000040000fa
:04031c00b204000027
:020000040000fa
:04032000b204000023
:020000040000fa
:04032400b20400001f
:020000040000fa
:10040000af0321000eff22000e0188000000000053
:10041000000020000000e000020032000001200087
:100420002002880014000700500107000000e000cf
:1004300003003a0060742100010020000200370030
:100440000000200001002000810f70000100320038
:100450000f000700000020000000e0000200320052
:100460000000020000000000b416020000000000be
:100470000040da000000fe00200020000000e00044
:1004800002003200100020009001880000000600e9
:10049000a1028800800478000000eb001f003700f4
:1004a000e284440054a0b4009905ba00e2844400f8
:1004b00054a0b4009906ba00e284440054a0b400e9
:1004c0000006eb00476fde00fd07b200ae018800ba
:1004d000636ce10003003a000ad801000000eb0061
:1004e0000e003700606ce10008003a00004deb00a0
:1004f0000a05e800020039003420ec000af0a000f0
:100500008b05e900f9ff3e00040037006168e10057
:10051000010032000086eb000b00070019c7ba008b
:100520001905ba000e04e00003003a000a00e000da
:10053000dbff3a0000000600fe07b200ae028800b2
:100540008a047800f5ff37000cd0a300e20f4d00bd
:100550001c003b0089027800354dba000a05e8000e
:10056000020039003420ec000af0a0008b05e900fd
:100570000f003200254dba000a05e80002003900dc
:100580003420ec000af0a0008b05e90008003200de
:100590000c00e0000600320015cdba000a05e800a4
:1005a000020039003420ec000af0a0008b05e900bd
:1005b0008984e80054a0b4000b00e000e2ff3a0098
:1005c000000006009902ba00055d78008b05e9007d
:1005d000f7ff3200c82ade00055d78008b05e900d0
:1005e000f3ff32000c00e000f1ff320019ddba0029
:1005f000eeff3700000000000000000000000000d7
:1006000000000000000000000000000000000000ea
:1006100000000000000000000000000000000000da
:1006200000000000000000000000000000000000ca
:1006300000000000000000000000000000000000ba
:10064000000000003600f800809fbe00829fbe00c0
:10065000849fbe00869fbe003200f8003400f80080
:1006600010002000a00188001000200000d0fe0033
:100670000200fa0071618000010f78005080800054
:100680000000e00003003200518080001e0078006e
:10069000010001000d88a9000080fa003400f90073
:1006a0003200f9004f03be004f02be004f01be00f2
:1006b0004f00be003600f900004006003600f8008a
:1006c000809fbe00829fbe00849fbe00869fbe00aa
:1006d0003200f8003400f80010002000a00188006b
:1006e0001000200000d0fe000200fa00916180009e
:1006f000010f7800608080000000e00003003200fd
:10070000618080001e007800010001000dc8a90072
:100710000080fa003400f9003200f9004f03be00f7
:100720004f02be004f01be004f00be003600f90070
:10073000004006003600f800809fbe00829fbe0089
:10074000849fbe00869fbe003200f8003400f8008f
:1007500010002000a00188001000200000d0fe0042
:100760000200fa00a1618000010f78007080800013
:100770000000e00003003200718080001e0078005d
:10078000010001000de8a9000080fa003400f90022
:100790003200f9004f03be004f02be004f01be0001
:1007a0004f00be003600f900004006003600f80099
:1007b000809fbe00829fbe00849fbe00869fbe00b9
:1007c0000000fa00c028a9000000eb00ce090700d5
:1007d0000080fa004f03be004f02be004f01be0072
:1007e0004f00be003600f900004006003600f80059
:1007f000809fbe00829fbe00849fbe00869fbe0079
:100800000000fa00c5090700c048a9001000200038
:10081000bd0907000080fa004f03be004f02be0072
:100820004f01be004f00be003600f9000040060038
:100830003600f800809fbe00829fbe00849fbe00ed
:10084000869fbe000000fa00c068a90020002000ba
:10085000ad0907000080fa004f03be004f02be0042
:100860004f01be004f00be003600f90000400600f8
:100870003600f800809fbe00829fbe00849fbe00ad
:10088000869fbe000000fa00c088a900300020004a
:100890009d0907000080fa004f03be004f02be0012
:1008a0004f01be004f00be003600f90000400600b8
:1008b0003600f800809fbe00829fbe00849fbe006d
:1008c000869fbe000000fa00c608a9007000200044
:1008d0008d0907000080fa004f03be004f02be00e2
:1008e0004f01be004f00be003600f9000040060078
:1008f0003600f800809fbe00829fbe00849fbe002d
:10090000869fbe000000fa002146800000102000f3
:10091000008060000000e00003003200c508a9006c
:10092000c0002000780907002046800070006000a9
:100930000000e00003003200c488a900a0002000ed
:100940007109070020468000610060000000e0009f
:1009500003003200c408a900b00020006a090700a3
:10096000ffff37000040da000000fe000000050035
:100970000001be00220007000470a70003f0a100e0
:100980006509b100160032000d0035006828e1004d
:1009900006003500f0ff2f00f1ff27000300e00004
:1009a00013003b000100280000000500000040008b
:1009b000818048008502e900fcff3a00080037000a
:1009c000f88f420002003c008000eb0000000500b0
:1009d0008100d1000080d3008502e800fcff3a00ce
:1009e0000300e00002003b0060001000e0801800ff
:1009f000000006004f89de00820178007c0237008b
:100a0000c70ade00f107b200f50fb200080032009d
:100a1000e1cf4200020032000170a0002400050076
:100a2000810f700001003200040805004400050039
:100a3000810f700002003a00140005008502e900f1
:100a40000000400081c04800fcff3b000170a00096
:100a500024000500889fbe008a9fbe008c9fbe00b8
:100a60001b0020000202be00058668000600280068
:100a7000060666004709de00f20fb200820032006f
:100a80000243e80080003200c729de00f30fb20005
:100a90007d0032000343e8007b003200f107b20022
:100aa0000170a000f507b2000570a000c708dd00c6
:100ab0004903de00868070004700dd00c72add00a4
:100ac0004923de00868272004722dd0003055100c3
:100ad00004035000858358000300310000004000eb
:100ae000818048000a05e9008c1f78008a9fbe00bb
:100af00004005000858058000402420085824a00ac
:100b000000004000818048000005eb000004be00aa
:100b10006033b8000406be000d48e1005600310005
:100b2000050009004dccd8000c01b8000d02b8003a
:100b30008481410060824a008283530003045c0088
:100b400084845c0060055d000a00e00025003a0036
:100b5000800578000d40e1004900310088007800f0
:100b600007007800050009004d88d8000c01b80086
:100b70000d02b8008481410060824a0060031100c8
:100b800083835b0004045c00e0845c000900e000f7
:100b900021003a004f01be000300e0002b003200ac
:100ba000e3016000070673008c81710001003200d0
:100bb000640070004200de004e5edd000c0070003c
:100bc000c258de0001e0a00083010700cf017800d9
:100bd000818071004f06be004f05be004f04be006d
:100be000000006008c8343000d044c00e0844c00a0
:100bf00060054d000000e9000a00e000d4ff32006b
:100c00008c8343000d044c00e0844c0060054d00d3
:100c10000000e900ceff37000c0343008d834b003a
:100c200060044c00e0844c000000e9000900e00092
:100c3000d8ff32000c0343008d834b0060044c004e
:100c4000e0844c000000e900d2ff37004200de00e3
:100c50004e5edd000c007000c258de0001e0a00016
:100c6000cf0178000300e000daff320060001000de
:100c7000e0801800d7ff3700f0ff2f00aaff3700f1
:100c8000f0ff2f00b9ff37000404be002f0107005a
:100c9000870678000004fd008104fd002b01070099
:100ca000078366000678a300030032000960a700ee
:100cb0000800be002c0037000d78a30002003200af
:100cc0000800be00280037000778a30026003a007d
:100cd00001f0a10009f0a1000668a30003003200a2
:100ce000f1ff2700f0ff2f00baff37000d68a300c7
:100cf000030032000800be008c807000b5ff370092
:100d00000768a30007003a000648a300030032006a
:100d1000f1ff2700f0ff2f00aeff37000d48a300c2
:100d2000030032006000b8008c807000a9ff37001b
:100d30000748a3000400320001f82700000020004b
:100d40008c807000a3ff3700760107000004fd00cf
:100d50008104fd0002057800720107000802be0050
:100d60008a01780059ff37000160a00012022000bc
:100d7000c280880097ff37000100e00012003200b7
:100d80000500e00010003200889fbe008a9fbe0070
:100d90008c9fbe000006eb0001f8a30003003200a8
:100da00060001000e08018000cf0a00005f8a3001f
:100db0000300320060021200e0821a000cf0a20070
:100dc0008005eb0041ff37006000b800020005001d
:100dd000038368000700280007036300470ade005a
:100de0000480a100c71ade000580a100f70f2000d3
:100df0000720e100420032000728e10040003200f5
:100e0000889fbe008a9fbe008c1f7800f107b20049
:100e1000f307b2000400e000640032000170a0009b
:100e20000500e000680032000370a0008505420064
:100e3000eb07b1000204b8000302b8008484440048
:100e400060854a00020ab800848444000a854a008a
:100e5000030ab80004054500040033000804d0006c
:100e60008984d2000a85d2008b05e9006158e1002f
:100e70003d00350002102000090161000308200038
:100e800089816100f707200087836400088673006a
:100e9000c84cde00c853dd00878474004855de006e
:100ea0000300e000060032008203760004003200f6
:100eb0008904e80060054d000a88a3000c003a0090
:100ec000f70f20000758e10044003d000a70a10020
:100ed000c75ddd000a8575008a007300090078008f
:100ee0004f0678004f05be004f04be00000006000c
:100ef0000a05d1008984d3008b05e800f0ff370094
:100f0000881f780006047800900007000702780028
:100f10000001fd008101fd008c00070087027800c0
:100f2000850372000778a300050032000001fd0070
:100f30008101fd009f0007004f04780000000600bb
:100f4000850372000748a30003003200f0ff2f0062
:100f5000f1ff2700f8ff37000000200001f827000c
:100f600088807000f4ff3700880178004848dd0071
:100f7000808171004848de00c850dd00010070002b
:100f8000c850de00060478000b0178001600070048
:100f900088807000d2ff37000500e00005003200b5
:100fa000170020003a0007009dff37008103700002
:100fb000f9ff3a00860078004f0678004f05be0022
:100fc0004f04be000000050083037100f9ff3200ea
:100fd000270020002e00070094ff370001f82700ab
:100fe00086807000f4ff37000100e0002600320028
:100ff000610111007810e10023003c006022b8007c
:101000007010e100040035008002780001007800d3
:101010008000eb00700151000200e0000900340084
:1010200070031100062add00822ade008603dd003f
:10103000878272000200de00860bdd000700700070
:101040008208de0084817100f4ff270004826200c0
:1010500084817100040028008482620061026000c3
:1010600005f0a600000006000482710007003200af
:101070000000e800e0804800000006000002be001a
:101080006000b800efff37006000b8000000060005
:10109000889fbe000004eb006138e10016003a00b2
:1010a0000100e00008003a00c800de004800dd0052
:1010b000880020000100e00003003a00c800de00c4
:1010c0004800dd00680444008184cf00e9845400b6
:1010d000060034008908dd00f08314008703de0079
:1010e000878070000900dd000904440061021400db
:1010f0004f04be00000006000300e00008003a00b4
:10110000c811de004811dd00880020000300e00067
:1011100003003a00c811de004811dd0068044400f5
:101120008384cf00e9845400060034008919dd006f
:10113000f08314008713de00878171000911dd0040
:1011400009044400e1021400e9ff370027002000f1
:1011500001f0a70017002000470bde00f60fb200d9
:10116000040032000643e8000a0032004702b300e0
:101170000000060001037800f607b20006037000c5
:1011800002003a000703b300000006008702b30024
:101190000000060001037800f607b20006037000a5
:1011a000020032000770a000000006000760a000e7
:1011b000000006000478a300040032000578a300b4
:1011c000030032000168a30001003a000200be00e3
:1011d0000160a000000006008101700027003200bd
:1011e0008002eb0001f8a300030032006000100051
:1011f000e080180015002000f407200002024200e1
:1012000020003400f703200087036000060420005c
:101210000003630002082000000161004700de00b7
:10122000c909dd0000807100c708de000600e0008b
:101230000800320087037100060032001000b00081
:101240000180b0000188a30002003200c108de0066
:101250000402e800f107b200f30f20000320e100d0
:1012600003003d004722dd008100720029003700a5
:1012700001f827000000eb00260037006000b800ee
:1012800000000600680212007f20e1000200340026
:101290006000b8001f0037006011b8007020e10046
:1012a0000400350080017800010078008000eb0028
:1012b000700252000400e00009003400f003120044
:1012c0000719dd008419de000703dd008681710047
:1012d0000400de00070bdd00060070008408de005d
:1012e000f7ff27008383630087037100060028004f
:1012f00003036300070032000700e00003003a0028
:101300006101600002817300020032001000b00031
:101310000180b0000500a6000000060001f0a0005a
:10132000000006004f0ade004709de00f107b200a8
:10133000f20fb2000b003200f207b1000170a00002
:10134000c708dd00c901de00838070004700dd00b2
:101350000400a6000000060060001000e0801800f5
:1013600000000600810f700001003a000000060036
:101370008182cf000500e00010003e008082cf0097
:10138000ee8242007028e1000400390007003e00b0
:10139000800078000000eb000e0037007083120020
:1013a0008600de000500dd000a0037007083520071
:1013b0008600dd000000eb0006003700e2825200ec
:1013c0008508dd00708312000603de008680700051
:1013d0000500dd007507b0000501ea000400a60065
:1013e0000000060060001000e08018000000060009
:1013f000881f7800030478000300e00007003d0028
:1014000060001000e080180060011900e081190000
:1014100002003b0001f02d0003003700040007002c
:1014200008f0a70001f0a0004f04780000000600bb
:10143000889fbe008a9fbe00008270000402710077
:1014400004827100260032000004be000200be00cb
:101450006011b8006b092000950220000182cf00c6
:101460000a0039000541b1000082cf0007003900b1
:101470000541b1000982cf00040039000541b100e7
:101480000882cf00010039000541b1000542520039
:10149000120032000a003b00828171006101640089
:1014a0008100d1000080d3008984d3000884d30058
:1014b0008b05e8000442e800f7ff3a000700370018
:1014c0000804440089844c000000480081804800e2
:1014d0008b05e9000442e900f9ff3a000300070028
:1014e0004f05be004f04be00000006008100200032
:1014f000618055000b003d000b00200061fe2f00b5
:101500000100e1001d00340082817100610164006e
:101510008904d1000884d3000000e800faff3a00f3
:101520007100200061006400030070000200600090
:101530000900320061044400e0844c000988a500e1
:10154000050032008b05e8006808e10002003a005f
:101550008904d1000884d300f20f20000258e10072
:1015600005003d00c75ddd00f907b2008980750008
:1015700008007800000006000bf827008b007800b8
:10158000000005000400fa00889fbe008a9fbe008c
:101590008c9fbe000004be004708de00f00fb200c2
:1015a00051092000810f500041003c000806be0098
:1015b000e00f5400e08f5c0003003d000805be0012
:1015c0000bf0a200010037000805be00d107200083
:1015d000810f50000a003c000200200003b02400ec
:1015e0000a00be004500070080bf9f0091bf9f001a
:1015f0006011b8000800be00f5fd07002b003700a1
:101600000200200003b024000a00be003b000700d7
:101610000200200003b024002f0007000a01be00d2
:101620002d0007000004be000200200003f023008c
:10163000270007000000e000070034000a01be0098
:101640000800be002d0007000200200003f8230060
:10165000210007000f0037000200200003f02b00dc
:101660000800be00180007000000e00006003c0073
:101670000a01be000800be00200007000200200092
:1016800003f82300020037000a01be000800be0074
:101690001a000700e00f5600e08f5e0003003d00d7
:1016a0000004be0009f0a200010037000004be00e3
:1016b0000800be004f06be004f05be004f04be002e
:1016c0000080fa000000060014002000f00037003f
:1016d000f4ff2f00ee00370007f8270007836100b2
:1016e0000638e10004003a00f70720008783610014
:1016f0008703710001003a0003f0a200889fbe003a
:101700008a9fbe008c9fbe00470ade000480a100b5
:10171000c71ade000580a1000700280007856000c9
:1017200087856100f70f20000720e1009e0032004e
:101730000728e1009c003200010678000400e00068
:10174000b4003200f7072000878060000170a0001d
:101750000500e000c0003200f7072000878161002b
:101760000370a000050652000f003a000b50e10084
:101770000b0032000308e10002003a000200e10021
:101780007e003200020450008384580004003100bf
:101790000001fd008101fd008402fd008a05fd00bd
:1017a0006044b800210037000520e10005003d003d
:1017b0000001fd008101fd008402fd008a05fd009d
:1017c000050652007a60e100050035000170a100b5
:1017d0004722dd00848070008a807000630037003b
:1017e0006044b800ef02660007ff2f00070666009e
:1017f0000500e00006003400f08312008714dd00cd
:101800000511de00071bdd00060171008519de00f1
:101810007060e1000500350009047800820478005a
:10182000030178008001eb00700656000b50e100c8
:1018300003003a00020040008380480004003700a3
:1018400060041400e0841c000200580083805800eb
:101850000188a300060032008100d1000080d3007f
:101860008984d3000884d3000402e80027003700ed
:101870000178a30025003a000100e00003003200d7
:101880008186cf00698656000a0037008c00200050
:101890000000e00004003a000900780088047800a5
:1018a0000004eb00700252008086cf000d06460057
:1018b0000c06e9007060e100060035008000780049
:1018c00009007800880478000004eb0070065600d8
:1018d000700252000c00e0000c0034008c08dd00a7
:1018e000f00316000703de00868070000c00dd00a8
:1018f000074bde00060070008c4cdd000743de0065
:10190000868474000c44dd000c0252006120e1006a
:101910002000350061016000070028008781640015
:10192000f7ff270087836400070374000300e000cb
:101930000600320082037300040032000000e80059
:10194000e08048000188a3000e003a00f70f200055
:101950000720e1004a003d000170a1004722dd00a0
:10196000810072008a8070000000be004f06be0039
:101970004f05be004f04be00000006006000b80026
:10198000faff37008100d1000080d3000402e80094
:10199000eeff3700040178008901740092fd070012
:1019a0008a807000f1ff3700e8fd07000702780029
:1019b0000001fd008101fd00e4fd070087027800c1
:1019c000850372000778a300040032000001fd00c7
:1019d0008101fd00f7fd0700e4ff37008503620089
:1019e0000768a300080032000b50e100030032003a
:1019f000f0ff2f00f1ff2700dcff37000001fd00a2
:101a00008101fd00d9ff37000468a300d7ff320031
:101a1000faff3700f8ff2700888360000b003a00c8
:101a20000000e00009003a00830364008283730031
:101a3000020032000200be00ccff37000b50e10074
:101a4000ceff3a000200be00c8ff3700140020009d
:101a5000810064003eff3700f8ff270088836100a3
:101a600004003a000200e00002003a008c00780016
:101a7000beff3700150020008301640039ff3700e6
:101a800001f827000000200081007500b7ff370033
:101a9000889fbe008a9fbe00841f78001700070041
:101aa0004f00780011003300f0ff2f00838f6c008f
:101ab00006003b00040565000a00a7000800370087
:101ac00009f0a6001000200008003700820f540023
:101ad000838f5c00030039001000200001003e00ed
:101ae0000000200009f0a7000000ea004f05be003a
:101af0004f04be000000e000000006000004be002d
:101b0000bffb07000003be000405be000200be00cc
:0c1b1000bbfb0700844f750000000600be
:020000040000fa
:101b1c000400fa00000f7800110798001e007800ee
:101b2c00e10f500003003200e30f500004003200bc
:101b3c00060037009e009000911a880003003700c1
:101b4c009e009000f11d8800000000000080fa004b
:101b5c00000006000400fa00000f7800110798003e
:101b6c001e007800e10f500003003200e30f50001c
:101b7c0004003200060037009e009000711a8800a5
:101b8c00030037009e009000d11d8800000000006b
:101b9c000080fa00000006000400fa00000f780034
:101bac00110798001e007800e10f5000030032006e
:101bbc00e30f500004003200060037009e00900036
:101bcc00d11a8800030037009e009000311e880057
:101bdc00000000000080fa00000006000400fa007b
:101bec00000f7800110798001e007800e10f5000dc
:101bfc0003003200e30f50000400320006003700ef
:101c0c009e009000e11a8800030037009e009000af
:101c1c00411e8800000000000080fa000000060051
:101c2c000000fa0001eba8000080fa00000006009a
:101c3c000000fa0001eba9000080fa000000060089
:101c4c000000fa0008cba8000080fa000000060093
:101c5c000000fa0008cba9000080fa000000060082
:101c6c000200fa00000f78000080fa000000060065
:101c7c000400fa00100798001e009000e40f5000ba
:101c8c0020003200e40f500009003e00e10f50002c
:101c9c0013003200e10f50000e003900e20f50002b
:101cac0012003200e30f5000130032002400370002
:101cbc00e60f500019003200e60f500014003900f6
:101ccc00e70f500018003200e80f500019003200e6
:101cdc001b003700d1608000010f7800180037001e
:101cec00f1608000010f7800150037002161800041
:101cfc00010f78001200370051618000010f78004d
:101d0c000f00370071618000010f78000c00370064
:101d1c0091618000010f780009003700a1618000fb
:101d2c00010f78000600370061608000010f780019
:101d3c000300370071608000010f78000000000084
:101d4c001e0078000080fa00000006000600fa0071
:101d5c0040002000100798000000eb0020079800be
:101d6c000000eb00000f7800fc000700acff070040
:101d7c001e009000baff0700b1ff07000000eb0047
:101d8c00000f7800010037001e0fe800703e2000a5
:101d9c009e007800808f5000fbff3400acff0700e2
:101dac001e009000b2ff0700b1bf2f0001004000e1
:101dbc00200798009eff07002e009000cf80de00c9
:101dcc0009fb070002002f00f35724001efb07003d
:101ddc000200200073342400fafb07003233230086
:101dec0033052400f7fb0700d2cc2c00c3fd2300e5
:101dfc0015fb0700e0fd0700dafa07000000780089
:101e0c0000f0a7000000ea00a0808800a0808000fd
:101e1c0080007800100020004eff0700800020009a
:101e2c00701988000080fa00000006000200fa0019
:101e3c00000f78001e007800800078001000200051
:101e4c0033ff070080002000701988000080fa0022
:101e5c00000006000200fa00000f78001e00780057
:101e6c0080007800300020003aff0700800020003e
:101e7c00d01c88000080fa00000006000200fa0066
:101e8c00000f78001e0078008000780030002000e1
:101e9c001fff070080002000d01c88000080fa0083
:101eac00000006000c00fa00889fbe000000eb004a
:101ebc00100798000000eb00200798006000b800a5
:101ecc0030079800410798000000eb00500798007d
:101edc000000eb00000f7800a000070050ff070087
:101eec001e0090005eff070055ff07000000eb008e
:101efc00000f7800010037001e0fe800703e200034
:101f0c009e007800808f5000fbff340050ff0700cc
:101f1c001e00900056ff07002007980044ff0700a2
:101f2c00ae009000f0ff20000001780005000900d1
:101f3c008200d800cf80de00abfa070032332300da
:101f4c00330524009ffb07000004be005e009000d8
:101f5c00cf80de00a4fa07000001be000800be001e
:101f6c00b9fa070030079800410798004f04be00eb
:101f7c000080fa00000006000000fa000080fa0061
:101f8c00000006000a00fa0030002000100798003c
:101f9c000000eb00200798006000b80030079800a4
:101fac00410798000000eb00000f78006b00070061
:101fbc001bff07001e00900029ff070020ff0700f1
:101fcc000000eb00000f7800010037001e0fe80046
:101fdc00703e20009e007800808f5000fbff340084
:101fec001bff07001e00900021ff07002007980030
:101ffc000fff0700ae009000f0ff200000017800fa
:10200c00050009008200d800cf80de0076fa0700b8
:10201c0032332300330524006afb07000200200042
:10202c000318240067fb070030079800410798004d
:10203c000080fa00000006000a00fa0020002000d0
:10204c00100798000000eb00200798006000b80013
:10205c0030079800410798000000eb00000f780053
:10206c003e000700eefe07001e009000fcfe07007d
:10207c00f3fe07000000eb00000f780001003700b2
:10208c001e0fe800703e20009e007800808f5000ec
:10209c00fbff3400eefe07001e009000f4fe07006c
:1020ac0020079800e2fe0700ae009000f0ff200031
:1020bc0000017800050009008200d800cf80de0006
:1020cc0049fa070032332300330524003dfb070097
:1020dc0030079800410798000080fa0000000600c5
:1020ec000600fa0049030700104e2000000f78008c
:1020fc000000eb00100798001e00900055ff070031
:10210c001e0078005dff0700700c2000200798006f
:10211c001430ef002e00900044ff07001100200047
:10212c0010002000adfe0700110020001000200060
:10213c0099fe0700110020001000200096fe0700f9
:10214c001100200010002000a4fe070080002000d9
:10215c00701988000080fa00000006000000fa00e8
:10216c00002bef000006200010588800042bef0015
:10217c00062bef00082bef000a2bef000c2bef00c7
:10218c004000200070588800102bef00122bef003d
:10219c00142bef00202bef00a00120001059880019
:1021ac00382bef00402bef00482bef00502bef00ab
:1021bc003a2bef00422bef004a2bef00522bef0093
:1021cc003c2bef00442bef004c2bef00542bef007b
:1021dc003e2bef00462bef004e2bef00562bef0063
:1021ec0000402000505b880000402000705b88009d
:1021fc0000402000905b880000402000b05b88000d
:10220c00a02bef00a42bef00a82bef00ac2bef00c2
:10221c00d02bef00d22bef00d42bef00d82bef00fc
:10222c0000302000b05e880000302000d05e8800b6
:10223c00f02bef00f22bef00022cef00401d2100e1
:10224c0059000700202021006f00070060232100a7
:10225c0087000700a02621009f000700e02921002d
:10226c00b7000700202d2100cf000700602e2100b1
:10227c00d7000700a02f2100df000700e03021006d
:10228c00e700070000342100fe0007000d88a900bc
:10229c002d88a8000dc8a9002dc8a8000de8a9001c
:1022ac002de8a8001160800000f0200001007000f3
:1022bc001060880001eba8002d0007001600070035
:1022cc002000070010102000005c8800822bef001b
:1022dc00842bef0000102000305c880000102000e0
:1022ec00405c88008a2bef0010002000605c8800a6
:1022fc0000102000705c880000102000805c8800ba
:10230c0000102000905c880010002000a05c880069
:10231c000080fa00000006000000fa00000ca80083
:10232c0000000000016080000010200000806000b0
:10233c000000e000fbff32000a0ba8000080fa004e
:10234c00000006000000fa00002ca80000000000ad
:10235c000160800000202000008060000000e00090
:10236c00fbff32000a2ba8000080fa0000000600d8
:10237c000000fa0000eca8000000000001608000e2
:10238c0000002800008060000000e000fbff32002d
:10239c000aeba8000080fa00000006000000fa001a
:1023ac000080fa00000006000200fa00000f78001e
:1023bc001e007800008088000080fa0000000600f3
:1023cc000000fa00514080000040200000806000b6
:1023dc000000e00006003200008080000000e000f9
:1023ec000200320000808000000001000b48a900b0
:1023fc000080fa00000006000200fa00000f7800ce
:10240c000080fa00000006000200fa00000f7800bd
:10241c001e007800108088000080fa000000060082
:10242c000200fa0081598000000820000080600042
:10243c000000e00008003200d1608000010f78003d
:10244c00108080000000e00003003200118080004a
:10245c001e007800010001000080fa000000060058
:10246c000200fa00000f78000080fa00000006005d
:10247c000200fa00000f78001e007800208088000f
:10248c000080fa00000006000200fa00815980006a
:10249c0000202000008060000000e00008003200f6
:1024ac00f1608000010f7800208080000000e000c7
:1024bc0003003200218080001e0078000100010022
:1024cc000080fa00000006000200fa00000f7800fd
:1024dc000080fa00000006000200fa00000f7800ed
:1024ec001e007800308088000080fa000000060092
:1024fc000200fa0081598000000021000080600079
:10250c000000e0000800320021618000010f78001b
:10251c00308080000000e000030032003180800039
:10252c001e007800010001000080fa000000060087
:10253c000200fa00000f78000080fa00000006008c
:10254c000200fa00000f78001e007800408088001e
:10255c000080fa00000006000200fa008159800099
:10256c0000002800008060000000e000080032003d
:10257c0051618000010f7800408080000000e00075
:10258c0003003200418080001e0078000100010031
:10259c000080fa00000006000200fa00000f78002c
:1025ac000080fa00000006000200fa00000f78001c
:1025bc001e007800508088000080fa0000000600a1
:1025cc000200fa00000f78000080fa0000000600fc
:1025dc000200fa00000f78001e007800608088006e
:1025ec000080fa00000006000200fa00000f7800dc
:1025fc000080fa00000006000200fa00000f7800cc
:10260c001e007800708088000080fa000000060030
:10261c000200fa00000f78000080fa0000000600ab
:10262c000200fa00000f78001e00780080808800fd
:10263c000080fa00000006000200fa0080598000b9
:10264c00610060000000e000080032006160800062
:10265c00010f7800808080000000e0000300320051
:10266c00818080001e007800010001000080fa00cb
:10267c00000006000200fa00000f78000080fa004b
:10268c00000006000200fa00000f78001e0078001f
:10269c00908088000080fa00000006000200fa001a
:1026ac0080598000620060000000e00008003200e9
:1026bc0071608000010f7800908080000000e000c5
:1026cc0003003200918080001e00780001000100a0
:1026dc000080fa00000006000000fa000001200053
:1026ec005019880000012000b01c88000023ef0066
:1026fc000223ef000423ef000623ef000823ef0072
:10270c0000012000501888000c23ef000e23ef006e
:10271c001023ef001223ef001423ef001623ef0019
:10272c001823ef001a23ef001c23ef001e23ef00e9
:10273c002023ef002223ef002423ef002623ef00b9
:10274c002823ef002c23ef009823ef002e23ef001b
:10275c009a23ef003023ef009c23ef00c0002000f1
:10276c0090198800c0002000f01c88003423ef0072
:10277c00a023ef003623ef00a223ef003823ef0055
:10278c00a423ef003a23ef00a623ef003c23ef0035
:10279c00a823ef003e23ef00aa23ef004023ef0015
:1027ac00ac23ef004223ef00ae23ef004423ef00f5
:1027bc00b023ef004623ef00b223ef004823ef00d5
:1027cc00b423ef004a23ef00b623ef004c23ef00b5
:1027dc00b823ef0040062000701a88001027200054
:1027ec00d01d88005023ef00bc23ef00700c20009c
:1027fc00901a8800104e2000f01d88005423ef0022
:10280c00c023ef005623ef00c223ef005823ef0044
:10281c00c423ef005a23ef00c623ef005c23ef0024
:10282c00c823ef002be3a80097e3a8000080fa0070
:10283c00000006000000fa000080fa00000006000c
:10284c000000fa0040408000680060000000e000da
:10285c0002003200f7ff07000868a9000080fa00a8
:10286c00000006000000fa000080fa0000000600dc
:10287c000000fa004140800000022000008060004f
:10288c000000e00002003200f6ff070008a8a900d3
:10289c000080fa00000006000000fa000080fa0038
:1028ac00000006000000fa00a1408000002020007b
:1028bc00008060000000e00002003200f6ff07001c
:1028cc001528a9000080fa00000006000000fa009c
:1028dc000080fa00000006000000fa00a140800011
:1028ec0000402000008060000000e0000200320088
:1028fc00f6ff07001548a9000080fa00000006004a
:10290c000000fa000080fa00000006000000fa0047
:10291c00a140800000802000008060000000e000ea
:10292c0002003200f6ff07001568a9000080fa00cb
:10293c00000006000000fa000080fa00000006000b
:10294c000000fa00a140800000002100008060001f
:10295c000000e00002003200f6ff07001588a90015
:10296c000080fa00000006000000fa000080fa0067
:10297c00000006000000fa00a140800000002200c8
:10298c00008060000000e00002003200f6ff07004b
:10299c0015a8a9000080fa00000006000000fa004b
:1029ac000080fa00000006000000fa00a140800040
:1029bc0000002400008060000000e00002003200f3
:1029cc00f6ff070015c8a9000080fa0000000600f9
:1029dc000000fa00007c80000080fa000000060075
:1029ec000200fa00faff0700000f78001e007800c2
:1029fc00240007000004e000020032000000280060
:102a0c00710007001e0078002a0007000004e00097
:102a1c0002003200000024006b0007001e0078004a
:102a2c00320007000004e000020032000020200009
:102a3c00650007001e0078003a0007000004e00063
:102a4c0002003200000820005f0007001e00780022
:102a5c00420007000004e0000200320000042000e5
:102a6c00590007001e0078004a0007000004e0002f
:102a7c000200320000012000530007000080fa0021
:102a8c00000006000400fa00100798000040eb005c
:102a9c00004f78001e0090000000e00002003d0096
:102aac0010c0b300004f78001e4078000080fa0080
:102abc00000006000400fa00100798000040eb002c
:102acc00004f78009e009000000024000080600001
:102adc000000e0000200320010c0b300004f78008c
:102aec001e4078000080fa00000006000400fa0086
:102afc00100798000040eb00004f78009e009000fb
:102b0c0000202000008060000000e0000200320085
:102b1c0010c0b300004f78001e4078000080fa000f
:102b2c00000006000400fa00100798000040eb00bb
:102b3c00004f78009e00900000082000008060008c
:102b4c000000e0000200320010c0b300004f78001b
:102b5c001e4078000080fa00000006000400fa0015
:102b6c00100798000040eb00004f78009e0090008a
:102b7c0000042000008060000000e0000200320031
:102b8c0010c0b300004f78001e4078000080fa009f
:102b9c00000006000400fa00100798000040eb004b
:102bac00004f78001e009000700060000000e000f4
:102bbc000200320010c0b300004f78001e407800b5
:102bcc000080fa00000006000200fa00000f7800f6
:102bdc009e80ea00007c800000806000007c880001
:102bec000080fa00000006000000fa00802fef00c1
:102bfc000080fa00000006000000fa00100023001c
:102c0c00307c880060092000407c88008c2fef000d
:102c1c0010042000507c880010102000707c88006c
:102c2c0060092000807c880010042000907c8800c3
:102c3c00b82fef00ba2fef00be2fef00002def00e2
:102c4c00a02fef00a42fef00a62fef00a82fef006e
:102c5c00aa2fef00ae2fef00b02fef00b22fef0036
:102c6c007200200080072000a109200053f82000ea
:102c7c008049780081497800824978000001eb0096
:102c8c00600420007105200043f820008049780082
:102c9c0081497800824978000080fa000000060023
:102cac000000fa00707c8000ee800a00000000003a
:102cbc000080fb0000f0a7000000ea000000ea0022
:102ccc004f00de00004078000080fa000000060093
:102cdc000000fa00062eef00222eef003e2eef0031
:102cec005a2eef00f001200010708800d03f230016
:102cfc00f0708800f0ff2300d07188002050220073
:102d0c00b07288000c2eef00282eef00442eef003e
:102d1c00602eef000a2eef00262eef00422eef0061
:102d2c005e2eef00082eef00242eef00402eef0059
:102d3c005c2eef00f001200000708800d00920000c
:102d4c00e0708800f00c2000c07188000040220068
:102d5c00a07288000080fa00000006000200fa0051
:102d6c00dffc07000000eb003afc0700002021000c
:102d7c00a1072000530007001027200035fc070096
:102d8c0000202100a10720004e0007000000eb00ee
:102d9c0030fc070000202100a1072000490007009b
:102dac00102720002bfc070000202100a107200089
:102dbc00440007000000eb0026fc07000000eb00bd
:102dcc00000f7800e1fb07001e0fe800fdff370045
:102ddc000200fa00000f780021028000200f200072
:102dec00008060001e007000200288000080fa0045
:102dfc00000006000000fa00c3e8a8000000000074
:102e0c00000000000080fa00000006000000fa003c
:102e1c00afff07000800070077ff0700cffc070093
:102e2c002dfe0700f3ff070000022000e8ff07005b
:102e3c000080fa00000006000000fa00b143800098
:102e4c00f08f2f00008060000080a000b04388004d
:102e5c00b143800080ff2f00008060000000a000c4
:102e6c00b0438800b1438000f0ff28000080600070
:102e7c0000c0a000b04388000080fa0000000600eb
:020000040000fa
:102e8c001410000002000000800000000010000080
:102e9c0014000000800000001a1000002000000048
:102eac0080000000161000000200000082000000ec
:102ebc00ffff00001810000002000000800000005e
:042ecc000000000002
:020000040000fa
:102ed000f03fb1000180b10006003500ee030900ab
:102ee00000000000403fb1000180b100fbff3d0049
:102ef0001000b000203fb000020035000080090043
:082f00000000000000000600c3
:020000040000fa
:102f08000200fa00000f78009e007800b180880067
:102f1800ffff37000000fa00a001210080077800b9
:102f280020032100000188000080fa00000006004c
:020000040000fa
:04be0000ffffff0041
:020000040000fa
:04be2000ffffff0021
:020000040000fa
:04be30007fffff0091
:020000040000fa
:04be3800bfffff0049
:020000040000fa
:04be40007f7fff0001
:020000040000fa
:04be4800ffffff00f9
:020000040000fa
:04be5000dfffff0011
:020000040000fa
:04be58000000ff00e7
:020000040000fa
:04be60000000ff00df
:020000040000fa
:04be68000000ff00d7
:020000040000fa
:04be70000000ff00cf
:020000040000fa
:04be7800ffffff00c9
:020000040000fa
:04be8000fffcff00c4
:020000040000fa
:04be8800ffffff00b9
:00000001FF
