:020000040000fa
:080000000002040000000000f2
:020000040000fa
:04000800da05000015
:020000040000fa
:04000c00da05000011
:020000040000fa
:04001000da0500000d
:020000040000fa
:04001400da05000009
:020000040000fa
:04001800da05000005
:020000040000fa
:04001c00da05000001
:020000040000fa
:04002000da050000fd
:020000040000fa
:04002400da050000f9
:020000040000fa
:04002800da050000f5
:020000040000fa
:04002c00da050000f1
:020000040000fa
:04003000da050000ed
:020000040000fa
:04003400da050000e9
:020000040000fa
:04003800da050000e5
:020000040000fa
:04003c00da050000e1
:020000040000fa
:04004000da050000dd
:020000040000fa
:04004400da050000d9
:020000040000fa
:04004800da050000d5
:020000040000fa
:04004c00da050000d1
:020000040000fa
:04005000da050000cd
:020000040000fa
:04005400da050000c9
:020000040000fa
:04005800da050000c5
:020000040000fa
:04005c00da050000c1
:020000040000fa
:04006000da050000bd
:020000040000fa
:04006400da050000b9
:020000040000fa
:04006800da050000b5
:020000040000fa
:04006c00da050000b1
:020000040000fa
:04007000da050000ad
:020000040000fa
:04007400a6040000de
:020000040000fa
:04007800da050000a5
:020000040000fa
:04007c00da050000a1
:020000040000fa
:04008000da0500009d
:020000040000fa
:04008400da05000099
:020000040000fa
:04008800da05000095
:020000040000fa
:04008c00da05000091
:020000040000fa
:04009000da0500008d
:020000040000fa
:04009400da05000089
:020000040000fa
:04009800da05000085
:020000040000fa
:04009c00da05000081
:020000040000fa
:0400a000da0500007d
:020000040000fa
:0400a400da05000079
:020000040000fa
:0400a800da05000075
:020000040000fa
:0400ac00da05000071
:020000040000fa
:0400b000da0500006d
:020000040000fa
:0400b400da05000069
:020000040000fa
:0400b800da05000065
:020000040000fa
:0400bc00da05000061
:020000040000fa
:0400c000da0500005d
:020000040000fa
:0400c400da05000059
:020000040000fa
:0400c800da05000055
:020000040000fa
:0400cc00da05000051
:020000040000fa
:0400d000da0500004d
:020000040000fa
:0400d400da05000049
:020000040000fa
:0400d800da05000045
:020000040000fa
:0400dc00da05000041
:020000040000fa
:0400e000da0500003d
:020000040000fa
:0400e400da05000039
:020000040000fa
:0400e800da05000035
:020000040000fa
:0400ec00da05000031
:020000040000fa
:0400f000da0500002d
:020000040000fa
:0400f400da05000029
:020000040000fa
:0400f800da05000025
:020000040000fa
:0400fc00da05000021
:020000040000fa
:04010000da0500001c
:020000040000fa
:04010400da05000018
:020000040000fa
:04010800da05000014
:020000040000fa
:04010c00da05000010
:020000040000fa
:04011000da0500000c
:020000040000fa
:04011400da05000008
:020000040000fa
:04011800da05000004
:020000040000fa
:04011c00da05000000
:020000040000fa
:04012000da050000fc
:020000040000fa
:04012400da050000f8
:020000040000fa
:04012800da050000f4
:020000040000fa
:04012c00da050000f0
:020000040000fa
:04013000da050000ec
:020000040000fa
:04013400da050000e8
:020000040000fa
:04013800da050000e4
:020000040000fa
:04013c00da050000e0
:020000040000fa
:04014000da050000dc
:020000040000fa
:04014400da050000d8
:020000040000fa
:04014800da050000d4
:020000040000fa
:04014c00da050000d0
:020000040000fa
:04015000da050000cc
:020000040000fa
:04015400da050000c8
:020000040000fa
:04015800da050000c4
:020000040000fa
:04015c007603000026
:020000040000fa
:04016000da050000bc
:020000040000fa
:04016400da050000b8
:020000040000fa
:04016800da050000b4
:020000040000fa
:04016c00da050000b0
:020000040000fa
:04017000da050000ac
:020000040000fa
:04017400da050000a8
:020000040000fa
:04017800da050000a4
:020000040000fa
:04017c00da050000a0
:020000040000fa
:04018000da0500009c
:020000040000fa
:04018400da05000098
:020000040000fa
:04018800da05000094
:020000040000fa
:04018c00da05000090
:020000040000fa
:04019000da0500008c
:020000040000fa
:04019400da05000088
:020000040000fa
:04019800da05000084
:020000040000fa
:04019c00da05000080
:020000040000fa
:0401a000da0500007c
:020000040000fa
:0401a400da05000078
:020000040000fa
:0401a800da05000074
:020000040000fa
:0401ac00da05000070
:020000040000fa
:0401b000da0500006c
:020000040000fa
:0401b400da05000068
:020000040000fa
:0401b800da05000064
:020000040000fa
:0401bc00da05000060
:020000040000fa
:0401c000da0500005c
:020000040000fa
:0401c400da05000058
:020000040000fa
:0401c800da05000054
:020000040000fa
:0401cc00da05000050
:020000040000fa
:0401d000da0500004c
:020000040000fa
:0401d400da05000048
:020000040000fa
:0401d800940300008c
:020000040000fa
:0401dc00da05000040
:020000040000fa
:0401e000da0500003c
:020000040000fa
:0401e400da05000038
:020000040000fa
:0401e800da05000034
:020000040000fa
:0401ec00da05000030
:020000040000fa
:0401f000da0500002c
:020000040000fa
:0401f400da05000028
:020000040000fa
:0401f800da05000024
:020000040000fa
:0401fc00da05000020
:020000040000fa
:04020000da0500001b
:020000040000fa
:04020400da05000017
:020000040000fa
:04020800da05000013
:020000040000fa
:04020c00da0500000f
:020000040000fa
:04021000da0500000b
:020000040000fa
:04021400da05000007
:020000040000fa
:04021800da05000003
:020000040000fa
:04021c00da050000ff
:020000040000fa
:04022000da050000fb
:020000040000fa
:04022400da050000f7
:020000040000fa
:04022800da050000f3
:020000040000fa
:04022c00da050000ef
:020000040000fa
:04023000da050000eb
:020000040000fa
:04023400da050000e7
:020000040000fa
:04023800da050000e3
:020000040000fa
:04023c00da050000df
:020000040000fa
:04024000da050000db
:020000040000fa
:04024400da050000d7
:020000040000fa
:04024800da050000d3
:020000040000fa
:04024c00da050000cf
:020000040000fa
:04025000da050000cb
:020000040000fa
:04025400da050000c7
:020000040000fa
:04025800da050000c3
:020000040000fa
:04025c00da050000bf
:020000040000fa
:04026000da050000bb
:020000040000fa
:04026400da050000b7
:020000040000fa
:04026800da050000b3
:020000040000fa
:04026c00da050000af
:020000040000fa
:04027000da050000ab
:020000040000fa
:04027400da050000a7
:020000040000fa
:04027800da050000a3
:020000040000fa
:04027c00da0500009f
:020000040000fa
:04028000da0500009b
:020000040000fa
:04028400da05000097
:020000040000fa
:04028800da05000093
:020000040000fa
:04028c00da0500008f
:020000040000fa
:04029000da0500008b
:020000040000fa
:04029400da05000087
:020000040000fa
:04029800da05000083
:020000040000fa
:04029c00da0500007f
:020000040000fa
:0402a000da0500007b
:020000040000fa
:0402a400da05000077
:020000040000fa
:0402a800da05000073
:020000040000fa
:0402ac00da0500006f
:020000040000fa
:0402b000da0500006b
:020000040000fa
:0402b400da05000067
:020000040000fa
:0402b800da05000063
:020000040000fa
:0402bc00da0500005f
:020000040000fa
:0402c000da0500005b
:020000040000fa
:0402c400da05000057
:020000040000fa
:0402c800da05000053
:020000040000fa
:0402cc00da0500004f
:020000040000fa
:0402d000da0500004b
:020000040000fa
:0402d400da05000047
:020000040000fa
:0402d800da05000043
:020000040000fa
:0402dc00da0500003f
:020000040000fa
:0402e000da0500003b
:020000040000fa
:0402e400da05000037
:020000040000fa
:0402e800da05000033
:020000040000fa
:0402ec00da0500002f
:020000040000fa
:0402f000da0500002b
:020000040000fa
:0402f400da05000027
:020000040000fa
:0402f800da05000023
:020000040000fa
:0402fc00da0500001f
:020000040000fa
:04030000da0500001a
:020000040000fa
:04030400da05000016
:020000040000fa
:04030800da05000012
:020000040000fa
:04030c00da0500000e
:020000040000fa
:04031000da0500000a
:020000040000fa
:04031400da05000006
:020000040000fa
:04031800da05000002
:020000040000fa
:04031c00da050000fe
:020000040000fa
:04032000da050000fa
:020000040000fa
:04032400da050000f6
:020000040000fa
:10040000ef9722000eff22000e018800000000007e
:10041000000020000000e000020032000001200087
:100420002002880014000700e90107000000e00036
:1004300003003a0060e522000100200002003700be
:100440000000200001002000810f70000100320038
:100450000f000700000020000000e0000200320052
:100460000000020000000000281702000000000049
:100470000040da000000fe00400420000000e00020
:1004800002003200002020009001880000000600d9
:10049000a1028800800478000000eb001f003700f4
:1004a000e284440054a0b4009905ba00e2844400f8
:1004b00054a0b4009906ba00e284440054a0b400e9
:1004c0000006eb00476fde00fd07b200ae018800ba
:1004d000636ce10003003a000ad801000000eb0061
:1004e0000e003700606ce10008003a00004deb00a0
:1004f0000a05e800020039003420ec000af0a000f0
:100500008b05e900f9ff3e00040037006168e10057
:10051000010032000086eb000b00070019c7ba008b
:100520001905ba000e04e00003003a000a00e000da
:10053000dbff3a0000000600fe07b200ae028800b2
:100540008a047800f5ff37000cd0a300e20f4d00bd
:100550001c003b0089027800354dba000a05e8000e
:10056000020039003420ec000af0a0008b05e900fd
:100570000f003200254dba000a05e80002003900dc
:100580003420ec000af0a0008b05e90008003200de
:100590000c00e0000600320015cdba000a05e800a4
:1005a000020039003420ec000af0a0008b05e900bd
:1005b0008984e80054a0b4000b00e000e2ff3a0098
:1005c000000006009902ba00055d78008b05e9007d
:1005d000f7ff3200c82ade00055d78008b05e900d0
:1005e000f3ff32000c00e000f1ff320019ddba0029
:1005f000eeff3700000000000000000000000000d7
:1006000000000000000000000000000000000000ea
:1006100000000000000000000000000000000000da
:1006200000000000000000000000000000000000ca
:1006300000000000000000000000000000000000ba
:1006400000000000000000000000000000000000aa
:10065000000000000000000000000000000000009a
:10066000000000000000000000000000000000008a
:10067000000000000000000000000000000000007a
:10068000000000000000000000000000000000006a
:10069000000000000000000000000000000000005a
:1006a000000000000000000000000000000000004a
:1006b000000000000000000000000000000000003a
:1006c000000000000000000000000000000000002a
:1006d000000000000000000000000000000000001a
:1006e0000000000000000000000000003600f800dc
:1006f000809fbe00829fbe00849fbe00869fbe007a
:100700000000fa00740b070009a8a9000080fa0095
:100710004f03be004f02be004f01be004f00be009f
:100720003600f900004006003600f800809fbe0049
:10073000829fbe00849fbe00869fbe000000fa001c
:10074000706180004082880070618000417f2200db
:10075000d61c0700b13f810060322200808f50001c
:10076000010034003f6ea80000808000610060003e
:100770000000e0002b0032007060800080007800f4
:1007800060608000827e2200a91c0700803f8100fb
:1007900020408900903f810030408900a100210065
:1007a00040802200b21c070062012100e10021000c
:1007b000a00021008c1c0700e8090700220c07009c
:1007c00010808000e1002100f51b0700620021007d
:1007d000e100210020012100711c0700e17f2200bf
:1007e00060002100481c070020808000a201210039
:1007f00080007800e07f2200eb170700a0012100b5
:1008000010007800d01d8800a00121002000900079
:10081000201c8800a001210010009000701a8800a0
:100820001a0037001000200050828800e11c800070
:10083000f03f2f0000806000e01c8800311b80002a
:10084000f03f2f0000806000301b8800811980007d
:10085000f03f2f0000806000801988009da3a80051
:1008600067a3a80031a3a800a001210030009000d8
:10087000d01d8800a001210030009000201c8800bd
:10088000a001210030009000701a8800e171800002
:1008900000002100008060000000e0000b003a0032
:1008a0000010a900a0012100c1da20003100980049
:1008b000303d81000000e00004003c00a001210068
:1008c0008000eb003100980077090700208380004a
:1008d0003183800061004000e08048002083880070
:1008e00031838800228380003383800000f8240055
:1008f00021012000800f5100818f59000100360036
:100900003f6ea900108380000000e800108388007b
:1009100011838000803e2000808f5000010036004f
:10092000fe0a07001b0b07004a0b07000d88a900f1
:100930000080fa004f03be004f02be004f01be0010
:100940004f00be003600f900004006003600f800f7
:10095000809fbe00829fbe00849fbe00869fbe0017
:100960000000fa006430ef006630ef000083800082
:10097000004078004ff0b700c616070000838800db
:100980004fd0bf008080fb0000838000808f50002c
:10099000240032004fd0bf000080fb00e30f500066
:1009a0001d003200e30f500005003c00e10f500035
:1009b0000a003200e20f5000140032001900370024
:1009c000e50f500008003200e50f50000900350027
:1009d000e60f50000a0032001200370050002000dd
:1009e000008388000f00370040002000008388004b
:1009f0000c003700600020000083880009003700e9
:100a0000200020000083880006003700300020000e
:100a10000083880003003700100020000083880056
:100a200000000000cd180700a0828800b182880075
:100a3000a2828000b3828000808280009182800048
:100a40000000510081805900c0828800d182880056
:100a5000a2828000b3828000808280009182800028
:100a6000800f5100818f59000c003100a28280005c
:100a7000b38280008082800091828000000151005a
:100a800081815900004c2e00f1002000020040003e
:100a900083804800c0828800d1828800a0828000c4
:100aa000b18280008082880091828800c0828000ac
:100ab000d18280009c0b0700c2828000d38280001c
:100ac000706c200001002000800f5100818f5900c0
:100ad00005003e00806c200001002000c0828800dc
:100ae000d18288000b003700c2828000d382800050
:100af00000b2210001002000800f5100818f5900b9
:100b00000400360000b2210001002000c0828800ed
:100b1000d1828800313d8100007d2000808f50000f
:100b200007003400b13f810060322200808f500006
:100b3000030034000010a8006b16070009003700fe
:100b4000b13f8100003f2200808f500005003c0033
:100b5000313d810070a22000808f500001003c00d8
:100b6000d108070000838000800040000072280048
:100b70000080400090007800000024008080400049
:100b8000d083800000804000608288006082800006
:100b9000108088000268a9000080fa004f03be00a0
:100ba0004f02be004f01be004f00be003600f900ec
:100bb000004006000040da000000fe0000f0a70040
:100bc0000000ea0000f0a7000080ea000000060034
:100bd000000005008f1fd1000c0007008f87e9007f
:100be0000000e00000000600809feb000700070007
:100bf0008f87e9000000e0000000060014002000dc
:100c00003d003700f4ff2f003b003700889fbe00f7
:100c10008a9fbe008c9fbe000404be000605be0075
:100c2000809fbe00829fbe0021000700040678005e
:100c30000800be000a01be001d00070084067800ff
:100c40004f03be004f02be008d4f76007fb097006d
:100c500013003300f0ff2f008b8f6b0006003b006a
:100c60000d0666000c00a7000a00370007f0a6007a
:100c7000100020000a003700880f5200898f5a00a8
:100c80008a0f5b008b8f5b0003003900100020008f
:100c900001003e000000200007f0a7000000ea006d
:100ca0004f06be004f05be004f04be000000060008
:100cb00005ff270005826100070032000428e100db
:100cc00001003200240005000600070001003a0080
:100cd000440005000408050002000700f9ff3a007f
:100ce000140005006f8261008102700085027100ae
:100cf0008502720000000600889fbe008a9fbe0029
:100d0000841f7800170007004f007800110033009f
:100d1000f0ff2f00838f6c0006003b000405650088
:100d20000a00a7000800370009f0a6001000200004
:100d300008003700820f5400838f5c0003003900e5
:100d40001000200001003e000000200009f0a70074
:100d50000000ea004f05be004f04be000000e000a6
:100d6000000006000004be00060007000003be00ed
:100d70000405be000200be0002000700844f75009b
:100d800000000600c70ade00f107b200f50fb2004e
:100d900008003200e1cf4200020032000170a000e2
:100da00024000500810f70000100320004080500d6
:100db00044000500810f700002003a001400050095
:100dc0008502e9000000400081c04800fcff3b00b4
:080dd0000170a00024000500e1
:020000040000fa
:100dd800ffff00007e0b0000040b0000b40e0000b3
:100de800680f00001e17000000000000000000004f
:100df80000000000000000000000000000000000eb
:100e080001000000062400000000000000000000af
:100e180053650000702000003238000020320000c6
:100e28003031000038310000303a0000343500001d
:100e38003a35000034000000000000000000000007
:100e4800acaa000056d5000054550000aa2a00009c
:080e5800ff7f00000000000014
:020000040000fa
:100e60001800fa00889fbe008a9fbe008c1f780081
:100e700000067800f4af9f0085b79f0096b79f00eb
:100e8000a7b79f002c709000ef4060000068a3009f
:100e90000b003200e4cf50003b003200e8cf50009e
:100ea0004e0032000046eb000c4078004f06780000
:100eb0004f05be004f04be000080fa00000006008f
:100ec0000058a30018003200e2cf50006700320043
:100ed0008c003e00e1cf5000f2ff3a008c69900098
:100ee0000c6090006fda97003c299000e10f5100f0
:100ef000250132000046eb0080cf5100eaff3400ac
:100f000001467800844f5000e6ff35000c40780021
:100f10004f0678004f05be004f04be000080fa0067
:100f200000000600e6ff3700e2cf5000620032000a
:100f3000a6003e00e1cf5000daff3a008c69900035
:100f40000c6090006fda97003c299000e10f51008f
:100f5000000132000046eb0080cf5100d2ff360086
:100f600001467800844f5000ceff39000c407800d5
:100f70004f0678004f05be004f04be000080fa0007
:100f800000000600ceff37004c109000dc109000ef
:100f90000c1490009c1490007fad97008fb59700c3
:100fa0003c2e9000e10f5600870132000801be0080
:100fb00014ff07000000e000baff34001cc0b300bb
:100fc0000801be000a00be000cff07000000e000a0
:100fd000b5ff34000046eb00b3ff37004c10900023
:100fe000dc1090006c119000fc1190000c1490002b
:100ff0009c1490002c159000bc1590007faa9700bf
:101000008fb297001fb39700afb39700b4b79f009c
:10101000c5b79f00d6b79f00e7b79f003c2e900052
:10102000e10f5600530132000802be000a03be0061
:10103000edfe07000000e0009aff34001cc0b30082
:101040000802be000a03be003fb09700cfb0970071
:101050005fb19700efb19700defe07000000e000ef
:1010600091ff34000046eb008fff37004c119000d9
:101070000c109000ffa99700bc289000e18f500051
:10108000db0032000046eb00800f510086ff340089
:101090001cc0b300830f500082ff35000c40780065
:1010a0004f0678004f05be004f04be000080fa00d6
:1010b0000000060082ff37004c1190000c109000d9
:1010c000ffa99700bc289000e18f5000bb003200c0
:1010d0000046eb00800f510073ff36001cc0b300c8
:1010e000830f50006fff39000c4078004f067800e6
:1010f0004f05be004f04be000080fa00000006004d
:101100006fff3700e4cf50007a003200e8cf500084
:1011100064ff3a004c149000dc1490006c159000b1
:10112000fc159000f8b79f0089bf9f009abf9f00f1
:10113000abbf9f000c1090009c1090002c119000f1
:10114000bc119000b4b79f00c5b79f00d6b79f00f1
:10115000e7b79f00bc2a9000e18f5200ea003200fe
:101160000046eb007fb497008fbc97001fbd97002f
:10117000afbd97000040e10001c8e10002d0e100ee
:1011800003d8e10048ff34001cc0b3003fb2970011
:10119000cfb297005fb39700efb397000400e10070
:1011a0000588e1000690e1000798e1003dff350069
:1011b0000c4078004f0678004f05be004f04be007b
:1011c0000080fa00000006003dff3700e4cf500029
:1011d00030003200e8cf500032ff3a004c1490004b
:1011e000dc1490006c159000fc159000f8b79f007f
:1011f00089bf9f009abf9f00abbf9f000c1090005b
:101200009c1090002c119000bc119000b4b79f006e
:10121000c5b79f00d6b79f00e7b79f00bc2a9000d4
:10122000e18f52009d0032000046eb007fb4970032
:101230008fbc97001fbd9700afbd97000040e10035
:1012400001c8e10002d0e10003d8e10016ff36003a
:101250001cc0b3003fb29700cfb297005fb39700b6
:10126000efb397000400e1000588e1000690e1007b
:101270000798e1000bff39000c4078004f0678001a
:101280004f05be004f04be000080fa0000000600bb
:101290000bff37004c129000dc1290000c109000f5
:1012a0009c1090007fab97008fb397003c29900073
:1012b000e10f51006a0032000046eb00800f52003f
:1012c000818f5a00f8fe36001cc0b300860f500014
:1012d000878f5800f3fe39000c4078004f067800e5
:1012e0004f05be004f04be000080fa00000006005b
:1012f000f3fe37004c129000dc1290000c109000ae
:101300009c1090007fab97008fb397003c29900012
:10131000e10f5100430032000046eb00800f520005
:10132000818f5a00e0fe34001cc0b300860f5000cd
:10133000878f5800dbfe35000c4078004f067800a0
:101340004f05be004f04be000080fa0000000600fa
:10135000dbfe37000046eb0080cf5100d2fe3100ab
:1013600002467800844f5000cefe3e000c407800cc
:101370004f0678004f05be004f04be000080fa0003
:1013800000000600cefe37000046eb0080cf510083
:10139000c5fe3d0002467800844f5000c1fe3c006f
:1013a0000c4078004f0678004f05be004f04be0089
:1013b0000080fa0000000600c1fe37000046eb0086
:1013c000800f5100b8fe310001467800830f5000b5
:1013d000b4fe3e000c4078004f0678004f05be007a
:1013e0004f04be000080fa0000000600b4fe370083
:1013f0000046eb00800f5100abfe3d000146780037
:10140000830f5000a7fe3c000c4078004f06780088
:101410004f05be004f04be000080fa000000060029
:10142000a7fe37000046eb00800f5200818f5a0064
:101430009dfe3d0002467800860f5000878f5800c1
:1014400098fe3c000c4078004f0678004f05be0027
:101450004f04be000080fa000000060098fe37002e
:101460000046eb00800f5200818f5a008efe310043
:1014700002467800860f5000878f580089fe3e0094
:101480000c4078004f0678004f05be004f04be00a8
:101490000080fa000000060089fe37000046eb00dd
:1014a0007fb497008fbc97001fbd9700afbd97001a
:1014b0000040e10001c8e10002d0e10003d8e100f2
:1014c00079fe3100054678003fb29700cfb2970011
:1014d0005fb39700efb397000400e1000588e100d7
:1014e0000690e1000798e1006efe3e000c40780097
:1014f0004f0678004f05be004f04be000080fa0082
:10150000000006006efe37000046eb007fb4970037
:101510008fbc97001fbd9700afbd97000040e10052
:1015200001c8e10002d0e10003d8e1005efe3d0009
:10153000054678003fb29700cfb297005fb397009f
:10154000efb397000400e1000588e1000690e10098
:101550000798e10053fe3c000c4078004f067800ed
:101560004f05be004f04be000080fa0000000600d8
:1015700053fe37000802be000a03be0095fd0700b7
:101580000000e00047fe3d000802be000a03be0066
:101590003fb09700cfb097005fb19700efb19700d1
:1015a00091fd07000000e0003efe35000c40780091
:1015b0004f0678004f05be004f04be000080fa00c1
:1015c000000006003efe37000801be008bfd07004c
:1015d0000000e00033fe3d000801be000a00be002e
:1015e00088fd07000000e0002efe35000c4078006a
:1015f0004f0678004f05be004f04be000080fa0081
:10160000000006002efe37000088eb008000eb0093
:10161000110098000041eb00215098002100980033
:1016200032509800310098004250980041009800d4
:101630005250980051009800625098006100980044
:1016400072509800710098000258980001089800a4
:1016500012589800e3072100530898006022b80050
:101660006033b800041098001510980026109800f8
:101670003710980044109800551098006610980094
:10168000771098000118980022709800211898008f
:101690006022b80034189800451898002278980005
:1016a000327898006118980071189800012098000d
:1016b00022c09800242098003520980044209800eb
:1016c0005520980042c8980074209800052898007a
:1016d0008238210003002000122898002328980057
:1016e00011002000312898006208980073089800c3
:1016f000e1838000c0089800000006000800fa009e
:10170000889fbe008a9fbe008c9fbe0000067800a6
:101710002c189000e60f500019003e00e50f500015
:10172000370039008c1890002c7090006f406000da
:10173000e24f5000800132002f013e00e14f500087
:101740004c0132006fb29700ffb297000fbb9700b9
:101750009fbb97000c007800c1fd07000004e0006b
:101760001701320040002000201e98004f06be00e6
:101770004f05be004f04be000080fa0000000600c6
:10178000e70f500084003200e80f5000f7ff3a00e6
:101790007c189000ec1890000001e800721e980080
:1017a000810f5000f1ff39000000eb00701e98001f
:1017b0002c7890000080fb008000eb004c21900012
:1017c000dc21900000004100818049004026980003
:1017d00051269800e00f5000e08f5800e3ff3500dd
:1017e00020002000201e98004f06be004f05be00be
:1017f0004f04be000080fa0000000600e0ff370042
:10180000e20f5000a3003200e40f5000d600320077
:10181000e10f5000d5ff3a007c189000ec189000c2
:101820000001e800721e9800810f50002d00390061
:101830000000eb00701e98003c199000cc1990003d
:101840002c7890000080fb008000eb00000041003d
:101850008180490084382100840f5000e08f5800b7
:10186000040036006033b800361e9800471e98000a
:101870006011b8008046eb008d83fb000040eb0058
:101880000703e800f283430006034300dc089000ee
:101890000082fb00ec027b00e5427a008570790053
:1018a00061014100e0814900321e9800431e98000a
:1018b0000040e800ecc07b00814f5000f3ff39008e
:1018c0008d46e8003c78900080cf5600eaff390052
:1018d0007c2090008c289000820f5000838f58004d
:1018e000e10036008c1890002c7090006f40600072
:1018f000e24f500018013200ca003e00e14f500094
:10190000ef0032000802be000a03be000c0078009f
:1019100053fd07000004e0009f0032004cc8900017
:101920000004e0009c0032002c209000bc209000bd
:10193000e00f5000e08f5800e60035003c189000a2
:10194000cc189000e00f5000e08f5800ee003200fd
:101950007c1990000200e000f2003a002c7990001f
:101960000281fb008001eb000200500083805800e0
:10197000402698005126980070002000201e9800f4
:101980004f06be004f05be004f04be000080fa00a7
:10199000000006007aff37007c189000ec189000d9
:1019a0000001e800721e9800810f50006fff39009f
:1019b0000000eb00701e98003c199000cc199000bc
:1019c0002c7890000080fb008000eb0000004100bc
:1019d0008180490084382100840f5000e08f580036
:1019e000040036006033b800361e9800471e980089
:1019f0006011b8000044eb008883fb000040eb005e
:101a00000703e800f283430006034300dc0890006c
:101a10000082fb00ec027b00e5427a0085707900d1
:101a200061014100e0814900321e9800431e980088
:101a30000040e800ecc07b00814f5000f3ff39000c
:101a40000844e8003c789000804f5400eaff3900d9
:101a50004c209000dc20900002015000838158004f
:101a60002c209000bc209000800f5100818f5900e5
:101a700073003e000000eb00201e98004f06be00e1
:101a80004f05be004f04be000080fa0000000600b3
:101a90003bff37007c189000ec1890000001e80034
:101aa000721e9800810f5000260039000000eb00e4
:101ab000701e98003c199000cc1990000044eb0077
:101ac0008883fb000040eb000703e800f28343003b
:101ad00006034300dc0890000082fb00ec027b0060
:101ae000e5427a008570790061014100e08149009a
:101af000321e9800431e98000040e800ecc07b00b6
:101b0000814f5000f3ff39000844e8003c78900012
:101b1000804f5400eaff39002c7890000080fb00d1
:101b20008000eb00020140008381480080382100e2
:101b3000800f5100e08f5900020036000000eb00da
:101b4000201e98000c2090000000e800002698005d
:101b50004f06be004f05be004f04be000080fa00d5
:101b60000000060006ff37000c2090000000e8008f
:101b7000002698007c1890000000e800701e980075
:101b80004f06be004f05be004f04be000080fa00a5
:101b900000000600fafe3700481698005916980013
:101ba0006a1698007b1698004f06be004f05be00cf
:101bb0004f04be000080fa0000000600f0fe37006f
:101bc0006fb09700ffb097000fb997009fb99700cb
:101bd00040169800511698006216980073169800e7
:101be0004f06be004f05be004f04be000080fa0045
:101bf00000000600e2fe3700e44f500026003200ed
:101c0000e84f5000cffe3a003102be002103be0073
:101c1000e4b79f00f5b79f0086bf9f0097bf9f0066
:101c2000c8fe3700e44f500022003200e84f500059
:101c300034ff3a003104be002105be0031ff3700f9
:101c40001c2a9000ac2a90000201420083814a00c5
:101c5000820f5000838f5800c4fe39000000eb0053
:101c6000201e980085ff370010c0b30040ce9800ba
:101c70001cff3700114078000082fb008002eb005f
:101c80006033b800e4b79f00f5b79f0086bf9f00a0
:101c900097bf9f00abfe37001102be006033b80053
:101ca000e4b79f00f5b79f0086bf9f0097bf9f00d6
:101cb000a4fe37001104be006055b80011ff3700c4
:101cc000114478000884fb008004eb006055b800e4
:101cd0000cff370040269800512698006000b8009d
:101ce000301e9800411e980080002000201e9800a1
:101cf0004f06be004f05be004f04be000080fa0034
:101d0000000006009efe37002c7890000080fb004b
:101d10008000eb001c299000ac29900000005100cd
:101d200081805900402698005126980070002000bc
:101d3000201e980012ff3700110078006102b800e1
:101d40006033b800e4b79f00f5b79f0086bf9f00df
:101d500097bf9f007bfe3700110478008004eb00e2
:101d60006055b800e7fe3700407190008248780067
:101d7000307a90009440980040799000a2409800fa
:101d8000507a9000b440980060719000c240980072
:101d900030199000c0199000481add004811de008b
:101da00002017200c819de00d2409800007990004c
:101db000e2409800107a9000f4409800205990007a
:101dc0008248980050099000cf91de00481add004b
:101dd0004811de0002017200c819de009248980026
:101de00050099000cf91de00a34898005009900060
:101df000cf91de004819de00b248980040c1900043
:101e0000c248980020219000b0219000481add00bf
:101e10004811de0002017200d248980060c19000b3
:101e2000e248980070c29000f448980000c9900001
:101e30008250980040219000d0219000481add0087
:101e40004811de00020172009250980020c99000f3
:101e5000a250980030ca9000b450980020d1900051
:101e6000c250980010299000a0299000481add0067
:101e70004811de0002017200c819de00d25098003d
:101e800040d19000e250980050d29000f450980059
:101e9000405990008258980060099000f009900025
:101ea000481add004811de0002017200c819de0088
:101eb0009258980060599000a2589800705890006d
:101ec000b058980020c8b300c0589800d001050051
:101ed000ef02b000889fbe008a9fbe008c9fbe00ac
:101ee0008e1f78000004be0092f79f001ac0b30056
:101ef000e34f5100c6003600890678005d40780047
:101f0000e84f5000c2003e000004e000c000320074
:101f10008000eb00211c98000040eb00317c980011
:101f2000012498006011b800321c9800431c9800ee
:101f3000b9419000c819dd00a94090008180fb00e4
:101f400081804100611c9800711c98006022b800db
:101f50006033b80044149800551498006614980033
:101f600077149800207c980021c0b30021c4980009
:101f700040cc98006022b800442498005524980072
:101f80001d04e0009d0232004ac0b3000046780004
:101f90008e3821008d017800890678009ff2970025
:101fa000e5e79f008a40e8000a80fb006d4078006a
:101fb000e14f5000de0032009c0031008c84fb00b9
:101fc0008180fb000900e800000040008185460098
:101fd0001b4290000482fb008002eb00482bdd00d6
:101fe000c823de00870373004823dd002b429000e6
:101ff0008482fb00040020000602420087824a001f
:102000006dc378000683fb008003eb0004024300ed
:1020100085824b00043478004b40900089044400d2
:10202000a05498002879900002414000227c98003a
:10203000a8c0900000c0400020c498000281fb00ae
:10204000050009000207d80001005700cf80de001c
:10205000102c9800212c9800664545000c46e8009d
:10206000934f1600cfff3e008d0478008306780062
:102070006fe3970096f79f008a80fb000a45e8000f
:102080000a80fb008a45e80069c678002c74980035
:1020900069407800e14f5000790232006701310059
:1020a0008b81fb0003804400104290000482fb00ff
:1020b0008002eb00482bdd00c823de00870373009d
:1020c0004823dd00204290008482fb0004002000b1
:1020d0000603420087834a0069c279000482fb003c
:1020e0008002eb000602420087824a00041c98002e
:1020f000e4c545008bf79f006f476600e24f57002d
:102100007d02320098013e00e14f57004b003a003b
:102110008ff397000782fb0069427a000482fb007c
:102120008002eb006033b800041498001514980086
:1021300026149800371498000c04e000870135003d
:102140008c4078000154a000217498000ff0970093
:10215000644540008a81fb00838044001142900066
:102160000482fb008002eb00482bdd00c823de0068
:10217000870373004823dd00214090008082fb002c
:10218000040020000603420087834a0069c07900ea
:102190000082fb008002eb000602420087824a00b8
:1021a00031409000c800dd00000020000400400025
:1021b0008580480020249800312498001c130700d3
:1021c00070249800012c9800644045000080fb00ba
:1021d000694078000080fb00302c98006545450080
:1021e0001ff197008a4f5100350136000a85fb0028
:1021f00069407d00e14f5000710032009d4678003b
:102200003d7c98001980fb00201c98000045eb00e5
:102210000a4078004f0778004f06be004f05be0009
:102220004f04be00ef02b10000000600e24f500074
:1022300025003200e34f5000090032001ac0b300fd
:102240000a4078004f0778004f06be004f05be00d9
:102250004f04be00ef02b10000000600f3ff37009c
:102260008180fb00818546002b4090003b4290001e
:10227000e1838000110178000200e000efff3200ee
:102280004822dd000080fb0000024200920078003e
:10229000810f5200710032000100e000e7ff3200c0
:1022a000640041000001780090007800810f520026
:1022b0006a003200640040000100e000f9ff3a00cb
:1022c0001ac0b300deff37008180fb008185460025
:1022d0002b4090003b429000e18380001101780088
:1022e0000200e000d5ff32004822dd000080fb0044
:1022f0000002420092007800810f5200b1003200cb
:102300000100e000cdff32006400410000017800d0
:1023100090007800810f5200aa0032006400400053
:102320000100e000f9ff3a001ac0b300c4ff370013
:102330008180fb006dc27800818546009b42900041
:10234000ab409000bb439000e28380001203780012
:102350000600e00008003a00004078004f077800cf
:102360004f06be004f05be004f04be00ef02b10095
:1023700000000600adff3700c83bdd008180fb0098
:102380008183430096007800818f53005100320012
:102390000100e000f0ff3200640043000003780019
:1023a00090007800818f53004a00320064004000a2
:1023b0000100e000f9ff3a001ac0b300a0ff3700a7
:1023c00088189000287090006f406000e24f500025
:1023d0007b02320067023e00e14f50000e003200e7
:1023e0007fa097008fa897001fa99700afa997001b
:1023f00040149800511498006214980073149800c7
:102400009d4678003d7c98001980fb00201c9800b8
:102410000045eb007eff3700114078000082fb0092
:102420008002eb006033b800f4a79f0085af9f00e7
:1024300096af9f00a7af9f007fa097008fa897003f
:102440001fa99700afa99700401498005114980055
:102450006214980073149800e9ff37000100e0004f
:1024600076ff3200920090000100e00073ff32001e
:102470008c84fb000900e800000040001134780063
:102480004b40900089044400a054980028799000a3
:1024900002414000227c9800a8c0900000c040008b
:1024a00020c498000281fb00050009000207d80043
:1024b00001005700cf80de00102c9800212c9800de
:1024c000664545000c46e800934f1600b5fe3e00f9
:1024d000e5fe37000100e00058ff320016009000d2
:1024e0000000e00055ff32009003780012039000d6
:1024f00016017800828f53000c0032000200e000c9
:102500004eff3200ec004300010378001101780017
:10251000828f530005003200ec8040000200e00092
:10252000f9ff3a001ac0b30045ff37000200e0008f
:1025300042ff32000600e00040ff32008c84fb00c6
:10254000c828dd000482fb00848040005602900011
:10255000f3b79f00040001008900e800818040007b
:1025600000b47800ffb197000000e00033ff3200b4
:102570004b40900089044400a054980028799000b2
:1025800002414000227c9800a8c0900000c040009a
:1025900020c498000281fb00050009000207d80052
:1025a00001005700cf80de00102c9800212c9800ed
:1025b000664545000c46e800934f160079fe3e0044
:1025c000a9fe37000100e0001cff320092009000dd
:1025d0000100e00019ff32008c84fb000900e800d4
:1025e00000004000013478004b4090008904440012
:1025f000a05498002879900002414000227c980065
:10260000a8c0900000c0400020c498000281fb00d8
:10261000050009000207d80001005700cf80de0046
:10262000102c9800212c9800664545000c46e800c7
:10263000934f16005bfe3e008bfe3700e24f5000ca
:10264000f2003200e34f5000fcfe3a000b80fb002a
:1026500000804400a0429000b0419000e0838000e0
:10266000100278001ac0b3000400e000e8fe320057
:10267000c819dd008582fb00858241009401780045
:10268000838f5200880132000300e000e0fe320038
:10269000640042008c4078001ff19700000278002f
:1026a00090017800838f52007d0132006400400069
:1026b0000300e000f9ff3a001ac0b300e0fe370063
:1026c00088189000287090006f406000e24f500022
:1026d0004a01320036013e00e14f50000e00320048
:1026e0003fa89700cfa897005fa99700efa9970090
:1026f00040149800511498006214980073149800c4
:102700009d4678003d7c98001980fb00201c9800b5
:102710000045eb00befe3700114078000082fb0050
:102720008002eb006033b800b4af9f00c5af9f00dc
:10273000d6af9f00e7af9f003fa89700cfa89700b4
:102740005fa99700efa997004014980051149800d2
:102750006214980073149800e9ff37008ff0970017
:10276000014547007bfe3700e44f5700f10032007f
:10277000e84f5700b1fe3a008ff097008180fb00d0
:10278000b1a79f00818544001b4090000082fb00a0
:102790008002eb006033b800c83bdd004835de0046
:1027a000870375004833dd00482dde000603750001
:1027b000c82add004825de00850275004822dd00bc
:1027c000b4b79f00c5b79f00d6b79f00e7b79f007b
:1027d0002b4090000082fb008002eb006033b800c9
:1027e0008603780005037800840278000002eb007d
:1027f0003fb09700cfb097005fb19700efb197005f
:102800000400400085804800060149008781490096
:10281000f0af9f0081b79f0092b79f00a3b79f00c2
:10282000bfa09700e9c278000580fb008000eb00a4
:102830006011b800b0b79f00c1b79f00d2b79f002a
:10284000e3b79f007faa97008fb297001fb397004e
:10285000afb397000002420081824a0002034b009e
:1028600083834b00b4a79f00c5a79f00d6a79f00f6
:10287000e7a79f00bb4290000580fb008000eb00b3
:102880006011b800c811dd00480ade008301720043
:102890004809dd004802de0002017200c800dd00c8
:1028a0000000eb003fa29700cfa297005fa3970024
:1028b000efa397000000420081804a0002014b0014
:1028c00083814b00f0af9f0081b79f0092b79f00bc
:1028d000a3b79f00cb4290000580fb008000eb0077
:1028e0006011b8000001be006000b8007faa970028
:1028f0008fb297001fb39700afb39700000042005c
:1029000081804a0002014b0083814b00b0a79f00e9
:10291000c1a79f00d2a79f00e3a79f00db429000c2
:102920000580fb008000eb006011b800c809dd00e5
:102930004802de00830172004801dd006000b8003b
:102940003fa29700cfa297005fa39700efa3970045
:102950000000420081804a0002014b0083814b004d
:10296000f0af9f0081b79f0092b79f00a3b79f0071
:10297000eb4290000580fb008000eb006011b80086
:10298000800178000001eb006000b8007faa97008a
:102990008fb297001fb39700afb3970000004200bb
:1029a00081804a0002014b0083814b00b0b79f0039
:1029b000c1b79f00d2b79f00e3b79f007b42900052
:1029c0000482fb008002eb006033b800c823dd0006
:1029d0000003eb006022b80004024000858248003a
:1029e00006034900878349000414980015149800d1
:1029f0002614980037149800cffd37006bc0b30041
:102a000050002000410020009ffd37000b80fb009c
:102a100000804400a0429000b0419000e08380001c
:102a2000100278001ac0b3000400e000f8fd320084
:102a3000c819dd008582fb00858241009401780081
:102a4000838f52008e0032000300e000f0fd320060
:102a5000640042008c4078001ff19700000278006b
:102a600090017800838f52008300320064004000a0
:102a70000300e000f9ff3a001ac0b300f0fd370090
:102a80008b80fb0069c678008180440091439000f0
:102a900021429000b1409000e683800096017800ca
:102aa000004578000300e000d9fd3200c808dd00d1
:102ab0000482fb000482400093007800810f5200e2
:102ac000830032000100e000d1fd3200648041004b
:102ad0001ff197008001780090007800810f52006c
:102ae0007a003200640040000100e000f9ff3a0083
:102af0001ac0b300d2fd37000b4578008a82fb0074
:102b000005824400144290004823dd0069c27a0027
:102b10000482fb00040243008002eb006033b80033
:102b2000041498001514980026149800371498007f
:102b300081fd37000ff097008082fb000582440082
:102b4000144390000683fb008003eb00483ddd004a
:102b5000c835de008b0575004835dd002443900044
:102b60008683fb00060020000a0543008b854b008e
:102b700069c37a000683fb008003eb000a0343006d
:102b80008b834b0034429000c822dd0004002000fb
:102b90000602420087824a006033b800041498009d
:102ba00015149800261498003714980062fd370019
:102bb000e44f500021003200e84f5000c8fe3a00b8
:102bc0003102be002103be00b4af9f00c5af9f001d
:102bd000d6af9f00e7af9f003fa89700cfa8970010
:102be0005fa99700efa9970040149800511498002e
:102bf0006214980073149800c1fe37001100780029
:102c00006102b8006033b800b4af9f00c5af9f0049
:102c1000d6af9f00e7af9f003fa89700cfa89700cf
:102c20005fa99700efa997004014980051149800ed
:102c30006214980073149800b1fe37001102be00b0
:102c40006033b800b4af9f00c5af9f00d6af9f0000
:102c5000e7af9f003fa89700cfa897005fa9970014
:102c6000efa997004014980051149800621498003e
:102c700073149800a2fe37000146780092f79f0077
:102c80001ac0b3000300e00061fd320014009000a0
:102c90000000e0005efd3200001c980014fd3700cb
:102ca0000146780092f79f001ac0b3000300e000cd
:102cb00057fd3200140090000000e00054fd320087
:102cc00010007800001c980009fd370092f79f0063
:102cd0001ac0b3000100e0004dfd320093029000e5
:102ce0000500e0004afd32001502780096019000d0
:102cf00093007800810f52000e0032000100e000c6
:102d000043fd32006c8041001ff197008001780084
:102d100090007800810f5200050032006c004000e6
:102d20000100e000f9ff3a001ac0b30044fd37008b
:102d300092f79f001ac0b3000100e00034fd32009a
:102d40000300e00032fd3200c838dd000c80fb00db
:102d500080804000d301900005007800030001004e
:102d6000001c98000000e00029fd32002876900049
:102d7000dffc3700e44f500021003200e84f5000e4
:102d800097fd3a003102be002103be00f4a79f0068
:102d900085af9f0096af9f00a7af9f007fa09700d1
:102da0008fa897001fa99700afa99700401498001b
:102db00051149800621498007314980090fd370025
:102dc000110078006102b8006033b800f4a79f00da
:102dd00085af9f0096af9f00a7af9f007fa0970091
:102de0008fa897001fa99700afa9970040149800db
:102df00051149800621498007314980080fd3700f5
:102e00001102be006033b800f4a79f0085af9f0099
:102e100096af9f00a7af9f007fa097008fa8970055
:102e20001fa99700afa9970040149800511498006b
:102e3000621498007314980071fd370000000500bb
:102e40000000fa0047eea8000080fa00000006002b
:102e50000000fa00870d0700620f0700be1207008e
:102e600020130700e17e2200a07e22005c01070003
:102e7000004c2e00f10020008f0f070044e0a80056
:102e800044c0a8004480a80044e0a9003f6ea80008
:102e90001801070004000700e9ff070010c0b30095
:102ea0004ef0b700ffff37000000fa002d88a900a0
:102eb000ba23ef008423ef004e23ef00930d0700a9
:102ec0000010a9000000eb00003889000070a90084
:102ed0000050a80007010700800221008000eb00dd
:102ee00001087800000421008000eb000108780050
:102ef000000321008000eb0001087800800321001e
:102f00008000eb0001087800000321008000eb0046
:102f100011009800ec0107000000eb00e04189007f
:102f20000000eb00f04189000000eb00303d89001b
:102f30000000eb00d03f8900a00121008000eb00e1
:102f4000310098000d88a9007061800040828800df
:102f50002d88a8000080fa00000006000200fa0098
:102f6000889fbe004ed0bf000004e0001c0032006d
:102f7000202820000038890000388100203889008e
:102f8000c0808000d040890020388100c040890086
:102f9000d1408100c040810023022100a280220094
:102fa000d811070010818000a0808800b0808000c8
:102fb00060418900103881005041890061418100e1
:102fc0005041810043022100c2812200cd1107003f
:102fd00020818000908088004e70ef00c200370092
:102fe00070618000417f2200b0120700b13f810074
:102ff000b07d2300808f50000d003c007061800088
:10300000417f2200a9120700b03f810081322200d7
:103010000100b8004109dd004f00de000000710032
:10302000cf08de0000007800c03f8900290037008b
:10303000b13f8100c07d2300808f5000110034001b
:10304000b13f810090e02400808f50000d003c00d3
:1030500070618000417f220094120700b03f810020
:10306000419022000100b8004109dd004f00de0060
:1030700000007100cf08de0000007800c03f89002a
:1030800014003700b13f8100a0e02400808f500081
:1030900010003400b13f810000592600808f50009d
:1030a0000c003c0070618000417f22007f1207000d
:1030b000b03f8100410d23000100b8004109dd004f
:1030c0004f00de0000007100cf08de000000780035
:1030d000c03f890050388100e10f500004003c00df
:1030e000503881000000e800503889001b0037008c
:1030f00001388100c03f81000080500040388900c5
:10310000403881000000e00005003d0001388100ea
:10311000303881000080400000388900040037000a
:10312000013881003038810000805000003889006b
:1031300040388100a1f60700800078003038810017
:1031400000004000808f500002003d00c03f810021
:10315000003889000000eb005038890000808000b2
:10316000640060000000e000090032000050a90087
:10317000203881006101b9004d18dd00c310de0068
:10318000810070004d10dd0070418900814189008f
:10319000303d8100f041890000388100e041890024
:1031a0000138810070382100808f500005003c00fc
:1031b000303323009041890070122000a041890023
:1031c000150037000138810090382100808f5000b1
:1031d000090034000138810070b52100808f500053
:1031e00005003c0090992100904189007012200058
:1031f000a0418900080037000138810090b5210006
:10320000808f500004003400d0cc20009041890011
:1032100070122000a0418900f1418100e04181004d
:1032200063022100e2822200361107003081800013
:10323000203889000038810060f60700540f07002d
:1032400010388900b080800060418900103881000a
:1032500050418900614181005041810043022100b9
:10326000c281220027110700208180009080880001
:1032700021818000208180000180b9004109dd00aa
:103280004f04de0008047100cf8cde0008007800d7
:10329000000f78001e00780001d727000080500042
:1032a000000f78001e0078004b100700a040890036
:1032b000a04081000000ea00b0408900c08080008a
:1032c000d040890020388100c0408900d140810071
:1032d000c040810023022100a280220009110700c2
:1032e00010818000a08088004f04be000080fa009a
:1032f000000006000000fa0000002400a03f890042
:1033000000002400403f890000002400603f890045
:10331000200020003038890020002000503889002b
:103320007038210020808800f028200000418900aa
:103330001002200010418900e0fd27002041890093
:10334000f0ff270030418900304181000000ea0091
:10335000404189006000b800e0408900f1408900e8
:103360002430ef00f0282000704089001002200077
:1033700080408900e0fd270090408900f0ff270091
:10338000a0408900a04081000000ea00b040890010
:103390006000b80050408900614089002230ef0091
:1033a000303323009041890070122000a041890031
:1033b000e0fd2700b041890000502300c041890092
:1033c0000000eb00d04189006000b8007041890026
:1033d000814189002630ef000080fa0000000600dd
:1033e0000e00fa0050079800610798006000b800ce
:1033f000008fbe006000b8002007980031079800d9
:103400000000eb00400798000d88a9007061800063
:10341000408288002d88a8000000eb00400798003b
:10342000140037004a30ef00000000005082800096
:103430000000e000fdff320060608000cf80de0011
:103440001e0f40005e97480070608000cf80de0055
:103450002e039000be0390000600400087804800c5
:1034600020079800310798004e0090000000e80007
:1034700040079800ce009000f0072000808f500099
:10348000e8ff36001e00be004909dd004702de00ed
:1034900004027100c78ade00840078005e0090009c
:1034a000010878002e009000be009000490add005f
:1034b0004701de0002017200c789de008200780049
:1034c0006e009000010878004a30ef002d88a900b6
:1034d0000080fa00000006000000fa00000421004d
:1034e0009000780000712200808f500004003600a8
:1034f0006dfe0700000421008000eb000108780049
:1035000000042100100078008000e8000004210081
:10351000010878000080fa00000006000000fa00b0
:10352000516180008002210031009800800221005a
:1035300030009000c600de008002210021009800cb
:1035400080022100a000900010232000808f5000f6
:103550000e003e0080022100100078008000e8008c
:10356000800221000108780080022100900078008c
:1035700000e22400808f5000040036004afe07005d
:10358000800221008000eb00010878000080fa0032
:10359000000006000000fa00916180000003210095
:1035a000310098000003210030009000c600de00ca
:1035b000000321002100980000032100a0009000da
:1035c000000e2000808f50000d003e0000032100ff
:1035d000100078008000e800000321000108780056
:1035e0000003210010007800f40f500004003600a2
:1035f0002dfe0700000321008000eb000108780089
:1036000000032100a0009000a00e2000808f500039
:103610000e003e0000032100100078008000e8004a
:103620000003210001087800000321001000780049
:10363000f40f500005003600000321002000900028
:103640008000d10000032100110098000080fa00e2
:10365000000006000000fa002161800080032100c4
:10366000310098008003210030009000c600de0089
:10367000800321002100980080032100a000900019
:10368000f0072000808f50000d003e0080032100d5
:10369000100078008000e800800321000108780015
:1036a0008003210010007800f40f50000400360061
:1036b000fdfd0700800321008000eb000108780079
:1036c0000080fa00000006000200fa000000eb0093
:1036d000000f780008003700a10420001e80400081
:1036e0008000400060712200008040008000eb00fc
:1036f000010878001e0fe8001e007800ef0f500050
:10370000f5ff36000000eb00403d89006000b80086
:10371000503e8900613e89000000eb00703e890048
:103720000000eb00000f7800080037009e007800d2
:1037300066804000800040006071220000804000f0
:103740008000eb00010878001e0fe800f003200065
:103750009e007800808f5000f4ff36000000eb00e0
:10376000003989006000b800103d8900213d8900c2
:103770000000eb00303d89000080fa0000000600e8
:103780000400fa0010079800403d81009e00900060
:10379000a004b0000002400060712200000042005e
:1037a00001087800403d81000000e800403d8900ac
:1037b000403d8100ef0f5000020036000000eb009a
:1037c000403d89006000b800503e8900613e89009c
:1037d0000000eb00000f780016003700543e810017
:1037e000653e8100a10420001e8040008000400052
:1037f000607122000080400010007800cf80de0061
:103800000400400085804800503e8900613e8900e8
:10381000503e8100613e81004c0add004401de0023
:1038200002017200c489de0002007800703e890047
:103830001e0fe8001e007800ef0f5000e7ff360073
:103840000080fa00000006000400fa004ed0bf001d
:103850000004e0000d003200008380008000400082
:1038600000722800008040009000780000002400d2
:1038700080804000d083800000804000608288000b
:10388000608280001080880025003700c0828000a0
:10389000d182800000007800b9ff0700703e8100ef
:1038a0008000eb00e0828800f1828800e0828000e6
:1038b000f1828000e00f5000e08f58000a003200d3
:1038c000e0828000f1828000000178001452200024
:1038d000d5002000048fbe001e02be0005000900b6
:1038e00042aad800d0388900d138810010808000e9
:1038f000008040001080880011808000608280007d
:1039000080805000a0aa2200808f50000400340064
:1039100061828000a0aa2200008040001080880000
:103920000080fa00000006000a00fa001007980064
:1039300021079800a03e81009e0090000006b00084
:10394000000240006071220000004200010878007f
:10395000a03e81000000e800a03e8900a03e81005a
:10396000e50f5000020036000000eb00a03e890089
:103970006000b800103f8900213f89000000eb0083
:10398000000f78000e003700143f8100253f8100b2
:10399000010620001e80400080004000607122006f
:1039a0000080400010007800cf80de00040040005e
:1039b00085804800103f8900213f89001e0fe800e4
:1039c0001e007800e50f5000efff3600103f810029
:1039d000213f810000027800062f2800675920004f
:1039e00036079800470798003e039000ce039000ea
:1039f0000500090044bbd8008000eb00803e890030
:103a0000913e890004398100803e8100913e810011
:103a100080007800660042000002400060712200d1
:103a20000000420001087800003981000000e80031
:103a30000039890001398100f0032000808f500097
:103a4000020036000000eb00003989006000b80079
:103a5000103d8900213d89000000eb00000f780037
:103a600016003700143d8100253d81009e0378003b
:103a700066804300800040006071220000804000aa
:103a800010007800cf80de000400400085804800f0
:103a9000103d8900213d8900103d8100213d8100bc
:103aa0004a0add004601de0002017200c689de001e
:103ab00002007800303d89001e0fe800f00320006e
:103ac0009e007800808f5000e6ff36000080fa00ec
:103ad0000000060021c0b30041409800b0009000f3
:103ae00012c2b300924098009000900001040100bf
:103af00050419000d1c2b300814f5100ba0036004e
:103b0000e2c2b30042409800b00190000041eb00d7
:103b100092419800b001900054c0b300a4419800b5
:103b2000b0019000b2419800e2838000a2099000a9
:103b30003001900043419800e2838000a209900088
:103b400030019000c819de00534198003001900008
:103b5000d0419000634198003001900003c1b30050
:103b6000734198003001900023c8b30003499800c6
:103b70003001900033c5b300134998003001900024
:103b8000f2c141002349980030019000ebc141008f
:103b900033499800b001900022c3b300c249980095
:103ba000b001900084c3b300d4499800b0019000e4
:103bb000e2499800b001900002c1e900f249980082
:103bc000b002900013c3b30083529800b00290007b
:103bd000945298003002900023529800b001900057
:103be000b25198003001900043c3b3004351980094
:103bf000300190008341e80053519800e283800037
:103c0000b20990000300e0007e003200320990000b
:103c1000b000900012417800e2509800e1838000eb
:103c200031099000b000900012419000f2509800cd
:103c3000e183800031099000b000900022419000a3
:103c400082589800e183800031099000b000900014
:103c50004241900092589800e18380003109900021
:103c6000b000900052419000a2589800e18380007b
:103c700031099000b000900072419000b258980055
:103c8000e183800031099000b0009000024990006b
:103c9000c2589800e183800031099000b000900084
:103ca00012499000d2589800e183800031099000b9
:103cb000b000900022499000e2589800e183800013
:103cc00031099000b000900032499000f2589800fd
:103cd000e183800031099000b000900042499000db
:103ce00082609800e183800031099000b00090006c
:103cf0006249900092609800e18380003109900051
:103d0000b000900072499000a2609800e1838000aa
:103d100031019000b0009000b2609800e183800013
:103d200041019000b0009000c2609800e1838000e3
:103d300041019000b00090004811de00d260980070
:103d4000e183800051019000e1019000b0009000fb
:103d5000e2609800e183800051019000e101900051
:103d6000b0009000481add004811de000201720028
:103d7000c819de00f2609800e183800051019000d4
:103d8000e1019000b000900083689800e18380001a
:103d900051019000e1019000b00090004819de0050
:103da00092689800e2838000cf91de00b00090001e
:103db000a2689800b0009000c81ade00481bdd0021
:103dc0004812de0004027300b4689800b00090004e
:103dd000c3689800b00090004819de00d2689800cf
:103de000900090000104010021c0b3004140980000
:103df000b000900052c1b300924098009000900033
:103e00000104010030019000216198003001900010
:103e1000116198003001900001619800300190001c
:103e2000715998003001900061599800300190005c
:103e3000515998003001900041599800300190008c
:103e400031599800300190002159980030019000bc
:103e500011599800300190000159980030019000ec
:103e6000715198003001900061519800e183800009
:103e700031019000b0009000b2609800e1838000b2
:103e800041019000b0009000c2609800e183800082
:103e900041019000b00090004811de00d26098000f
:103ea000e183800051019000e1019000b00090009a
:103eb000e2609800e183800051019000e1019000f0
:103ec000b0009000481add004811de0002017200c7
:103ed000c819de00f2609800e18380005101900073
:103ee000e1019000b000900083689800e1838000b9
:103ef00051019000e1019000b00090004819de00ef
:103f000092689800e2838000cf91de00b0009000bc
:103f1000a2689800b0009000c81ade00481bdd00bf
:103f20004812de0004027300b4689800b0009000ec
:103f3000c3689800b00090004819de00d26898006d
:103f40009000900001040100881f780000047800b0
:103f5000b80090002142900081037800574078001b
:103f6000e2838000920278000500e00088003200c1
:103f70004822dd000080fb0000024200950178002d
:103f8000830f5200130032000300e00008003200eb
:103f9000648042008002780090017800830f520014
:103fa0000c003200640040000300e000f9ff3a001a
:103fb00000c4b30021c0b30041449800804b780096
:103fc0009800900008007800010001004f0478007c
:103fd000000006000300e000f5ff3200150090002d
:103fe000a20190000300e0001a003200a20290003b
:103ff0008001eb00950f120012003200a202900027
:10400000430020001500e00074003200a20290007e
:10401000e5827900848f52000a003200a2029000eb
:1040200064834100e58279000500e000050032006c
:1040300086017800a2029000e5827900848f520008
:10404000f6ff3a0022029000648279000400e0004a
:104050003b003a00920190000300e000650032004e
:1040600010037800120290008001eb00940f1300ff
:1040700012003200120290001400e0000f00320023
:10408000c30020001202900064827900860f520063
:104090000a00320012029000ec8241006482790032
:1040a0000400e00005003200850178001202900053
:1040b00064827900860f5200f6ff3a0012029000e7
:1040c000648279000400e0001300320012019000c5
:1040d000830141004841900063415100e38040006a
:1040e000c3019000030001000004e00030003a002a
:1040f00021c0b30041449800b8009000904098005f
:104100009800900008007800010001004f0478003a
:1041100000000600afff370020c0b3004044980005
:1041200010c4b300804b780098009000080078001d
:10413000010001004f04780000000600a5ff3700d1
:1041400022019000830141004841900063415100e9
:10415000e380400093019000030001000004e000b0
:104160009aff320020c0b30040449800380090000d
:1041700021c4b30011409800980090000800780016
:10418000010001004f0478000000060091ff370095
:1041900030c4b30021c0b30041449800804b780084
:1041a00098009000080078000100010087ff3700a8
:1041b00020c0b300404498003800900041c1b300d3
:1041c000114098009800900008007800010001005c
:1041d0004f047800000006007eff37008001eb00ee
:1041e00022029000648279000400e00099ff32000e
:1041f000d3ff370020c0b3004044980040c4b30050
:10420000804b7800980090000800780001000100c1
:104210004f047800000006006eff3700881f78000a
:1042200000047800380390008680e800914278000e
:1042300056407800e3838000130278000400e00019
:1042400053003200c82add000080fb00808242005b
:1042500014017800828f5200130032000200e00047
:10426000080032006400420000027800100178006b
:10427000828f52000c003200640040000200e00017
:10428000f9ff3a0000c4b30021c0b30041449800d4
:10429000004b7800980090000800780001000100b1
:1042a0004f047800000006000200e000f5ff320035
:1042b00014009000130190000200e0003c00320066
:1042c00090037800130290000001eb00948f13001c
:1042d00012003200130290001400e0000f003200c0
:1042e000c20020001302900064027900870f520080
:1042f0000a00320013029000ec02410064027900cf
:104300000400e0000500320005017800130290006f
:1043100064027900870f5200f6ff3a001302900002
:10432000640279000400e0000f0032009301900065
:1043300002814100320190000200010000c0e8004b
:1043400040449800380090008040eb0011409800f5
:104350009800900008007800010001004f047800e8
:1043600000000600d0ff370020c0b3004044980092
:1043700010c4b300004b780098009000080078004b
:10438000010001004f04780000000600c6ff37005e
:1043900030c4b30021c0b30041449800004b780002
:1043a000980090000800780001000100bcff370071
:1043b00020c0b3004044980040c4b300004b7800d4
:1043c0009800900008007800010001004f04780078
:1043d00000000600b4ff3700b000900051417800a3
:1043e000e24f5100380032000c003600e44f51001b
:1043f0003f0032001e00310033002000e2838000c5
:10440000330198000041eb008248780021c0b300de
:104410004140980090009000010401000204e00077
:104420000a003a008001eb00e2838000330198002b
:104430000041eb008248780021c0b3004140980061
:104440009000900001040100f4ff3700e14f51009b
:104450001300320022c2b3008248780021c0b300aa
:10446000414098009000900001040100ebff3700ec
:10447000e54f5100f7ff3a0053002000e28380002f
:10448000330198000041eb008248780021c0b3005e
:10449000414098009000900001040100dfff3700c8
:1044a00013002000e2838000330198000041eb00fc
:1044b0008248780021c0b3004140980090009000ed
:1044c00001040100d5ff370023002000e2838000b3
:1044d000330198000041eb008248780021c0b3000e
:1044e000414098009000900001040100cbff37008c
:1044f00043002000e2838000330198000041eb007c
:104500008248780021c0b30041409800900090009c
:1045100001040100c1ff3700b00090000041eb0032
:1045200092409800e183800031019000b00090003b
:10453000a240980031c0b300414098009000900024
:104540000104010022c0b3004240980030019000f5
:10455000114198009000900001040100c145220023
:104560006303200081814100a2d6210082287800c7
:10457000838f5000fdff3a00e14522004100980082
:10458000000006004000900081d72100010878005b
:10459000c128220011009800c11e220021009800ad
:1045a00041fa210021109800e1102200111098001a
:1045b000000006000000fa000023ef000118800050
:1045c000f0fc2f00008060000018880001188000b7
:1045d000c0ff2f0000806000001888000103a900c0
:1045e0000623ef000823ef007038210050188800e0
:1045f0000223ef000423ef000c23ef000e23ef0053
:104600001023ef001223ef001423ef001623ef0016
:104610001823ef001a23ef001c23ef001e23ef00e6
:104620002023ef002223ef002423ef002623ef00b6
:104630002823ef00a300070025010700a8010700b9
:104640000c0007000868a9002868a9000143800041
:1046500000002700010070000043880061e3a8000b
:1046600097e3a8002be3a8001a0007000080fa00d7
:10467000000006000000fa00e11c8000f03f2f005f
:1046800000806000e01c8800311b8000f03f2f009c
:1046900000806000301b880081198000f03f2f00ef
:1046a00000806000801988009da3a80067a3a8006f
:1046b00031a3a8009d83a8006783a8003183a800c8
:1046c000ba23ef008423ef004e23ef000080fa00ae
:1046d000000006000800fa0000192000000f780012
:1046e0000000eb00300798000000eb001007980076
:1046f0000000eb0020079800e11c8000f03f2f0035
:1047000000806000e01c8800311b8000f03f2f001b
:1047100000806000301b880081198000f03f2f006e
:1047200000806000801988009da3a80067a3a800ee
:1047300031a3a8009d83a8006783a8003183a80047
:10474000e0312100d01d8800e0312100201c8800cc
:10475000e0312100701a88004f0037009e00900061
:10476000310798007019800011800a0000000000d5
:104770000080fb0010079800be0090001e00900013
:10478000808f5000440032001e0090000000e000c6
:1047900041003a001e0fe9002e0090000000e800e2
:1047a00020079800e01520009e007800808f5000c0
:1047b00002003a003183a9000b003700a00f20004f
:1047c0009e007800808f500002003a006783a900a5
:1047d00005003700600920009e007800808f50009f
:1047e00001003a009d83a9002e009000f90f5000af
:1047f00029003600e11c80000000210000806000dc
:104800000000e00008003a00d01d8000e20f5000d8
:1048100004003600d01d80000080e900d01d880013
:1048200001003700ba23ef00311b80000000210097
:10483000008060000000e00008003a00201c8000ba
:10484000e20f500004003600201c80000080e900c8
:10485000201c8800010037008423ef0081198000ac
:1048600000002100008060000000e00008003a0025
:10487000701a8000e20f500004003600701a8000a9
:104880000080e900701a8800010037004e23ef0015
:104890000000eb00200798001e0078000000e000f8
:1048a000aeff3a00ba23ef008423ef004e23ef005f
:1048b0009da3a90067a3a90031a3a9000080fa0065
:1048c000000006000000fa002a23ef002be3a900f5
:1048d0005119800070fe2f00008060000030a000a1
:1048e000501988005119800080ff2f00008060005f
:1048f0000020a0005019880051198000f08f2f006f
:1049000000806000501988002c23ef002de3a900df
:104910002dc3a8002da3a8002d63a8006119800055
:10492000f08f2f0000806000601988002cc3a90060
:104930006119800000ff2f0000806000601988006e
:104940002e23ef003023ef0031e3a90031c3a9008b
:1049500031a3a9003183a90081198000f03f2f0005
:10496000008060008019880081198000f0cf2f003e
:10497000008060008019880081198000f0f32f000a
:10498000008060008019880081198000f0fc2f00f1
:1049900000806000801988008119800030ff2f009e
:1049a000008060008019880081198000c0ff2f00fe
:1049b00000806000801988003223ef009119800088
:1049c000f0ff280000806000901988003303a900e0
:1049d00091198000f0fc2f00008060009019880081
:1049e0003263a8003243a8003223a9003203a90091
:1049f0003423ef00a1198000f07f200000806000c8
:104a0000a01988003543a9003523a9003503a80063
:104a1000a119800070fe2f00008060000030a0000f
:104a2000a0198800a119800080ff2f00008060007d
:104a3000a01988003623ef0037e3a90037c3a90087
:104a400037a3a9003783a900b1198000f0cf2f0048
:104a500000806000b019880036e3a90036c3a900c1
:104a600036a3a900b119800000fe2f00008060006d
:104a7000b01988003823ef003a23ef003c23ef0001
:104a80003e23ef004023ef004223ef004423ef00da
:104a90004623ef004823ef004a23ef004c23ef00aa
:104aa0004e23ef005023ef005223ef00800c200034
:104ab000d01a8800800c2000e01a88005423ef00f0
:104ac0005623ef005823ef000080fa000000060094
:104ad0000000fa006023ef0061e3a900011b8000e1
:104ae00070fe2f00008060000030a000001b8800d6
:104af000011b800080ff2f00008060000020a000cc
:104b0000001b8800011b8000f08f2f0000806000d8
:104b1000001b88006223ef0063e3a90063c3a800c1
:104b200063a3a8006363a900111b8000f08f2f000e
:104b3000008060000090a000101b880062c3a900e4
:104b4000111b800000ff2f00008060000000a0000b
:104b5000101b88006423ef006623ef0067e3a900c1
:104b600067c3a90067a3a9006783a900311b800060
:104b7000f03f2f0000806000301b8800311b800058
:104b8000f0cf2f0000806000301b8800311b8000b8
:104b9000f0f32f0000806000301b8800311b800084
:104ba000f0fc2f0000806000301b8800311b80006b
:104bb00030ff2f0000806000301b8800311b800018
:104bc000c0ff2f0000806000301b88006823ef00ca
:104bd000411b8000f0ff280000806000401b88001f
:104be0006903a900411b8000f0fc2f0000806000d9
:104bf000401b88006863a8006843a8006823a900d8
:104c00006803a9006a23ef00511b8000f07f200099
:104c100000806000501b88006b43a9006b23a90033
:104c20006b03a900511b800070fe2f000080600004
:104c3000501b8800511b800080ff2f000080600007
:104c4000501b88006c23ef006de3a9006dc3a90021
:104c50006da3a9006d83a900611b800000302000b6
:104c600001007000601b88006ce3a9006cc3a90000
:104c70006ca3a900611b800000fe2f000080600073
:104c8000601b88006e23ef007023ef007223ef009b
:104c90007423ef007623ef007823ef007a23ef00f0
:104ca0007c23ef007e23ef008023ef008223ef00c0
:104cb0008423ef008623ef008823ef00800c200080
:104cc000801c8800800c2000901c88008a23ef0044
:104cd0008c23ef008e23ef000080fa000000060016
:104ce0000000fa009623ef0097e3a900b11c8000b2
:104cf00070fe2f00008060000030a000b01c880013
:104d0000b11c800080ff2f00008060000020a00008
:104d1000b01c8800b11c8000f08f2f000080600064
:104d2000b01c88009823ef0099e3a90099c3a8005c
:104d300099a3a8009963a900c11c8000f08f2f00df
:104d4000008060000090a000c01c880098c3a900eb
:104d5000c11c800000ff2f00008060000000a00048
:104d6000c01c88009a23ef009c23ef009de3a9005c
:104d70009dc3a9009da3a9009d83a900e11c8000fb
:104d8000f03f2f0000806000e01c8800e11c8000e4
:104d9000f0cf2f0000806000e01c8800e11c800044
:104da000f0f32f0000806000e01c8800e11c800010
:104db000f0fc2f0000806000e01c8800e11c8000f7
:104dc00030ff2f0000806000e01c8800e11c8000a4
:104dd000c0ff2f0000806000e01c88009e23ef00d1
:104de000f11c8000f0ff280000806000f01c8800ab
:104df0009f03a900f11c8000f0fc2f0000806000e0
:104e0000f01c88009e63a8009e43a8009e23a90072
:104e10009e03a900a023ef00011d8000f07f200069
:104e200000806000001d8800a143a900a123a90003
:104e3000a103a900011d800070fe2f00008060000a
:104e4000001d8800011d800080ff2f000080600091
:104e5000001d8800a223ef00a3e3a900a3c3a900bb
:104e6000a3a3a900a383a900111d80000030200086
:104e700001007000101d8800a2e3a900a2c3a900d0
:104e8000a2a3a900111d800000fe2f000080600079
:104e9000101d8800a423ef00a623ef00a823ef0035
:104ea000aa23ef00ac23ef00ae23ef00b023ef0006
:104eb000b223ef00b423ef00b623ef00b823ef00d6
:104ec000ba23ef00bc23ef00be23ef00800c2000cc
:104ed000301e8800800c2000401e8800c023ef0098
:104ee000c223ef00c423ef000080fa000000060098
:104ef00011002000110898008000eb0001089800c4
:104f000000000600e4874700889fbe008a9fbe001d
:104f10008c9fbe008e1f780000047800980c9000d3
:104f20005ac5b3003b002000e18f540015003a0041
:104f300058009000b0009000010001000004e00063
:104f40002300320008089000e20f500005013200f3
:104f500057003e000000e0009f003a004a549800cd
:104f60005054980058009000100178008a40780052
:104f700002000100090c9800980c9000e18f540089
:104f8000ebff32000900e00014003a0058009000e6
:104f9000a0009000010001000004e0000f003200ba
:104fa000580090009000900001000100f80090006f
:104fb000e28f5000b600320017003e000100e00012
:104fc00063003a0051c5b300814f50001801320010
:104fd000980c90000900e000ecff32006a064400e3
:104fe000e0838000c00890000100e000040032006f
:104ff000c0089000a1189000e48f50004a013200d0
:105000004f0778004f06be004f05be004f04be009c
:105010004f00b10000000600e48f50008000320015
:1050200085003900e58f5000040032000000eb00dd
:1050300070049800980c9000e6ff3700c85090006c
:1050400052c5b30082cf500010003200e2cf5000b2
:105050000e003200814f500010003a0038009000de
:1050600010407800fa4f5000f6003e000080fb0030
:10507000c800900000004000e100780008007800bf
:1050800001000100980c9000d2ff370081c0ea00b7
:1050900041549800814f5000f0ff320031c1b300fd
:1050a0000800780027fd0700980c9000c9ff370022
:1050b000e40f5000850032008c003900e50f5000ed
:1050c000050032000000eb00100c980070049800fe
:1050d0008004eb00adff3700c850900050c5b3000e
:1050e00080cf50000d003200e2cf50000b003200a4
:1050f0005800900010017800020001005800900054
:10510000d0009000010001000000eb00100c98009e
:10511000700498008004eb009cff370081c0ea0017
:1051200041549800580090001001780002000100de
:1051300058009000d0009000010001000000eb003a
:10514000100c9800700498008004eb008fff37006b
:10515000e18f5000b5ff3a000004e0001b00320070
:10516000d8409000814f5000db003e0052c5b30094
:10517000824040004154980040449800595498009f
:10518000210020007104980082407800814f500077
:1051900002003200e24f50008dff3a0072f0b7007b
:1051a00020002000808388004000200070049800c8
:1051b000980c900087ff370051c5b30022072100eb
:1051c00012417800814f5100cb00320079049800e1
:1051d000980c90007fff3700e10f5000b9ff3a00b4
:1051e000c840900048509000014040004054980052
:1051f0005800900010017800020001004840900023
:105200008a4f500083003200e24f5000810032008c
:1052100020002000000c9800980c900042ff3700fe
:105220000004e000e4ff3a008083800070049800ee
:10523000980c900067ff3700c850900080c0400075
:1052400041549800d85090008180fb0038019000b4
:1052500000f17800d85090008140e8005154980047
:105260004841900082cf50004d00390051c5b30035
:10527000814f500078003200e24f5000760032003b
:105280005000200070049800980c900051ff3700e7
:10529000c848900080cf5000ccff3a0048509000a2
:1052a000014040004054980050c5b30080cf5000ea
:1052b00081003200e2cf50007f0032003000200039
:1052c00070049800980c900042ff3700580090003e
:1052d000100178008040eb00020001008083800014
:1052e000000c9800980c90000fff3700d8509000e9
:1052f0008180fb0038009000810040004850900001
:10530000114040004054980058009000100178006f
:105310009140780002000100d85090000180fb000d
:105320008001e800484190000281fb00828f51001b
:105330002700350038019000624078008a4f500005
:1053400054003200e24f5000520032005000200062
:10535000000c98008140e80051549800980c90008f
:10536000f1fe3700c84890004850900001404000ce
:10537000405498005800900010017800020001008d
:10538000484890008a4f50001c003200e24f500005
:105390001a0032000b0c9800980c9000e2fe3700c7
:1053a00051c5b300814f500002003200e24f50005f
:1053b000c2ff3a0072f0b7003000200080838800fe
:1053c0004000200070049800980c900001ff370006
:1053d00038019000624078008a4f5000250032006a
:1053e000e24f5000230032000b0c98008140e8008f
:1053f00051549800980c9000cbfe370072f0b70023
:105400008b83880040002000000c9800980c9000ce
:10541000c5fe370072f0b7002000200080838800ae
:1054200040002000000c9800980c9000befe370051
:10543000405498001000200070049800980c9000d0
:10544000e4fe370011c2b300080078003dfc0700fd
:10545000980c9000dffe370072f0b700500020007b
:10546000808388004000200070049800980c900011
:10547000d8fe370072f0b7008b8388004000200010
