:020000040000fa
:080000000002040000000000f2
:020000040000fa
:04000800fa020000f8
:020000040000fa
:04000c003c030000b1
:020000040000fa
:040010007c0300006d
:020000040000fa
:040014001a030000cb
:020000040000fa
:040018005c03000085
:020000040000fa
:04001c00d603000007
:020000040000fa
:040020009c0300003d
:020000040000fa
:04002400d6030000ff
:020000040000fa
:04002800d6030000fb
:020000040000fa
:04002c00d6030000f7
:020000040000fa
:04003000d6030000f3
:020000040000fa
:04003400d6030000ef
:020000040000fa
:04003800d6030000eb
:020000040000fa
:04003c00d6030000e7
:020000040000fa
:04004000d6030000e3
:020000040000fa
:04004400d6030000df
:020000040000fa
:04004800d6030000db
:020000040000fa
:04004c00d6030000d7
:020000040000fa
:04005000d6030000d3
:020000040000fa
:04005400d6030000cf
:020000040000fa
:04005800d6030000cb
:020000040000fa
:04005c00d6030000c7
:020000040000fa
:04006000d6030000c3
:020000040000fa
:04006400d6030000bf
:020000040000fa
:04006800d6030000bb
:020000040000fa
:04006c00d6030000b7
:020000040000fa
:04007000d6030000b3
:020000040000fa
:04007400d6030000af
:020000040000fa
:04007800d6030000ab
:020000040000fa
:04007c00d6030000a7
:020000040000fa
:04008000d6030000a3
:020000040000fa
:04008400d60300009f
:020000040000fa
:04008800d60300009b
:020000040000fa
:04008c00d603000097
:020000040000fa
:04009000d603000093
:020000040000fa
:04009400d60300008f
:020000040000fa
:04009800d60300008b
:020000040000fa
:04009c00d603000087
:020000040000fa
:0400a000d603000083
:020000040000fa
:0400a400d60300007f
:020000040000fa
:0400a800d60300007b
:020000040000fa
:0400ac00d603000077
:020000040000fa
:0400b000d603000073
:020000040000fa
:0400b400d60300006f
:020000040000fa
:0400b800d60300006b
:020000040000fa
:0400bc00d603000067
:020000040000fa
:0400c000d603000063
:020000040000fa
:0400c400d60300005f
:020000040000fa
:0400c800d60300005b
:020000040000fa
:0400cc00d603000057
:020000040000fa
:0400d000d603000053
:020000040000fa
:0400d400d60300004f
:020000040000fa
:0400d800d60300004b
:020000040000fa
:0400dc00d603000047
:020000040000fa
:0400e000d603000043
:020000040000fa
:0400e400d60300003f
:020000040000fa
:0400e800d60300003b
:020000040000fa
:0400ec00d603000037
:020000040000fa
:0400f000d603000033
:020000040000fa
:0400f400d60300002f
:020000040000fa
:0400f800d60300002b
:020000040000fa
:0400fc00d603000027
:020000040000fa
:04010000d603000022
:020000040000fa
:04010400d60300001e
:020000040000fa
:04010800d60300001a
:020000040000fa
:04010c00d603000016
:020000040000fa
:04011000d603000012
:020000040000fa
:04011400d60300000e
:020000040000fa
:04011800d60300000a
:020000040000fa
:04011c00d603000006
:020000040000fa
:04012000d603000002
:020000040000fa
:04012400d6030000fe
:020000040000fa
:04012800d6030000fa
:020000040000fa
:04012c00d6030000f6
:020000040000fa
:04013000d6030000f2
:020000040000fa
:04013400d6030000ee
:020000040000fa
:04013800d6030000ea
:020000040000fa
:04013c00d6030000e6
:020000040000fa
:04014000d6030000e2
:020000040000fa
:04014400d6030000de
:020000040000fa
:04014800d6030000da
:020000040000fa
:04014c00d6030000d6
:020000040000fa
:04015000d6030000d2
:020000040000fa
:04015400d6030000ce
:020000040000fa
:04015800d6030000ca
:020000040000fa
:04015c00d6030000c6
:020000040000fa
:04016000d6030000c2
:020000040000fa
:04016400d6030000be
:020000040000fa
:04016800d6030000ba
:020000040000fa
:04016c00d6030000b6
:020000040000fa
:04017000d6030000b2
:020000040000fa
:04017400d6030000ae
:020000040000fa
:04017800d6030000aa
:020000040000fa
:04017c00d6030000a6
:020000040000fa
:04018000d6030000a2
:020000040000fa
:04018400d60300009e
:020000040000fa
:04018800d60300009a
:020000040000fa
:04018c00d603000096
:020000040000fa
:04019000d603000092
:020000040000fa
:04019400d60300008e
:020000040000fa
:04019800d60300008a
:020000040000fa
:04019c00d603000086
:020000040000fa
:0401a000d603000082
:020000040000fa
:0401a400d60300007e
:020000040000fa
:0401a800d60300007a
:020000040000fa
:0401ac00d603000076
:020000040000fa
:0401b000d603000072
:020000040000fa
:0401b400d60300006e
:020000040000fa
:0401b800d60300006a
:020000040000fa
:0401bc00d603000066
:020000040000fa
:0401c000d603000062
:020000040000fa
:0401c400d60300005e
:020000040000fa
:0401c800d60300005a
:020000040000fa
:0401cc00d603000056
:020000040000fa
:0401d000d603000052
:020000040000fa
:0401d400d60300004e
:020000040000fa
:0401d800d60300004a
:020000040000fa
:0401dc00d603000046
:020000040000fa
:0401e000d603000042
:020000040000fa
:0401e400d60300003e
:020000040000fa
:0401e800d60300003a
:020000040000fa
:0401ec00d603000036
:020000040000fa
:0401f000d603000032
:020000040000fa
:0401f400d60300002e
:020000040000fa
:0401f800d60300002a
:020000040000fa
:0401fc00d603000026
:020000040000fa
:04020000d603000021
:020000040000fa
:04020400d60300001d
:020000040000fa
:04020800d603000019
:020000040000fa
:04020c00d603000015
:020000040000fa
:04021000d603000011
:020000040000fa
:04021400d60300000d
:020000040000fa
:04021800d603000009
:020000040000fa
:04021c00d603000005
:020000040000fa
:04022000d603000001
:020000040000fa
:04022400d6030000fd
:020000040000fa
:04022800d6030000f9
:020000040000fa
:04022c00d6030000f5
:020000040000fa
:04023000d6030000f1
:020000040000fa
:04023400d6030000ed
:020000040000fa
:04023800d6030000e9
:020000040000fa
:04023c00d6030000e5
:020000040000fa
:04024000d6030000e1
:020000040000fa
:04024400d6030000dd
:020000040000fa
:04024800d6030000d9
:020000040000fa
:04024c00d6030000d5
:020000040000fa
:04025000d6030000d1
:020000040000fa
:04025400d6030000cd
:020000040000fa
:04025800d6030000c9
:020000040000fa
:04025c00d6030000c5
:020000040000fa
:04026000d6030000c1
:020000040000fa
:04026400d6030000bd
:020000040000fa
:04026800d6030000b9
:020000040000fa
:04026c00d6030000b5
:020000040000fa
:04027000d6030000b1
:020000040000fa
:04027400d6030000ad
:020000040000fa
:04027800d6030000a9
:020000040000fa
:04027c00d6030000a5
:020000040000fa
:04028000d6030000a1
:020000040000fa
:04028400d60300009d
:020000040000fa
:04028800d603000099
:020000040000fa
:04028c00d603000095
:020000040000fa
:04029000d603000091
:020000040000fa
:04029400d60300008d
:020000040000fa
:04029800d603000089
:020000040000fa
:04029c00d603000085
:020000040000fa
:0402a000d603000081
:020000040000fa
:0402a400d60300007d
:020000040000fa
:0402a800d603000079
:020000040000fa
:0402ac00d603000075
:020000040000fa
:0402b000d603000071
:020000040000fa
:0402b400d60300006d
:020000040000fa
:0402b800d603000069
:020000040000fa
:0402bc00d603000065
:020000040000fa
:0402c000d603000061
:020000040000fa
:0402c400d60300005d
:020000040000fa
:0402c800d603000059
:020000040000fa
:0402cc00d603000055
:020000040000fa
:0402d000d603000051
:020000040000fa
:0402d400d60300004d
:020000040000fa
:0402d800d603000049
:020000040000fa
:0402dc00d603000045
:020000040000fa
:0402e000d603000041
:020000040000fa
:0402e400d60300003d
:020000040000fa
:0402e800d603000039
:020000040000fa
:0402ec00d603000035
:020000040000fa
:0402f000d603000031
:020000040000fa
:0402f400d60300002d
:020000040000fa
:0402f800d603000029
:020000040000fa
:0402fc00d603000025
:020000040000fa
:04030000d603000020
:020000040000fa
:04030400d60300001c
:020000040000fa
:04030800d603000018
:020000040000fa
:04030c00d603000014
:020000040000fa
:04031000d603000010
:020000040000fa
:04031400d60300000c
:020000040000fa
:04031800d603000008
:020000040000fa
:04031c00d603000004
:020000040000fa
:04032000d603000000
:020000040000fa
:04032400d6030000fc
:020000040000fa
:100400002f0221000eff22000e01880000000000d4
:10041000000020000000e000020032000001200087
:100420002002880014000700e20007000000e0003e
:1004300003003a00807b200001002000020037000a
:100440000000200001002000810f70000100320038
:100450000f000700000020000000e0000200320052
:10046000000002000000000016070200000000006b
:100470000040da000000fe00200020000000e00044
:1004800002003200100020009001880000000600e9
:10049000a1028800800478000000eb001f003700f4
:1004a000e284440054a0b4009905ba00e2844400f8
:1004b00054a0b4009906ba00e284440054a0b400e9
:1004c0000006eb00476fde00fd07b200ae018800ba
:1004d000636ce10003003a000ad801000000eb0061
:1004e0000e003700606ce10008003a00004deb00a0
:1004f0000a05e800020039003420ec000af0a000f0
:100500008b05e900f9ff3e00040037006168e10057
:10051000010032000086eb000b00070019c7ba008b
:100520001905ba000e04e00003003a000a00e000da
:10053000dbff3a0000000600fe07b200ae028800b2
:100540008a047800f5ff37000cd0a300e20f4d00bd
:100550001c003b0089027800354dba000a05e8000e
:10056000020039003420ec000af0a0008b05e900fd
:100570000f003200254dba000a05e80002003900dc
:100580003420ec000af0a0008b05e90008003200de
:100590000c00e0000600320015cdba000a05e800a4
:1005a000020039003420ec000af0a0008b05e900bd
:1005b0008984e80054a0b4000b00e000e2ff3a0098
:1005c000000006009902ba00055d78008b05e9007d
:1005d000f7ff3200c82ade00055d78008b05e900d0
:1005e000f3ff32000c00e000f1ff320019ddba0029
:1005f000eeff37003600f800809fbe00829fbe00ed
:10060000849fbe00869fbe000000fa00c028a9009b
:100610000000eb004a0207000080fa004f03be0012
:100620004f02be004f01be004f00be003600f90071
:10063000004006003600f800809fbe00829fbe008a
:10064000849fbe00869fbe000000fa0041020700a2
:10065000c048a90010002000390207000080fa00fd
:100660004f03be004f02be004f01be004f00be0050
:100670003600f900004006003600f800809fbe00fa
:10068000829fbe00849fbe00869fbe000000fa00cd
:10069000c068a90020002000290207000080fa009d
:1006a0004f03be004f02be004f01be004f00be0010
:1006b0003600f900004006003600f800809fbe00ba
:1006c000829fbe00849fbe00869fbe000000fa008d
:1006d000c088a90030002000190207000080fa003d
:1006e0004f03be004f02be004f01be004f00be00d0
:1006f0003600f900004006003600f800809fbe007a
:10070000829fbe00849fbe00869fbe000000fa004c
:10071000c608a90070002000090207000080fa0046
:100720004f03be004f02be004f01be004f00be008f
:100730003600f900004006003600f800809fbe0039
:10074000829fbe00849fbe00869fbe000000fa000c
:100750002146800000102000008060000000e000c2
:1007600003003200c508a900c0002000f401070002
:1007700020468000700060000000e00003003200ae
:10078000c488a900a0002000ed01070020468000d9
:10079000610060000000e00003003200c408a9000e
:1007a000b0002000e6010700ffff37000040da003c
:0807b0000000fe00000005003e
:020000040000fa
:1007b8000000fa0000012000501988000001200004
:1007c800b01c88000023ef000223ef000423ef0091
:1007d8000623ef000823ef000001200050188800ce
:1007e8000c23ef000e23ef001023ef001223ef007d
:1007f8001423ef001623ef001823ef001a23ef004d
:100808001c23ef001e23ef002023ef002223ef001c
:100818002423ef002623ef002823ef002c23ef00ea
:100828009823ef002e23ef009a23ef003023ef00e8
:100838009c23ef00c000200090198800c000200011
:10084800f01c88003423ef00a023ef003623ef00cc
:10085800a223ef003823ef00a423ef003a23ef0090
:10086800a623ef003c23ef00a823ef003e23ef0070
:10087800aa23ef004023ef00ac23ef004223ef0050
:10088800ae23ef004423ef00b023ef004623ef0030
:10089800b223ef004823ef00b423ef004a23ef0010
:1008a800b623ef004c23ef00b823ef0060092000c7
:1008b800701a880060092000d01d88005023ef00be
:1008c800bc23ef00800c2000901a8800800c2000c8
:1008d800f01d88005423ef00c023ef005623ef00db
:1008e800c223ef005823ef00c423ef005a23ef0080
:1008f800c623ef005c23ef00c823ef002be3a8001a
:1009080097e3a8000080fa00000006000000fa0043
:100918000080fa00000006000000fa004040800055
:10092800680060000000e00002003200f7ff0700e6
:100938000868a9000080fa00000006000000fa001c
:100948000080fa00000006000000fa004140800024
:1009580000022000008060000000e0000200320079
:10096800f6ff070008a8a9000080fa0000000600aa
:100978000000fa000080fa00000006000000fa00fb
:10098800a140800000202000008060000000e000fe
:1009980002003200f6ff07001528a9000080fa00bf
:1009a800000006000000fa000080fa0000000600bf
:1009b8000000fa00a1408000004020000080600094
:1009c8000000e00002003200f6ff07001548a90009
:1009d8000080fa00000006000000fa000080fa001b
:1009e800000006000000fa00a140800000802000fe
:1009f800008060000000e00002003200f6ff0700ff
:100a08001568a9000080fa00000006000000fa003e
:100a18000080fa00000006000000fa00a1408000f3
:100a280000002100008060000000e00002003200a9
:100a3800f6ff07001588a9000080fa0000000600ec
:100a48000000fa000080fa00000006000000fa002a
:100a5800a140800000002200008060000000e0004b
:100a680002003200f6ff070015a8a9000080fa006e
:100a7800000006000000fa000080fa0000000600ee
:100a88000000fa00a14080000000240000806000ff
:100a98000000e00002003200f6ff070015c8a900b8
:100aa8000080fa00000006000000fa00007c8000c8
:100ab8000080fa00000006000200fa00faff0700b2
:100ac800000f78001e007800240007000004e000f2
:100ad8000200320000002800710007001e007800a4
:100ae8002a0007000004e000020032000000240091
:100af8006b0007001e007800320007000004e000c9
:100b08000200320000202000650007001e00780067
:100b18003a0007000004e00002003200000820004c
:100b28005f0007001e007800420007000004e00094
:100b38000200320000042000590007001e0078005f
:100b48004a0007000004e000020032000001200013
:100b5800530007000080fa00000006000400fa00b5
:100b6800100798000040eb00004f78001e0090002e
:100b78000000e00002003d0010c0b300004f780004
:100b88001e4078000080fa00000006000400fa0009
:100b9800100798000040eb00004f78009e0090007e
:100ba80000002400008060000000e0000200320025
:100bb80010c0b300004f78001e4078000080fa0093
:100bc800000006000400fa00100798000040eb003f
:100bd800004f78009e0090000020200000806000f8
:100be8000000e0000200320010c0b300004f78009f
:100bf8001e4078000080fa00000006000400fa0099
:100c0800100798000040eb00004f78009e0090000d
:100c180000082000008060000000e00002003200b0
:100c280010c0b300004f78001e4078000080fa0022
:100c3800000006000400fa00100798000040eb00ce
:100c4800004f78009e0090000004200000806000a3
:100c58000000e0000200320010c0b300004f78002e
:100c68001e4078000080fa00000006000400fa0028
:100c7800100798000040eb00004f78001e0090001d
:100c8800700060000000e0000200320010c0b300f5
:100c9800004f78001e4078000080fa00000006002f
:100ca8000200fa00000f78009e80ea00007c8000b5
:100cb80000806000007c88000080fa0000000600c8
:100cc8000000fa00802fef000080fa000000060004
:100cd8000000fa0010002300307c88006009200022
:100ce800407c88008c2fef0010042000507c880086
:100cf80010102000707c880060092000807c88002b
:100d080010042000907c8800b82fef00ba2fef0065
:100d1800be2fef00002def00a02fef00a42fef0053
:100d2800a62fef00a82fef00aa2fef00ae2fef009d
:100d3800b02fef00b22fef007200200080072000d4
:100d4800a109200053f820008049780081497800e3
:100d5800824978000001eb00600420007105200042
:100d680043f820008049780081497800824978005a
:100d78000080fa00000006000000fa00707c800085
:100d8800ee800a00000000000080fb0000f0a700d1
:100d98000000ea000000ea004f00de000040780092
:100da8000080fa00000006000200fa00000f780038
:100db8001e007800e10f500003003200e30f5000de
:100dc80003003200040037002be3a80002003700bc
:100dd80097e3a800000000000080fa000000060069
:100de8000400fa00000f7800110798001e00780030
:100df800e10f500003003200e30f500004003200fe
:100e0800060037009e009000711a88000300370022
:100e18009e009000d11d8800000000000080fa00ac
:100e2800000006000000fa00390007004106200013
:100e380010002000eaff070010002000daff07007a
:100e4800faff37000000fa00062eef0000402500e8
:100e5800107188003e2eef005a2eef00f00120009e
:100e680010708800d03f2300f0708800f0ff230046
:100e7800d071880020502200b07288000c2eef003c
:100e8800282eef00442eef00602eef000a2eef0010
:100e9800262eef00422eef005e2eef00082eef0008
:100ea800242eef00402eef005c2eef00f001200012
:100eb80000708800f0392000e0708800f00c2000f5
:100ec800c071880000402200a07288000080fa00eb
:100ed800000006000200fa00000f780021028000de
:100ee800200f2000008060001e0070002002880093
:100ef8000080fa00000006000000fa00c3e8a8001d
:100f080000000000000000000080fa000000060059
:100f18000000fa00cbff07001b0007006cff07006a
:100f280023fe0700f4ff070000022000e9ff070086
:100f38000080fa00000006000200fa00000f7800a6
:100f48009e00780001808800ffff37000000fa004b
:100f58002000210080077800a001210000018800fe
:080f68000080fa000000060001
:020000040000fa
:100f700002100000200000008000000000100000af
:100f80000200000082000000ffff000000000000df
:020000040000fa
:0c0f90000000fa000080fa0000000600db
:020000040000fa
:04be0000ffffff0041
:020000040000fa
:04be2000ffffff0021
:020000040000fa
:04be30007fffff0091
:020000040000fa
:04be3800bbffff004d
:020000040000fa
:04be40007f7fff0001
:020000040000fa
:04be4800ffffff00f9
:020000040000fa
:04be5000ddffff0013
:020000040000fa
:04be58000000ff00e7
:020000040000fa
:04be60000000ff00df
:020000040000fa
:04be68000000ff00d7
:020000040000fa
:04be70000000ff00cf
:020000040000fa
:04be7800ffffff00c9
:020000040000fa
:04be8000fffcff00c4
:020000040000fa
:04be8800ffffff00b9
:00000001FF
